{
	"Solidity_Data_Types/State.sol": {
		"StateFull": {
			"abi": [
				{
					"constant": false,
					"inputs": [
						{
							"name": "_state",
							"type": "uint8"
						}
					],
					"name": "changeState",
					"outputs": [],
					"payable": false,
					"stateMutability": "nonpayable",
					"type": "function"
				},
				{
					"constant": false,
					"inputs": [],
					"name": "increments",
					"outputs": [],
					"payable": false,
					"stateMutability": "nonpayable",
					"type": "function"
				},
				{
					"constant": true,
					"inputs": [],
					"name": "counter",
					"outputs": [
						{
							"name": "counter",
							"type": "uint256"
						},
						{
							"name": "timestamp",
							"type": "uint256"
						},
						{
							"name": "addr",
							"type": "address"
						}
					],
					"payable": false,
					"stateMutability": "view",
					"type": "function"
				},
				{
					"constant": true,
					"inputs": [],
					"name": "state",
					"outputs": [
						{
							"name": "",
							"type": "uint8"
						}
					],
					"payable": false,
					"stateMutability": "view",
					"type": "function"
				},
				{
					"inputs": [],
					"payable": false,
					"stateMutability": "nonpayable",
					"type": "constructor"
				}
			],
			"devdoc": {
				"methods": {}
			},
			"evm": {
				"assembly": "    /* \"Solidity_Data_Types/State.sol\":27:891  contract StateFull {\r... */\n  mstore(0x40, 0x80)\n    /* \"Solidity_Data_Types/State.sol\":294:354  constructor() public {\r... */\n  callvalue\n    /* \"--CODEGEN--\":8:17   */\n  dup1\n    /* \"--CODEGEN--\":5:7   */\n  iszero\n  tag_1\n  jumpi\n    /* \"--CODEGEN--\":30:31   */\n  0x0\n    /* \"--CODEGEN--\":27:28   */\n  dup1\n    /* \"--CODEGEN--\":20:32   */\n  revert\n    /* \"--CODEGEN--\":5:7   */\ntag_1:\n    /* \"Solidity_Data_Types/State.sol\":294:354  constructor() public {\r... */\n  pop\n    /* \"Solidity_Data_Types/State.sol\":336:346  msg.sender */\n  caller\n    /* \"Solidity_Data_Types/State.sol\":328:333  owner */\n  0x0\n  dup1\n    /* \"Solidity_Data_Types/State.sol\":328:346  owner = msg.sender */\n  0x100\n  exp\n  dup2\n  sload\n  dup2\n  0xffffffffffffffffffffffffffffffffffffffff\n  mul\n  not\n  and\n  swap1\n  dup4\n  0xffffffffffffffffffffffffffffffffffffffff\n  and\n  mul\n  or\n  swap1\n  sstore\n  pop\n    /* \"Solidity_Data_Types/State.sol\":27:891  contract StateFull {\r... */\n  dataSize(sub_0)\n  dup1\n  dataOffset(sub_0)\n  0x0\n  codecopy\n  0x0\n  return\nstop\n\nsub_0: assembly {\n        /* \"Solidity_Data_Types/State.sol\":27:891  contract StateFull {\r... */\n      mstore(0x40, 0x80)\n      jumpi(tag_1, lt(calldatasize, 0x4))\n      calldataload(0x0)\n      0x100000000000000000000000000000000000000000000000000000000\n      swap1\n      div\n      0xffffffff\n      and\n      dup1\n      0x268f1153\n      eq\n      tag_2\n      jumpi\n      dup1\n      0x56aa2dc5\n      eq\n      tag_3\n      jumpi\n      dup1\n      0x61bc221a\n      eq\n      tag_4\n      jumpi\n      dup1\n      0xc19d93fb\n      eq\n      tag_5\n      jumpi\n    tag_1:\n      0x0\n      dup1\n      revert\n        /* \"Solidity_Data_Types/State.sol\":641:728  function changeState(State _state) public onlyOwner {\r... */\n    tag_2:\n      callvalue\n        /* \"--CODEGEN--\":8:17   */\n      dup1\n        /* \"--CODEGEN--\":5:7   */\n      iszero\n      tag_6\n      jumpi\n        /* \"--CODEGEN--\":30:31   */\n      0x0\n        /* \"--CODEGEN--\":27:28   */\n      dup1\n        /* \"--CODEGEN--\":20:32   */\n      revert\n        /* \"--CODEGEN--\":5:7   */\n    tag_6:\n        /* \"Solidity_Data_Types/State.sol\":641:728  function changeState(State _state) public onlyOwner {\r... */\n      pop\n      tag_7\n      0x4\n      dup1\n      calldatasize\n      sub\n      dup2\n      add\n      swap1\n      dup1\n      dup1\n      calldataload\n      0xff\n      and\n      swap1\n      0x20\n      add\n      swap1\n      swap3\n      swap2\n      swap1\n      pop\n      pop\n      pop\n      jump(tag_8)\n    tag_7:\n      stop\n        /* \"Solidity_Data_Types/State.sol\":736:886  function increments() public canExecute {\r... */\n    tag_3:\n      callvalue\n        /* \"--CODEGEN--\":8:17   */\n      dup1\n        /* \"--CODEGEN--\":5:7   */\n      iszero\n      tag_9\n      jumpi\n        /* \"--CODEGEN--\":30:31   */\n      0x0\n        /* \"--CODEGEN--\":27:28   */\n      dup1\n        /* \"--CODEGEN--\":20:32   */\n      revert\n        /* \"--CODEGEN--\":5:7   */\n    tag_9:\n        /* \"Solidity_Data_Types/State.sol\":736:886  function increments() public canExecute {\r... */\n      pop\n      tag_10\n      jump(tag_11)\n    tag_10:\n      stop\n        /* \"Solidity_Data_Types/State.sol\":236:258  Counter public counter */\n    tag_4:\n      callvalue\n        /* \"--CODEGEN--\":8:17   */\n      dup1\n        /* \"--CODEGEN--\":5:7   */\n      iszero\n      tag_12\n      jumpi\n        /* \"--CODEGEN--\":30:31   */\n      0x0\n        /* \"--CODEGEN--\":27:28   */\n      dup1\n        /* \"--CODEGEN--\":20:32   */\n      revert\n        /* \"--CODEGEN--\":5:7   */\n    tag_12:\n        /* \"Solidity_Data_Types/State.sol\":236:258  Counter public counter */\n      pop\n      tag_13\n      jump(tag_14)\n    tag_13:\n      mload(0x40)\n      dup1\n      dup5\n      dup2\n      mstore\n      0x20\n      add\n      dup4\n      dup2\n      mstore\n      0x20\n      add\n      dup3\n      0xffffffffffffffffffffffffffffffffffffffff\n      and\n      0xffffffffffffffffffffffffffffffffffffffff\n      and\n      dup2\n      mstore\n      0x20\n      add\n      swap4\n      pop\n      pop\n      pop\n      pop\n      mload(0x40)\n      dup1\n      swap2\n      sub\n      swap1\n      return\n        /* \"Solidity_Data_Types/State.sol\":265:283  State public state */\n    tag_5:\n      callvalue\n        /* \"--CODEGEN--\":8:17   */\n      dup1\n        /* \"--CODEGEN--\":5:7   */\n      iszero\n      tag_15\n      jumpi\n        /* \"--CODEGEN--\":30:31   */\n      0x0\n        /* \"--CODEGEN--\":27:28   */\n      dup1\n        /* \"--CODEGEN--\":20:32   */\n      revert\n        /* \"--CODEGEN--\":5:7   */\n    tag_15:\n        /* \"Solidity_Data_Types/State.sol\":265:283  State public state */\n      pop\n      tag_16\n      jump(tag_17)\n    tag_16:\n      mload(0x40)\n      dup1\n      dup3\n      0x2\n      dup2\n      gt\n      iszero\n      tag_18\n      jumpi\n      invalid\n    tag_18:\n      0xff\n      and\n      dup2\n      mstore\n      0x20\n      add\n      swap2\n      pop\n      pop\n      mload(0x40)\n      dup1\n      swap2\n      sub\n      swap1\n      return\n        /* \"Solidity_Data_Types/State.sol\":641:728  function changeState(State _state) public onlyOwner {\r... */\n    tag_8:\n        /* \"Solidity_Data_Types/State.sol\":422:427  owner */\n      0x0\n      dup1\n      swap1\n      sload\n      swap1\n      0x100\n      exp\n      swap1\n      div\n      0xffffffffffffffffffffffffffffffffffffffff\n      and\n        /* \"Solidity_Data_Types/State.sol\":408:427  msg.sender == owner */\n      0xffffffffffffffffffffffffffffffffffffffff\n      and\n        /* \"Solidity_Data_Types/State.sol\":408:418  msg.sender */\n      caller\n        /* \"Solidity_Data_Types/State.sol\":408:427  msg.sender == owner */\n      0xffffffffffffffffffffffffffffffffffffffff\n      and\n      eq\n        /* \"Solidity_Data_Types/State.sol\":400:428  require(msg.sender == owner) */\n      iszero\n      iszero\n      tag_20\n      jumpi\n      0x0\n      dup1\n      revert\n    tag_20:\n        /* \"Solidity_Data_Types/State.sol\":714:720  _state */\n      dup1\n        /* \"Solidity_Data_Types/State.sol\":706:711  state */\n      0x4\n      0x0\n        /* \"Solidity_Data_Types/State.sol\":706:720  state = _state */\n      0x100\n      exp\n      dup2\n      sload\n      dup2\n      0xff\n      mul\n      not\n      and\n      swap1\n      dup4\n      0x2\n      dup2\n      gt\n      iszero\n      tag_22\n      jumpi\n      invalid\n    tag_22:\n      mul\n      or\n      swap1\n      sstore\n      pop\n        /* \"Solidity_Data_Types/State.sol\":641:728  function changeState(State _state) public onlyOwner {\r... */\n      pop\n      jump\t// out\n        /* \"Solidity_Data_Types/State.sol\":736:886  function increments() public canExecute {\r... */\n    tag_11:\n        /* \"Solidity_Data_Types/State.sol\":504:516  State.Locked */\n      0x0\n        /* \"Solidity_Data_Types/State.sol\":495:516  state != State.Locked */\n      0x2\n      dup2\n      gt\n      iszero\n      tag_24\n      jumpi\n      invalid\n    tag_24:\n        /* \"Solidity_Data_Types/State.sol\":495:500  state */\n      0x4\n      0x0\n      swap1\n      sload\n      swap1\n      0x100\n      exp\n      swap1\n      div\n      0xff\n      and\n        /* \"Solidity_Data_Types/State.sol\":495:516  state != State.Locked */\n      0x2\n      dup2\n      gt\n      iszero\n      tag_25\n      jumpi\n      invalid\n    tag_25:\n      eq\n      iszero\n        /* \"Solidity_Data_Types/State.sol\":487:517  require(state != State.Locked) */\n      iszero\n      iszero\n      tag_26\n      jumpi\n      0x0\n      dup1\n      revert\n    tag_26:\n        /* \"Solidity_Data_Types/State.sol\":543:557  State.Unlocked */\n      0x1\n        /* \"Solidity_Data_Types/State.sol\":534:557  state == State.Unlocked */\n      0x2\n      dup2\n      gt\n      iszero\n      tag_27\n      jumpi\n      invalid\n    tag_27:\n        /* \"Solidity_Data_Types/State.sol\":534:539  state */\n      0x4\n      0x0\n      swap1\n      sload\n      swap1\n      0x100\n      exp\n      swap1\n      div\n      0xff\n      and\n        /* \"Solidity_Data_Types/State.sol\":534:557  state == State.Unlocked */\n      0x2\n      dup2\n      gt\n      iszero\n      tag_28\n      jumpi\n      invalid\n    tag_28:\n      eq\n        /* \"Solidity_Data_Types/State.sol\":533:616  (state == State.Unlocked) || ((state == State.Restricted) && (msg.sender == owner)) */\n      dup1\n      tag_29\n      jumpi\n      pop\n        /* \"Solidity_Data_Types/State.sol\":573:589  State.Restricted */\n      0x2\n        /* \"Solidity_Data_Types/State.sol\":564:589  state == State.Restricted */\n      dup1\n      dup2\n      gt\n      iszero\n      tag_30\n      jumpi\n      invalid\n    tag_30:\n        /* \"Solidity_Data_Types/State.sol\":564:569  state */\n      0x4\n      0x0\n      swap1\n      sload\n      swap1\n      0x100\n      exp\n      swap1\n      div\n      0xff\n      and\n        /* \"Solidity_Data_Types/State.sol\":564:589  state == State.Restricted */\n      0x2\n      dup2\n      gt\n      iszero\n      tag_31\n      jumpi\n      invalid\n    tag_31:\n      eq\n        /* \"Solidity_Data_Types/State.sol\":563:615  (state == State.Restricted) && (msg.sender == owner) */\n      dup1\n      iszero\n      tag_32\n      jumpi\n      pop\n        /* \"Solidity_Data_Types/State.sol\":609:614  owner */\n      0x0\n      dup1\n      swap1\n      sload\n      swap1\n      0x100\n      exp\n      swap1\n      div\n      0xffffffffffffffffffffffffffffffffffffffff\n      and\n        /* \"Solidity_Data_Types/State.sol\":595:614  msg.sender == owner */\n      0xffffffffffffffffffffffffffffffffffffffff\n      and\n        /* \"Solidity_Data_Types/State.sol\":595:605  msg.sender */\n      caller\n        /* \"Solidity_Data_Types/State.sol\":595:614  msg.sender == owner */\n      0xffffffffffffffffffffffffffffffffffffffff\n      and\n      eq\n        /* \"Solidity_Data_Types/State.sol\":563:615  (state == State.Restricted) && (msg.sender == owner) */\n    tag_32:\n        /* \"Solidity_Data_Types/State.sol\":533:616  (state == State.Unlocked) || ((state == State.Restricted) && (msg.sender == owner)) */\n    tag_29:\n        /* \"Solidity_Data_Types/State.sol\":524:617  require( (state == State.Unlocked) || ((state == State.Restricted) && (msg.sender == owner))) */\n      iszero\n      iszero\n      tag_33\n      jumpi\n      0x0\n      dup1\n      revert\n    tag_33:\n        /* \"Solidity_Data_Types/State.sol\":789:796  counter */\n      0x1\n        /* \"Solidity_Data_Types/State.sol\":789:804  counter.counter */\n      0x0\n      add\n      0x0\n        /* \"Solidity_Data_Types/State.sol\":789:806  counter.counter++ */\n      dup2\n      sload\n      dup1\n      swap3\n      swap2\n      swap1\n      0x1\n      add\n      swap2\n      swap1\n      pop\n      sstore\n      pop\n        /* \"Solidity_Data_Types/State.sol\":837:840  now */\n      timestamp\n        /* \"Solidity_Data_Types/State.sol\":817:824  counter */\n      0x1\n        /* \"Solidity_Data_Types/State.sol\":817:834  counter.timestamp */\n      dup1\n      add\n        /* \"Solidity_Data_Types/State.sol\":817:840  counter.timestamp = now */\n      dup2\n      swap1\n      sstore\n      pop\n        /* \"Solidity_Data_Types/State.sol\":866:876  msg.sender */\n      caller\n        /* \"Solidity_Data_Types/State.sol\":851:858  counter */\n      0x1\n        /* \"Solidity_Data_Types/State.sol\":851:863  counter.addr */\n      0x2\n      add\n      0x0\n        /* \"Solidity_Data_Types/State.sol\":851:876  counter.addr = msg.sender */\n      0x100\n      exp\n      dup2\n      sload\n      dup2\n      0xffffffffffffffffffffffffffffffffffffffff\n      mul\n      not\n      and\n      swap1\n      dup4\n      0xffffffffffffffffffffffffffffffffffffffff\n      and\n      mul\n      or\n      swap1\n      sstore\n      pop\n        /* \"Solidity_Data_Types/State.sol\":736:886  function increments() public canExecute {\r... */\n      jump\t// out\n        /* \"Solidity_Data_Types/State.sol\":236:258  Counter public counter */\n    tag_14:\n      0x1\n      dup1\n      0x0\n      add\n      sload\n      swap1\n      dup1\n      0x1\n      add\n      sload\n      swap1\n      dup1\n      0x2\n      add\n      0x0\n      swap1\n      sload\n      swap1\n      0x100\n      exp\n      swap1\n      div\n      0xffffffffffffffffffffffffffffffffffffffff\n      and\n      swap1\n      pop\n      dup4\n      jump\t// out\n        /* \"Solidity_Data_Types/State.sol\":265:283  State public state */\n    tag_17:\n      0x4\n      0x0\n      swap1\n      sload\n      swap1\n      0x100\n      exp\n      swap1\n      div\n      0xff\n      and\n      dup2\n      jump\t// out\n\n    auxdata: 0xa165627a7a72305820ecef04d023e964fb4df014c3e58f298b7877b20937fa78b520544f7ded1daaed0029\n}\n",
				"bytecode": {
					"linkReferences": {},
					"object": "608060405234801561001057600080fd5b50336000806101000a81548173ffffffffffffffffffffffffffffffffffffffff021916908373ffffffffffffffffffffffffffffffffffffffff160217905550610398806100606000396000f300608060405260043610610062576000357c0100000000000000000000000000000000000000000000000000000000900463ffffffff168063268f11531461006757806356aa2dc51461009757806361bc221a146100ae578063c19d93fb14610113575b600080fd5b34801561007357600080fd5b50610095600480360381019080803560ff16906020019092919050505061014c565b005b3480156100a357600080fd5b506100ac6101cd565b005b3480156100ba57600080fd5b506100c3610321565b604051808481526020018381526020018273ffffffffffffffffffffffffffffffffffffffff1673ffffffffffffffffffffffffffffffffffffffff168152602001935050505060405180910390f35b34801561011f57600080fd5b50610128610359565b6040518082600281111561013857fe5b60ff16815260200191505060405180910390f35b6000809054906101000a900473ffffffffffffffffffffffffffffffffffffffff1673ffffffffffffffffffffffffffffffffffffffff163373ffffffffffffffffffffffffffffffffffffffff161415156101a757600080fd5b80600460006101000a81548160ff021916908360028111156101c557fe5b021790555050565b600060028111156101da57fe5b600460009054906101000a900460ff1660028111156101f557fe5b1415151561020257600080fd5b6001600281111561020f57fe5b600460009054906101000a900460ff16600281111561022a57fe5b14806102b2575060028081111561023d57fe5b600460009054906101000a900460ff16600281111561025857fe5b1480156102b157506000809054906101000a900473ffffffffffffffffffffffffffffffffffffffff1673ffffffffffffffffffffffffffffffffffffffff163373ffffffffffffffffffffffffffffffffffffffff16145b5b15156102bd57600080fd5b60016000016000815480929190600101919050555042600180018190555033600160020160006101000a81548173ffffffffffffffffffffffffffffffffffffffff021916908373ffffffffffffffffffffffffffffffffffffffff160217905550565b60018060000154908060010154908060020160009054906101000a900473ffffffffffffffffffffffffffffffffffffffff16905083565b600460009054906101000a900460ff16815600a165627a7a72305820ecef04d023e964fb4df014c3e58f298b7877b20937fa78b520544f7ded1daaed0029",
					"opcodes": "PUSH1 0x80 PUSH1 0x40 MSTORE CALLVALUE DUP1 ISZERO PUSH2 0x10 JUMPI PUSH1 0x0 DUP1 REVERT JUMPDEST POP CALLER PUSH1 0x0 DUP1 PUSH2 0x100 EXP DUP2 SLOAD DUP2 PUSH20 0xFFFFFFFFFFFFFFFFFFFFFFFFFFFFFFFFFFFFFFFF MUL NOT AND SWAP1 DUP4 PUSH20 0xFFFFFFFFFFFFFFFFFFFFFFFFFFFFFFFFFFFFFFFF AND MUL OR SWAP1 SSTORE POP PUSH2 0x398 DUP1 PUSH2 0x60 PUSH1 0x0 CODECOPY PUSH1 0x0 RETURN STOP PUSH1 0x80 PUSH1 0x40 MSTORE PUSH1 0x4 CALLDATASIZE LT PUSH2 0x62 JUMPI PUSH1 0x0 CALLDATALOAD PUSH29 0x100000000000000000000000000000000000000000000000000000000 SWAP1 DIV PUSH4 0xFFFFFFFF AND DUP1 PUSH4 0x268F1153 EQ PUSH2 0x67 JUMPI DUP1 PUSH4 0x56AA2DC5 EQ PUSH2 0x97 JUMPI DUP1 PUSH4 0x61BC221A EQ PUSH2 0xAE JUMPI DUP1 PUSH4 0xC19D93FB EQ PUSH2 0x113 JUMPI JUMPDEST PUSH1 0x0 DUP1 REVERT JUMPDEST CALLVALUE DUP1 ISZERO PUSH2 0x73 JUMPI PUSH1 0x0 DUP1 REVERT JUMPDEST POP PUSH2 0x95 PUSH1 0x4 DUP1 CALLDATASIZE SUB DUP2 ADD SWAP1 DUP1 DUP1 CALLDATALOAD PUSH1 0xFF AND SWAP1 PUSH1 0x20 ADD SWAP1 SWAP3 SWAP2 SWAP1 POP POP POP PUSH2 0x14C JUMP JUMPDEST STOP JUMPDEST CALLVALUE DUP1 ISZERO PUSH2 0xA3 JUMPI PUSH1 0x0 DUP1 REVERT JUMPDEST POP PUSH2 0xAC PUSH2 0x1CD JUMP JUMPDEST STOP JUMPDEST CALLVALUE DUP1 ISZERO PUSH2 0xBA JUMPI PUSH1 0x0 DUP1 REVERT JUMPDEST POP PUSH2 0xC3 PUSH2 0x321 JUMP JUMPDEST PUSH1 0x40 MLOAD DUP1 DUP5 DUP2 MSTORE PUSH1 0x20 ADD DUP4 DUP2 MSTORE PUSH1 0x20 ADD DUP3 PUSH20 0xFFFFFFFFFFFFFFFFFFFFFFFFFFFFFFFFFFFFFFFF AND PUSH20 0xFFFFFFFFFFFFFFFFFFFFFFFFFFFFFFFFFFFFFFFF AND DUP2 MSTORE PUSH1 0x20 ADD SWAP4 POP POP POP POP PUSH1 0x40 MLOAD DUP1 SWAP2 SUB SWAP1 RETURN JUMPDEST CALLVALUE DUP1 ISZERO PUSH2 0x11F JUMPI PUSH1 0x0 DUP1 REVERT JUMPDEST POP PUSH2 0x128 PUSH2 0x359 JUMP JUMPDEST PUSH1 0x40 MLOAD DUP1 DUP3 PUSH1 0x2 DUP2 GT ISZERO PUSH2 0x138 JUMPI INVALID JUMPDEST PUSH1 0xFF AND DUP2 MSTORE PUSH1 0x20 ADD SWAP2 POP POP PUSH1 0x40 MLOAD DUP1 SWAP2 SUB SWAP1 RETURN JUMPDEST PUSH1 0x0 DUP1 SWAP1 SLOAD SWAP1 PUSH2 0x100 EXP SWAP1 DIV PUSH20 0xFFFFFFFFFFFFFFFFFFFFFFFFFFFFFFFFFFFFFFFF AND PUSH20 0xFFFFFFFFFFFFFFFFFFFFFFFFFFFFFFFFFFFFFFFF AND CALLER PUSH20 0xFFFFFFFFFFFFFFFFFFFFFFFFFFFFFFFFFFFFFFFF AND EQ ISZERO ISZERO PUSH2 0x1A7 JUMPI PUSH1 0x0 DUP1 REVERT JUMPDEST DUP1 PUSH1 0x4 PUSH1 0x0 PUSH2 0x100 EXP DUP2 SLOAD DUP2 PUSH1 0xFF MUL NOT AND SWAP1 DUP4 PUSH1 0x2 DUP2 GT ISZERO PUSH2 0x1C5 JUMPI INVALID JUMPDEST MUL OR SWAP1 SSTORE POP POP JUMP JUMPDEST PUSH1 0x0 PUSH1 0x2 DUP2 GT ISZERO PUSH2 0x1DA JUMPI INVALID JUMPDEST PUSH1 0x4 PUSH1 0x0 SWAP1 SLOAD SWAP1 PUSH2 0x100 EXP SWAP1 DIV PUSH1 0xFF AND PUSH1 0x2 DUP2 GT ISZERO PUSH2 0x1F5 JUMPI INVALID JUMPDEST EQ ISZERO ISZERO ISZERO PUSH2 0x202 JUMPI PUSH1 0x0 DUP1 REVERT JUMPDEST PUSH1 0x1 PUSH1 0x2 DUP2 GT ISZERO PUSH2 0x20F JUMPI INVALID JUMPDEST PUSH1 0x4 PUSH1 0x0 SWAP1 SLOAD SWAP1 PUSH2 0x100 EXP SWAP1 DIV PUSH1 0xFF AND PUSH1 0x2 DUP2 GT ISZERO PUSH2 0x22A JUMPI INVALID JUMPDEST EQ DUP1 PUSH2 0x2B2 JUMPI POP PUSH1 0x2 DUP1 DUP2 GT ISZERO PUSH2 0x23D JUMPI INVALID JUMPDEST PUSH1 0x4 PUSH1 0x0 SWAP1 SLOAD SWAP1 PUSH2 0x100 EXP SWAP1 DIV PUSH1 0xFF AND PUSH1 0x2 DUP2 GT ISZERO PUSH2 0x258 JUMPI INVALID JUMPDEST EQ DUP1 ISZERO PUSH2 0x2B1 JUMPI POP PUSH1 0x0 DUP1 SWAP1 SLOAD SWAP1 PUSH2 0x100 EXP SWAP1 DIV PUSH20 0xFFFFFFFFFFFFFFFFFFFFFFFFFFFFFFFFFFFFFFFF AND PUSH20 0xFFFFFFFFFFFFFFFFFFFFFFFFFFFFFFFFFFFFFFFF AND CALLER PUSH20 0xFFFFFFFFFFFFFFFFFFFFFFFFFFFFFFFFFFFFFFFF AND EQ JUMPDEST JUMPDEST ISZERO ISZERO PUSH2 0x2BD JUMPI PUSH1 0x0 DUP1 REVERT JUMPDEST PUSH1 0x1 PUSH1 0x0 ADD PUSH1 0x0 DUP2 SLOAD DUP1 SWAP3 SWAP2 SWAP1 PUSH1 0x1 ADD SWAP2 SWAP1 POP SSTORE POP TIMESTAMP PUSH1 0x1 DUP1 ADD DUP2 SWAP1 SSTORE POP CALLER PUSH1 0x1 PUSH1 0x2 ADD PUSH1 0x0 PUSH2 0x100 EXP DUP2 SLOAD DUP2 PUSH20 0xFFFFFFFFFFFFFFFFFFFFFFFFFFFFFFFFFFFFFFFF MUL NOT AND SWAP1 DUP4 PUSH20 0xFFFFFFFFFFFFFFFFFFFFFFFFFFFFFFFFFFFFFFFF AND MUL OR SWAP1 SSTORE POP JUMP JUMPDEST PUSH1 0x1 DUP1 PUSH1 0x0 ADD SLOAD SWAP1 DUP1 PUSH1 0x1 ADD SLOAD SWAP1 DUP1 PUSH1 0x2 ADD PUSH1 0x0 SWAP1 SLOAD SWAP1 PUSH2 0x100 EXP SWAP1 DIV PUSH20 0xFFFFFFFFFFFFFFFFFFFFFFFFFFFFFFFFFFFFFFFF AND SWAP1 POP DUP4 JUMP JUMPDEST PUSH1 0x4 PUSH1 0x0 SWAP1 SLOAD SWAP1 PUSH2 0x100 EXP SWAP1 DIV PUSH1 0xFF AND DUP2 JUMP STOP LOG1 PUSH6 0x627A7A723058 KECCAK256 0xec 0xef DIV 0xd0 0x23 0xe9 PUSH5 0xFB4DF014C3 0xe5 DUP16 0x29 DUP12 PUSH25 0x77B20937FA78B520544F7DED1DAAED00290000000000000000 "
				},
				"gasEstimates": {
					"creation": {
						"codeDepositCost": "184000",
						"executionCost": "20492",
						"totalCost": "204492"
					},
					"external": {
						"changeState(uint8)": "20760",
						"counter()": "964",
						"increments()": "61920",
						"state()": "528"
					}
				},
				"methodIdentifiers": {
					"changeState(uint8)": "268f1153",
					"counter()": "61bc221a",
					"increments()": "56aa2dc5",
					"state()": "c19d93fb"
				}
			},
			"userdoc": {
				"methods": {}
			}
		}
	}
}