{
	"Solidity_Data_Types/ArrayTest.sol": {
		"ArrayTest": {
			"abi": [
				{
					"constant": true,
					"inputs": [
						{
							"name": "",
							"type": "uint256"
						}
					],
					"name": "manyInts",
					"outputs": [
						{
							"name": "",
							"type": "uint256"
						}
					],
					"payable": false,
					"stateMutability": "view",
					"type": "function"
				},
				{
					"constant": true,
					"inputs": [
						{
							"name": "",
							"type": "uint256"
						}
					],
					"name": "threeInts",
					"outputs": [
						{
							"name": "",
							"type": "uint256"
						}
					],
					"payable": false,
					"stateMutability": "view",
					"type": "function"
				},
				{
					"constant": false,
					"inputs": [
						{
							"name": "newInt",
							"type": "uint256"
						}
					],
					"name": "push",
					"outputs": [],
					"payable": false,
					"stateMutability": "nonpayable",
					"type": "function"
				},
				{
					"constant": true,
					"inputs": [],
					"name": "getThreeInts",
					"outputs": [
						{
							"name": "",
							"type": "uint256[3]"
						}
					],
					"payable": false,
					"stateMutability": "view",
					"type": "function"
				},
				{
					"constant": false,
					"inputs": [
						{
							"name": "index",
							"type": "uint8"
						}
					],
					"name": "increment",
					"outputs": [],
					"payable": false,
					"stateMutability": "nonpayable",
					"type": "function"
				},
				{
					"constant": true,
					"inputs": [],
					"name": "getManyInts",
					"outputs": [
						{
							"name": "",
							"type": "uint256[]"
						}
					],
					"payable": false,
					"stateMutability": "view",
					"type": "function"
				}
			],
			"devdoc": {
				"methods": {}
			},
			"evm": {
				"assembly": "    /* \"Solidity_Data_Types/ArrayTest.sol\":30:753  contract ArrayTest{\r... */\n  mstore(0x40, 0x80)\n    /* \"Solidity_Data_Types/ArrayTest.sol\":87:121  uint[3] public threeInts = [1,2,3] */\n  0x60\n  mload(0x40)\n  swap1\n  dup2\n  add\n  0x40\n  mstore\n  dup1\n    /* \"Solidity_Data_Types/ArrayTest.sol\":115:116  1 */\n  0x1\n    /* \"Solidity_Data_Types/ArrayTest.sol\":87:121  uint[3] public threeInts = [1,2,3] */\n  0xff\n  and\n  dup2\n  mstore\n  0x20\n  add\n    /* \"Solidity_Data_Types/ArrayTest.sol\":117:118  2 */\n  0x2\n    /* \"Solidity_Data_Types/ArrayTest.sol\":87:121  uint[3] public threeInts = [1,2,3] */\n  0xff\n  and\n  dup2\n  mstore\n  0x20\n  add\n    /* \"Solidity_Data_Types/ArrayTest.sol\":119:120  3 */\n  0x3\n    /* \"Solidity_Data_Types/ArrayTest.sol\":87:121  uint[3] public threeInts = [1,2,3] */\n  0xff\n  and\n  dup2\n  mstore\n  pop\n  0x0\n  swap1\n  0x3\n  tag_1\n  swap3\n  swap2\n  swap1\n  jump\t// in(tag_2)\ntag_1:\n  pop\n    /* \"Solidity_Data_Types/ArrayTest.sol\":30:753  contract ArrayTest{\r... */\n  callvalue\n    /* \"--CODEGEN--\":8:17   */\n  dup1\n    /* \"--CODEGEN--\":5:7   */\n  iszero\n  tag_3\n  jumpi\n    /* \"--CODEGEN--\":30:31   */\n  0x0\n    /* \"--CODEGEN--\":27:28   */\n  dup1\n    /* \"--CODEGEN--\":20:32   */\n  revert\n    /* \"--CODEGEN--\":5:7   */\ntag_3:\n    /* \"Solidity_Data_Types/ArrayTest.sol\":30:753  contract ArrayTest{\r... */\n  pop\n  jump(tag_4)\ntag_2:\n  dup3\n  0x3\n  dup2\n  add\n  swap3\n  dup3\n  iszero\n  tag_5\n  jumpi\n  swap2\n  0x20\n  mul\n  dup3\n  add\ntag_6:\n  dup3\n  dup2\n  gt\n  iszero\n  tag_7\n  jumpi\n  dup3\n  mload\n  dup3\n  swap1\n  0xff\n  and\n  swap1\n  sstore\n  swap2\n  0x20\n  add\n  swap2\n  swap1\n  0x1\n  add\n  swap1\n  jump(tag_6)\ntag_7:\ntag_5:\n  pop\n  swap1\n  pop\n  tag_8\n  swap2\n  swap1\n  jump\t// in(tag_9)\ntag_8:\n  pop\n  swap1\n  jump\t// out\ntag_9:\n  tag_10\n  swap2\n  swap1\ntag_11:\n  dup1\n  dup3\n  gt\n  iszero\n  tag_12\n  jumpi\n  0x0\n  dup2\n  0x0\n  swap1\n  sstore\n  pop\n  0x1\n  add\n  jump(tag_11)\ntag_12:\n  pop\n  swap1\n  jump\ntag_10:\n  swap1\n  jump\t// out\ntag_4:\n  dataSize(sub_0)\n  dup1\n  dataOffset(sub_0)\n  0x0\n  codecopy\n  0x0\n  return\nstop\n\nsub_0: assembly {\n        /* \"Solidity_Data_Types/ArrayTest.sol\":30:753  contract ArrayTest{\r... */\n      mstore(0x40, 0x80)\n      jumpi(tag_1, lt(calldatasize, 0x4))\n      calldataload(0x0)\n      0x100000000000000000000000000000000000000000000000000000000\n      swap1\n      div\n      0xffffffff\n      and\n      dup1\n      0x542ee37d\n      eq\n      tag_2\n      jumpi\n      dup1\n      0x7e82742f\n      eq\n      tag_3\n      jumpi\n      dup1\n      0x959ac484\n      eq\n      tag_4\n      jumpi\n      dup1\n      0xcc1a9d01\n      eq\n      tag_5\n      jumpi\n      dup1\n      0xd6b46330\n      eq\n      tag_6\n      jumpi\n      dup1\n      0xf4083094\n      eq\n      tag_7\n      jumpi\n    tag_1:\n      0x0\n      dup1\n      revert\n        /* \"Solidity_Data_Types/ArrayTest.sol\":160:182  uint[] public manyInts */\n    tag_2:\n      callvalue\n        /* \"--CODEGEN--\":8:17   */\n      dup1\n        /* \"--CODEGEN--\":5:7   */\n      iszero\n      tag_8\n      jumpi\n        /* \"--CODEGEN--\":30:31   */\n      0x0\n        /* \"--CODEGEN--\":27:28   */\n      dup1\n        /* \"--CODEGEN--\":20:32   */\n      revert\n        /* \"--CODEGEN--\":5:7   */\n    tag_8:\n        /* \"Solidity_Data_Types/ArrayTest.sol\":160:182  uint[] public manyInts */\n      pop\n      tag_9\n      0x4\n      dup1\n      calldatasize\n      sub\n      dup2\n      add\n      swap1\n      dup1\n      dup1\n      calldataload\n      swap1\n      0x20\n      add\n      swap1\n      swap3\n      swap2\n      swap1\n      pop\n      pop\n      pop\n      jump(tag_10)\n    tag_9:\n      mload(0x40)\n      dup1\n      dup3\n      dup2\n      mstore\n      0x20\n      add\n      swap2\n      pop\n      pop\n      mload(0x40)\n      dup1\n      swap2\n      sub\n      swap1\n      return\n        /* \"Solidity_Data_Types/ArrayTest.sol\":87:121  uint[3] public threeInts = [1,2,3] */\n    tag_3:\n      callvalue\n        /* \"--CODEGEN--\":8:17   */\n      dup1\n        /* \"--CODEGEN--\":5:7   */\n      iszero\n      tag_11\n      jumpi\n        /* \"--CODEGEN--\":30:31   */\n      0x0\n        /* \"--CODEGEN--\":27:28   */\n      dup1\n        /* \"--CODEGEN--\":20:32   */\n      revert\n        /* \"--CODEGEN--\":5:7   */\n    tag_11:\n        /* \"Solidity_Data_Types/ArrayTest.sol\":87:121  uint[3] public threeInts = [1,2,3] */\n      pop\n      tag_12\n      0x4\n      dup1\n      calldatasize\n      sub\n      dup2\n      add\n      swap1\n      dup1\n      dup1\n      calldataload\n      swap1\n      0x20\n      add\n      swap1\n      swap3\n      swap2\n      swap1\n      pop\n      pop\n      pop\n      jump(tag_13)\n    tag_12:\n      mload(0x40)\n      dup1\n      dup3\n      dup2\n      mstore\n      0x20\n      add\n      swap2\n      pop\n      pop\n      mload(0x40)\n      dup1\n      swap2\n      sub\n      swap1\n      return\n        /* \"Solidity_Data_Types/ArrayTest.sol\":290:468  function push(uint newInt) public {\r... */\n    tag_4:\n      callvalue\n        /* \"--CODEGEN--\":8:17   */\n      dup1\n        /* \"--CODEGEN--\":5:7   */\n      iszero\n      tag_14\n      jumpi\n        /* \"--CODEGEN--\":30:31   */\n      0x0\n        /* \"--CODEGEN--\":27:28   */\n      dup1\n        /* \"--CODEGEN--\":20:32   */\n      revert\n        /* \"--CODEGEN--\":5:7   */\n    tag_14:\n        /* \"Solidity_Data_Types/ArrayTest.sol\":290:468  function push(uint newInt) public {\r... */\n      pop\n      tag_15\n      0x4\n      dup1\n      calldatasize\n      sub\n      dup2\n      add\n      swap1\n      dup1\n      dup1\n      calldataload\n      swap1\n      0x20\n      add\n      swap1\n      swap3\n      swap2\n      swap1\n      pop\n      pop\n      pop\n      jump(tag_16)\n    tag_15:\n      stop\n        /* \"Solidity_Data_Types/ArrayTest.sol\":650:750  function getThreeInts() public view returns (uint[3]){\r... */\n    tag_5:\n      callvalue\n        /* \"--CODEGEN--\":8:17   */\n      dup1\n        /* \"--CODEGEN--\":5:7   */\n      iszero\n      tag_17\n      jumpi\n        /* \"--CODEGEN--\":30:31   */\n      0x0\n        /* \"--CODEGEN--\":27:28   */\n      dup1\n        /* \"--CODEGEN--\":20:32   */\n      revert\n        /* \"--CODEGEN--\":5:7   */\n    tag_17:\n        /* \"Solidity_Data_Types/ArrayTest.sol\":650:750  function getThreeInts() public view returns (uint[3]){\r... */\n      pop\n      tag_18\n      jump(tag_19)\n    tag_18:\n      mload(0x40)\n      dup1\n      dup3\n      mul(0x20, 0x3)\n      dup1\n      dup4\n      dup4\n        /* \"--CODEGEN--\":23:24   */\n      0x0\n        /* \"--CODEGEN--\":8:108   */\n    tag_20:\n        /* \"--CODEGEN--\":33:36   */\n      dup4\n        /* \"--CODEGEN--\":30:31   */\n      dup2\n        /* \"--CODEGEN--\":27:37   */\n      lt\n        /* \"--CODEGEN--\":8:108   */\n      iszero\n      tag_21\n      jumpi\n        /* \"--CODEGEN--\":99:100   */\n      dup1\n        /* \"--CODEGEN--\":94:97   */\n      dup3\n        /* \"--CODEGEN--\":90:101   */\n      add\n        /* \"--CODEGEN--\":84:102   */\n      mload\n        /* \"--CODEGEN--\":80:81   */\n      dup2\n        /* \"--CODEGEN--\":75:78   */\n      dup5\n        /* \"--CODEGEN--\":71:82   */\n      add\n        /* \"--CODEGEN--\":64:103   */\n      mstore\n        /* \"--CODEGEN--\":52:54   */\n      0x20\n        /* \"--CODEGEN--\":49:50   */\n      dup2\n        /* \"--CODEGEN--\":45:55   */\n      add\n        /* \"--CODEGEN--\":40:55   */\n      swap1\n      pop\n        /* \"--CODEGEN--\":8:108   */\n      jump(tag_20)\n    tag_21:\n        /* \"--CODEGEN--\":12:26   */\n      pop\n        /* \"Solidity_Data_Types/ArrayTest.sol\":650:750  function getThreeInts() public view returns (uint[3]){\r... */\n      pop\n      pop\n      pop\n      swap1\n      pop\n      add\n      swap2\n      pop\n      pop\n      mload(0x40)\n      dup1\n      swap2\n      sub\n      swap1\n      return\n        /* \"Solidity_Data_Types/ArrayTest.sol\":195:278  function increment(uint8 index) public {\r... */\n    tag_6:\n      callvalue\n        /* \"--CODEGEN--\":8:17   */\n      dup1\n        /* \"--CODEGEN--\":5:7   */\n      iszero\n      tag_23\n      jumpi\n        /* \"--CODEGEN--\":30:31   */\n      0x0\n        /* \"--CODEGEN--\":27:28   */\n      dup1\n        /* \"--CODEGEN--\":20:32   */\n      revert\n        /* \"--CODEGEN--\":5:7   */\n    tag_23:\n        /* \"Solidity_Data_Types/ArrayTest.sol\":195:278  function increment(uint8 index) public {\r... */\n      pop\n      tag_24\n      0x4\n      dup1\n      calldatasize\n      sub\n      dup2\n      add\n      swap1\n      dup1\n      dup1\n      calldataload\n      0xff\n      and\n      swap1\n      0x20\n      add\n      swap1\n      swap3\n      swap2\n      swap1\n      pop\n      pop\n      pop\n      jump(tag_25)\n    tag_24:\n      stop\n        /* \"Solidity_Data_Types/ArrayTest.sol\":550:638  function getManyInts() public view returns(uint[]){\r... */\n    tag_7:\n      callvalue\n        /* \"--CODEGEN--\":8:17   */\n      dup1\n        /* \"--CODEGEN--\":5:7   */\n      iszero\n      tag_26\n      jumpi\n        /* \"--CODEGEN--\":30:31   */\n      0x0\n        /* \"--CODEGEN--\":27:28   */\n      dup1\n        /* \"--CODEGEN--\":20:32   */\n      revert\n        /* \"--CODEGEN--\":5:7   */\n    tag_26:\n        /* \"Solidity_Data_Types/ArrayTest.sol\":550:638  function getManyInts() public view returns(uint[]){\r... */\n      pop\n      tag_27\n      jump(tag_28)\n    tag_27:\n      mload(0x40)\n      dup1\n      dup1\n      0x20\n      add\n      dup3\n      dup2\n      sub\n      dup3\n      mstore\n      dup4\n      dup2\n      dup2\n      mload\n      dup2\n      mstore\n      0x20\n      add\n      swap2\n      pop\n      dup1\n      mload\n      swap1\n      0x20\n      add\n      swap1\n      0x20\n      mul\n      dup1\n      dup4\n      dup4\n        /* \"--CODEGEN--\":23:24   */\n      0x0\n        /* \"--CODEGEN--\":8:108   */\n    tag_29:\n        /* \"--CODEGEN--\":33:36   */\n      dup4\n        /* \"--CODEGEN--\":30:31   */\n      dup2\n        /* \"--CODEGEN--\":27:37   */\n      lt\n        /* \"--CODEGEN--\":8:108   */\n      iszero\n      tag_30\n      jumpi\n        /* \"--CODEGEN--\":99:100   */\n      dup1\n        /* \"--CODEGEN--\":94:97   */\n      dup3\n        /* \"--CODEGEN--\":90:101   */\n      add\n        /* \"--CODEGEN--\":84:102   */\n      mload\n        /* \"--CODEGEN--\":80:81   */\n      dup2\n        /* \"--CODEGEN--\":75:78   */\n      dup5\n        /* \"--CODEGEN--\":71:82   */\n      add\n        /* \"--CODEGEN--\":64:103   */\n      mstore\n        /* \"--CODEGEN--\":52:54   */\n      0x20\n        /* \"--CODEGEN--\":49:50   */\n      dup2\n        /* \"--CODEGEN--\":45:55   */\n      add\n        /* \"--CODEGEN--\":40:55   */\n      swap1\n      pop\n        /* \"--CODEGEN--\":8:108   */\n      jump(tag_29)\n    tag_30:\n        /* \"--CODEGEN--\":12:26   */\n      pop\n        /* \"Solidity_Data_Types/ArrayTest.sol\":550:638  function getManyInts() public view returns(uint[]){\r... */\n      pop\n      pop\n      pop\n      swap1\n      pop\n      add\n      swap3\n      pop\n      pop\n      pop\n      mload(0x40)\n      dup1\n      swap2\n      sub\n      swap1\n      return\n        /* \"Solidity_Data_Types/ArrayTest.sol\":160:182  uint[] public manyInts */\n    tag_10:\n      0x3\n      dup2\n      dup2\n      sload\n      dup2\n      lt\n      iszero\n      iszero\n      tag_32\n      jumpi\n      invalid\n    tag_32:\n      swap1\n      0x0\n      mstore\n      keccak256(0x0, 0x20)\n      add\n      0x0\n      swap2\n      pop\n      swap1\n      pop\n      sload\n      dup2\n      jump\t// out\n        /* \"Solidity_Data_Types/ArrayTest.sol\":87:121  uint[3] public threeInts = [1,2,3] */\n    tag_13:\n      0x0\n      dup2\n      0x3\n      dup2\n      lt\n      iszero\n      iszero\n      tag_34\n      jumpi\n      invalid\n    tag_34:\n      add\n      0x0\n      swap2\n      pop\n      swap1\n      pop\n      sload\n      dup2\n      jump\t// out\n        /* \"Solidity_Data_Types/ArrayTest.sol\":290:468  function push(uint newInt) public {\r... */\n    tag_16:\n        /* \"Solidity_Data_Types/ArrayTest.sol\":337:345  manyInts */\n      0x3\n        /* \"Solidity_Data_Types/ArrayTest.sol\":351:357  newInt */\n      dup2\n        /* \"Solidity_Data_Types/ArrayTest.sol\":337:358  manyInts.push(newInt) */\n      swap1\n      dup1\n        /* \"--CODEGEN--\":39:40   */\n      0x1\n        /* \"--CODEGEN--\":33:36   */\n      dup2\n        /* \"--CODEGEN--\":27:37   */\n      sload\n        /* \"--CODEGEN--\":23:41   */\n      add\n        /* \"--CODEGEN--\":57:67   */\n      dup1\n        /* \"--CODEGEN--\":52:55   */\n      dup3\n        /* \"--CODEGEN--\":45:68   */\n      sstore\n        /* \"--CODEGEN--\":79:89   */\n      dup1\n        /* \"--CODEGEN--\":72:89   */\n      swap2\n      pop\n        /* \"--CODEGEN--\":0:93   */\n      pop\n        /* \"Solidity_Data_Types/ArrayTest.sol\":337:358  manyInts.push(newInt) */\n      swap1\n      0x1\n      dup3\n      sub\n      swap1\n      0x0\n      mstore\n      keccak256(0x0, 0x20)\n      add\n      0x0\n      swap1\n      swap2\n      swap3\n      swap1\n      swap2\n      swap1\n      swap2\n      pop\n      sstore\n      pop\n        /* \"Solidity_Data_Types/ArrayTest.sol\":412:413  1 */\n      0x1\n        /* \"Solidity_Data_Types/ArrayTest.sol\":393:401  manyInts */\n      0x3\n        /* \"Solidity_Data_Types/ArrayTest.sol\":393:413  manyInts.length += 1 */\n      dup2\n      dup2\n      dup1\n      sload\n      swap1\n      pop\n      add\n      swap2\n      pop\n      dup2\n      tag_38\n      swap2\n      swap1\n      jump\t// in(tag_39)\n    tag_38:\n      pop\n        /* \"Solidity_Data_Types/ArrayTest.sol\":454:460  newInt */\n      dup1\n        /* \"Solidity_Data_Types/ArrayTest.sol\":424:432  manyInts */\n      0x3\n        /* \"Solidity_Data_Types/ArrayTest.sol\":449:450  1 */\n      0x1\n        /* \"Solidity_Data_Types/ArrayTest.sol\":433:441  manyInts */\n      0x3\n        /* \"Solidity_Data_Types/ArrayTest.sol\":433:448  manyInts.length */\n      dup1\n      sload\n      swap1\n      pop\n        /* \"Solidity_Data_Types/ArrayTest.sol\":433:450  manyInts.length-1 */\n      sub\n        /* \"Solidity_Data_Types/ArrayTest.sol\":424:451  manyInts[manyInts.length-1] */\n      dup2\n      sload\n      dup2\n      lt\n      iszero\n      iszero\n      tag_40\n      jumpi\n      invalid\n    tag_40:\n      swap1\n      0x0\n      mstore\n      keccak256(0x0, 0x20)\n      add\n        /* \"Solidity_Data_Types/ArrayTest.sol\":424:460  manyInts[manyInts.length-1] = newInt */\n      dup2\n      swap1\n      sstore\n      pop\n        /* \"Solidity_Data_Types/ArrayTest.sol\":290:468  function push(uint newInt) public {\r... */\n      pop\n      jump\t// out\n        /* \"Solidity_Data_Types/ArrayTest.sol\":650:750  function getThreeInts() public view returns (uint[3]){\r... */\n    tag_19:\n        /* \"Solidity_Data_Types/ArrayTest.sol\":695:702  uint[3] */\n      tag_42\n      jump\t// in(tag_43)\n    tag_42:\n        /* \"Solidity_Data_Types/ArrayTest.sol\":723:732  threeInts */\n      0x0\n        /* \"Solidity_Data_Types/ArrayTest.sol\":716:732  return threeInts */\n      0x3\n      dup1\n      0x20\n      mul\n      mload(0x40)\n      swap1\n      dup2\n      add\n      0x40\n      mstore\n      dup1\n      swap3\n      swap2\n      swap1\n      dup3\n      0x3\n      dup1\n      iszero\n      tag_45\n      jumpi\n      0x20\n      mul\n      dup3\n      add\n      swap2\n    tag_46:\n      dup2\n      sload\n      dup2\n      mstore\n      0x20\n      add\n      swap1\n      0x1\n      add\n      swap1\n      dup1\n      dup4\n      gt\n      tag_46\n      jumpi\n    tag_45:\n      pop\n      pop\n      pop\n      pop\n      pop\n      swap1\n      pop\n        /* \"Solidity_Data_Types/ArrayTest.sol\":650:750  function getThreeInts() public view returns (uint[3]){\r... */\n      swap1\n      jump\t// out\n        /* \"Solidity_Data_Types/ArrayTest.sol\":195:278  function increment(uint8 index) public {\r... */\n    tag_25:\n        /* \"Solidity_Data_Types/ArrayTest.sol\":267:268  1 */\n      0x1\n        /* \"Solidity_Data_Types/ArrayTest.sol\":247:256  threeInts */\n      0x0\n        /* \"Solidity_Data_Types/ArrayTest.sol\":257:262  index */\n      dup3\n        /* \"Solidity_Data_Types/ArrayTest.sol\":247:263  threeInts[index] */\n      0xff\n      and\n      0x3\n      dup2\n      lt\n      iszero\n      iszero\n      tag_48\n      jumpi\n      invalid\n    tag_48:\n      add\n      0x0\n        /* \"Solidity_Data_Types/ArrayTest.sol\":247:268  threeInts[index] += 1 */\n      dup3\n      dup3\n      sload\n      add\n      swap3\n      pop\n      pop\n      dup2\n      swap1\n      sstore\n      pop\n        /* \"Solidity_Data_Types/ArrayTest.sol\":195:278  function increment(uint8 index) public {\r... */\n      pop\n      jump\t// out\n        /* \"Solidity_Data_Types/ArrayTest.sol\":550:638  function getManyInts() public view returns(uint[]){\r... */\n    tag_28:\n        /* \"Solidity_Data_Types/ArrayTest.sol\":593:599  uint[] */\n      0x60\n        /* \"Solidity_Data_Types/ArrayTest.sol\":620:628  manyInts */\n      0x3\n        /* \"Solidity_Data_Types/ArrayTest.sol\":613:628  return manyInts */\n      dup1\n      sload\n      dup1\n      0x20\n      mul\n      0x20\n      add\n      mload(0x40)\n      swap1\n      dup2\n      add\n      0x40\n      mstore\n      dup1\n      swap3\n      swap2\n      swap1\n      dup2\n      dup2\n      mstore\n      0x20\n      add\n      dup3\n      dup1\n      sload\n      dup1\n      iszero\n      tag_51\n      jumpi\n      0x20\n      mul\n      dup3\n      add\n      swap2\n      swap1\n      0x0\n      mstore\n      keccak256(0x0, 0x20)\n      swap1\n    tag_52:\n      dup2\n      sload\n      dup2\n      mstore\n      0x20\n      add\n      swap1\n      0x1\n      add\n      swap1\n      dup1\n      dup4\n      gt\n      tag_52\n      jumpi\n    tag_51:\n      pop\n      pop\n      pop\n      pop\n      pop\n      swap1\n      pop\n        /* \"Solidity_Data_Types/ArrayTest.sol\":550:638  function getManyInts() public view returns(uint[]){\r... */\n      swap1\n      jump\t// out\n        /* \"Solidity_Data_Types/ArrayTest.sol\":30:753  contract ArrayTest{\r... */\n    tag_39:\n      dup2\n      sload\n      dup2\n      dup4\n      sstore\n      dup2\n      dup2\n      gt\n      iszero\n      tag_53\n      jumpi\n      dup2\n      dup4\n      0x0\n      mstore\n      keccak256(0x0, 0x20)\n      swap2\n      dup3\n      add\n      swap2\n      add\n      tag_54\n      swap2\n      swap1\n      jump\t// in(tag_55)\n    tag_54:\n    tag_53:\n      pop\n      pop\n      pop\n      jump\t// out\n    tag_43:\n      0x60\n      mload(0x40)\n      swap1\n      dup2\n      add\n      0x40\n      mstore\n      dup1\n      0x3\n      swap1\n        /* \"--CODEGEN--\":29:31   */\n      0x20\n        /* \"--CODEGEN--\":21:27   */\n      dup3\n        /* \"--CODEGEN--\":17:32   */\n      mul\n        /* \"--CODEGEN--\":117:121   */\n      dup1\n        /* \"--CODEGEN--\":105:115   */\n      codesize\n        /* \"--CODEGEN--\":97:103   */\n      dup4\n        /* \"--CODEGEN--\":88:122   */\n      codecopy\n        /* \"--CODEGEN--\":148:152   */\n      dup1\n        /* \"--CODEGEN--\":140:146   */\n      dup3\n        /* \"--CODEGEN--\":136:153   */\n      add\n        /* \"--CODEGEN--\":126:153   */\n      swap2\n      pop\n        /* \"--CODEGEN--\":0:157   */\n      pop\n        /* \"Solidity_Data_Types/ArrayTest.sol\":30:753  contract ArrayTest{\r... */\n      swap1\n      pop\n      pop\n      swap1\n      jump\t// out\n    tag_55:\n      tag_56\n      swap2\n      swap1\n    tag_57:\n      dup1\n      dup3\n      gt\n      iszero\n      tag_58\n      jumpi\n      0x0\n      dup2\n      0x0\n      swap1\n      sstore\n      pop\n      0x1\n      add\n      jump(tag_57)\n    tag_58:\n      pop\n      swap1\n      jump\n    tag_56:\n      swap1\n      jump\t// out\n\n    auxdata: 0xa165627a7a7230582040de2de89315494c65aa30ab20c97e8c8dd08e539c105e627ce2ad93d80764c80029\n}\n",
				"bytecode": {
					"linkReferences": {},
					"object": "6080604052606060405190810160405280600160ff168152602001600260ff168152602001600360ff16815250600090600361003c92919061004f565b5034801561004957600080fd5b506100b9565b8260038101928215610083579160200282015b82811115610082578251829060ff16905591602001919060010190610062565b5b5090506100909190610094565b5090565b6100b691905b808211156100b257600081600090555060010161009a565b5090565b90565b61042e806100c86000396000f300608060405260043610610078576000357c0100000000000000000000000000000000000000000000000000000000900463ffffffff168063542ee37d1461007d5780637e82742f146100be578063959ac484146100ff578063cc1a9d011461012c578063d6b463301461017f578063f4083094146101af575b600080fd5b34801561008957600080fd5b506100a86004803603810190808035906020019092919050505061021b565b6040518082815260200191505060405180910390f35b3480156100ca57600080fd5b506100e96004803603810190808035906020019092919050505061023e565b6040518082815260200191505060405180910390f35b34801561010b57600080fd5b5061012a60048036038101908080359060200190929190505050610258565b005b34801561013857600080fd5b506101416102c6565b6040518082600360200280838360005b8381101561016c578082015181840152602081019050610151565b5050505090500191505060405180910390f35b34801561018b57600080fd5b506101ad600480360381019080803560ff169060200190929190505050610311565b005b3480156101bb57600080fd5b506101c4610336565b6040518080602001828103825283818151815260200191508051906020019060200280838360005b838110156102075780820151818401526020810190506101ec565b505050509050019250505060405180910390f35b60038181548110151561022a57fe5b906000526020600020016000915090505481565b60008160038110151561024d57fe5b016000915090505481565b6003819080600181540180825580915050906001820390600052602060002001600090919290919091505550600160038181805490500191508161029c919061038e565b508060036001600380549050038154811015156102b557fe5b906000526020600020018190555050565b6102ce6103ba565b6000600380602002604051908101604052809291908260038015610307576020028201915b8154815260200190600101908083116102f3575b5050505050905090565b600160008260ff1660038110151561032557fe5b016000828254019250508190555050565b6060600380548060200260200160405190810160405280929190818152602001828054801561038457602002820191906000526020600020905b815481526020019060010190808311610370575b5050505050905090565b8154818355818111156103b5578183600052602060002091820191016103b491906103dd565b5b505050565b606060405190810160405280600390602082028038833980820191505090505090565b6103ff91905b808211156103fb5760008160009055506001016103e3565b5090565b905600a165627a7a7230582040de2de89315494c65aa30ab20c97e8c8dd08e539c105e627ce2ad93d80764c80029",
					"opcodes": "PUSH1 0x80 PUSH1 0x40 MSTORE PUSH1 0x60 PUSH1 0x40 MLOAD SWAP1 DUP2 ADD PUSH1 0x40 MSTORE DUP1 PUSH1 0x1 PUSH1 0xFF AND DUP2 MSTORE PUSH1 0x20 ADD PUSH1 0x2 PUSH1 0xFF AND DUP2 MSTORE PUSH1 0x20 ADD PUSH1 0x3 PUSH1 0xFF AND DUP2 MSTORE POP PUSH1 0x0 SWAP1 PUSH1 0x3 PUSH2 0x3C SWAP3 SWAP2 SWAP1 PUSH2 0x4F JUMP JUMPDEST POP CALLVALUE DUP1 ISZERO PUSH2 0x49 JUMPI PUSH1 0x0 DUP1 REVERT JUMPDEST POP PUSH2 0xB9 JUMP JUMPDEST DUP3 PUSH1 0x3 DUP2 ADD SWAP3 DUP3 ISZERO PUSH2 0x83 JUMPI SWAP2 PUSH1 0x20 MUL DUP3 ADD JUMPDEST DUP3 DUP2 GT ISZERO PUSH2 0x82 JUMPI DUP3 MLOAD DUP3 SWAP1 PUSH1 0xFF AND SWAP1 SSTORE SWAP2 PUSH1 0x20 ADD SWAP2 SWAP1 PUSH1 0x1 ADD SWAP1 PUSH2 0x62 JUMP JUMPDEST JUMPDEST POP SWAP1 POP PUSH2 0x90 SWAP2 SWAP1 PUSH2 0x94 JUMP JUMPDEST POP SWAP1 JUMP JUMPDEST PUSH2 0xB6 SWAP2 SWAP1 JUMPDEST DUP1 DUP3 GT ISZERO PUSH2 0xB2 JUMPI PUSH1 0x0 DUP2 PUSH1 0x0 SWAP1 SSTORE POP PUSH1 0x1 ADD PUSH2 0x9A JUMP JUMPDEST POP SWAP1 JUMP JUMPDEST SWAP1 JUMP JUMPDEST PUSH2 0x42E DUP1 PUSH2 0xC8 PUSH1 0x0 CODECOPY PUSH1 0x0 RETURN STOP PUSH1 0x80 PUSH1 0x40 MSTORE PUSH1 0x4 CALLDATASIZE LT PUSH2 0x78 JUMPI PUSH1 0x0 CALLDATALOAD PUSH29 0x100000000000000000000000000000000000000000000000000000000 SWAP1 DIV PUSH4 0xFFFFFFFF AND DUP1 PUSH4 0x542EE37D EQ PUSH2 0x7D JUMPI DUP1 PUSH4 0x7E82742F EQ PUSH2 0xBE JUMPI DUP1 PUSH4 0x959AC484 EQ PUSH2 0xFF JUMPI DUP1 PUSH4 0xCC1A9D01 EQ PUSH2 0x12C JUMPI DUP1 PUSH4 0xD6B46330 EQ PUSH2 0x17F JUMPI DUP1 PUSH4 0xF4083094 EQ PUSH2 0x1AF JUMPI JUMPDEST PUSH1 0x0 DUP1 REVERT JUMPDEST CALLVALUE DUP1 ISZERO PUSH2 0x89 JUMPI PUSH1 0x0 DUP1 REVERT JUMPDEST POP PUSH2 0xA8 PUSH1 0x4 DUP1 CALLDATASIZE SUB DUP2 ADD SWAP1 DUP1 DUP1 CALLDATALOAD SWAP1 PUSH1 0x20 ADD SWAP1 SWAP3 SWAP2 SWAP1 POP POP POP PUSH2 0x21B JUMP JUMPDEST PUSH1 0x40 MLOAD DUP1 DUP3 DUP2 MSTORE PUSH1 0x20 ADD SWAP2 POP POP PUSH1 0x40 MLOAD DUP1 SWAP2 SUB SWAP1 RETURN JUMPDEST CALLVALUE DUP1 ISZERO PUSH2 0xCA JUMPI PUSH1 0x0 DUP1 REVERT JUMPDEST POP PUSH2 0xE9 PUSH1 0x4 DUP1 CALLDATASIZE SUB DUP2 ADD SWAP1 DUP1 DUP1 CALLDATALOAD SWAP1 PUSH1 0x20 ADD SWAP1 SWAP3 SWAP2 SWAP1 POP POP POP PUSH2 0x23E JUMP JUMPDEST PUSH1 0x40 MLOAD DUP1 DUP3 DUP2 MSTORE PUSH1 0x20 ADD SWAP2 POP POP PUSH1 0x40 MLOAD DUP1 SWAP2 SUB SWAP1 RETURN JUMPDEST CALLVALUE DUP1 ISZERO PUSH2 0x10B JUMPI PUSH1 0x0 DUP1 REVERT JUMPDEST POP PUSH2 0x12A PUSH1 0x4 DUP1 CALLDATASIZE SUB DUP2 ADD SWAP1 DUP1 DUP1 CALLDATALOAD SWAP1 PUSH1 0x20 ADD SWAP1 SWAP3 SWAP2 SWAP1 POP POP POP PUSH2 0x258 JUMP JUMPDEST STOP JUMPDEST CALLVALUE DUP1 ISZERO PUSH2 0x138 JUMPI PUSH1 0x0 DUP1 REVERT JUMPDEST POP PUSH2 0x141 PUSH2 0x2C6 JUMP JUMPDEST PUSH1 0x40 MLOAD DUP1 DUP3 PUSH1 0x3 PUSH1 0x20 MUL DUP1 DUP4 DUP4 PUSH1 0x0 JUMPDEST DUP4 DUP2 LT ISZERO PUSH2 0x16C JUMPI DUP1 DUP3 ADD MLOAD DUP2 DUP5 ADD MSTORE PUSH1 0x20 DUP2 ADD SWAP1 POP PUSH2 0x151 JUMP JUMPDEST POP POP POP POP SWAP1 POP ADD SWAP2 POP POP PUSH1 0x40 MLOAD DUP1 SWAP2 SUB SWAP1 RETURN JUMPDEST CALLVALUE DUP1 ISZERO PUSH2 0x18B JUMPI PUSH1 0x0 DUP1 REVERT JUMPDEST POP PUSH2 0x1AD PUSH1 0x4 DUP1 CALLDATASIZE SUB DUP2 ADD SWAP1 DUP1 DUP1 CALLDATALOAD PUSH1 0xFF AND SWAP1 PUSH1 0x20 ADD SWAP1 SWAP3 SWAP2 SWAP1 POP POP POP PUSH2 0x311 JUMP JUMPDEST STOP JUMPDEST CALLVALUE DUP1 ISZERO PUSH2 0x1BB JUMPI PUSH1 0x0 DUP1 REVERT JUMPDEST POP PUSH2 0x1C4 PUSH2 0x336 JUMP JUMPDEST PUSH1 0x40 MLOAD DUP1 DUP1 PUSH1 0x20 ADD DUP3 DUP2 SUB DUP3 MSTORE DUP4 DUP2 DUP2 MLOAD DUP2 MSTORE PUSH1 0x20 ADD SWAP2 POP DUP1 MLOAD SWAP1 PUSH1 0x20 ADD SWAP1 PUSH1 0x20 MUL DUP1 DUP4 DUP4 PUSH1 0x0 JUMPDEST DUP4 DUP2 LT ISZERO PUSH2 0x207 JUMPI DUP1 DUP3 ADD MLOAD DUP2 DUP5 ADD MSTORE PUSH1 0x20 DUP2 ADD SWAP1 POP PUSH2 0x1EC JUMP JUMPDEST POP POP POP POP SWAP1 POP ADD SWAP3 POP POP POP PUSH1 0x40 MLOAD DUP1 SWAP2 SUB SWAP1 RETURN JUMPDEST PUSH1 0x3 DUP2 DUP2 SLOAD DUP2 LT ISZERO ISZERO PUSH2 0x22A JUMPI INVALID JUMPDEST SWAP1 PUSH1 0x0 MSTORE PUSH1 0x20 PUSH1 0x0 KECCAK256 ADD PUSH1 0x0 SWAP2 POP SWAP1 POP SLOAD DUP2 JUMP JUMPDEST PUSH1 0x0 DUP2 PUSH1 0x3 DUP2 LT ISZERO ISZERO PUSH2 0x24D JUMPI INVALID JUMPDEST ADD PUSH1 0x0 SWAP2 POP SWAP1 POP SLOAD DUP2 JUMP JUMPDEST PUSH1 0x3 DUP2 SWAP1 DUP1 PUSH1 0x1 DUP2 SLOAD ADD DUP1 DUP3 SSTORE DUP1 SWAP2 POP POP SWAP1 PUSH1 0x1 DUP3 SUB SWAP1 PUSH1 0x0 MSTORE PUSH1 0x20 PUSH1 0x0 KECCAK256 ADD PUSH1 0x0 SWAP1 SWAP2 SWAP3 SWAP1 SWAP2 SWAP1 SWAP2 POP SSTORE POP PUSH1 0x1 PUSH1 0x3 DUP2 DUP2 DUP1 SLOAD SWAP1 POP ADD SWAP2 POP DUP2 PUSH2 0x29C SWAP2 SWAP1 PUSH2 0x38E JUMP JUMPDEST POP DUP1 PUSH1 0x3 PUSH1 0x1 PUSH1 0x3 DUP1 SLOAD SWAP1 POP SUB DUP2 SLOAD DUP2 LT ISZERO ISZERO PUSH2 0x2B5 JUMPI INVALID JUMPDEST SWAP1 PUSH1 0x0 MSTORE PUSH1 0x20 PUSH1 0x0 KECCAK256 ADD DUP2 SWAP1 SSTORE POP POP JUMP JUMPDEST PUSH2 0x2CE PUSH2 0x3BA JUMP JUMPDEST PUSH1 0x0 PUSH1 0x3 DUP1 PUSH1 0x20 MUL PUSH1 0x40 MLOAD SWAP1 DUP2 ADD PUSH1 0x40 MSTORE DUP1 SWAP3 SWAP2 SWAP1 DUP3 PUSH1 0x3 DUP1 ISZERO PUSH2 0x307 JUMPI PUSH1 0x20 MUL DUP3 ADD SWAP2 JUMPDEST DUP2 SLOAD DUP2 MSTORE PUSH1 0x20 ADD SWAP1 PUSH1 0x1 ADD SWAP1 DUP1 DUP4 GT PUSH2 0x2F3 JUMPI JUMPDEST POP POP POP POP POP SWAP1 POP SWAP1 JUMP JUMPDEST PUSH1 0x1 PUSH1 0x0 DUP3 PUSH1 0xFF AND PUSH1 0x3 DUP2 LT ISZERO ISZERO PUSH2 0x325 JUMPI INVALID JUMPDEST ADD PUSH1 0x0 DUP3 DUP3 SLOAD ADD SWAP3 POP POP DUP2 SWAP1 SSTORE POP POP JUMP JUMPDEST PUSH1 0x60 PUSH1 0x3 DUP1 SLOAD DUP1 PUSH1 0x20 MUL PUSH1 0x20 ADD PUSH1 0x40 MLOAD SWAP1 DUP2 ADD PUSH1 0x40 MSTORE DUP1 SWAP3 SWAP2 SWAP1 DUP2 DUP2 MSTORE PUSH1 0x20 ADD DUP3 DUP1 SLOAD DUP1 ISZERO PUSH2 0x384 JUMPI PUSH1 0x20 MUL DUP3 ADD SWAP2 SWAP1 PUSH1 0x0 MSTORE PUSH1 0x20 PUSH1 0x0 KECCAK256 SWAP1 JUMPDEST DUP2 SLOAD DUP2 MSTORE PUSH1 0x20 ADD SWAP1 PUSH1 0x1 ADD SWAP1 DUP1 DUP4 GT PUSH2 0x370 JUMPI JUMPDEST POP POP POP POP POP SWAP1 POP SWAP1 JUMP JUMPDEST DUP2 SLOAD DUP2 DUP4 SSTORE DUP2 DUP2 GT ISZERO PUSH2 0x3B5 JUMPI DUP2 DUP4 PUSH1 0x0 MSTORE PUSH1 0x20 PUSH1 0x0 KECCAK256 SWAP2 DUP3 ADD SWAP2 ADD PUSH2 0x3B4 SWAP2 SWAP1 PUSH2 0x3DD JUMP JUMPDEST JUMPDEST POP POP POP JUMP JUMPDEST PUSH1 0x60 PUSH1 0x40 MLOAD SWAP1 DUP2 ADD PUSH1 0x40 MSTORE DUP1 PUSH1 0x3 SWAP1 PUSH1 0x20 DUP3 MUL DUP1 CODESIZE DUP4 CODECOPY DUP1 DUP3 ADD SWAP2 POP POP SWAP1 POP POP SWAP1 JUMP JUMPDEST PUSH2 0x3FF SWAP2 SWAP1 JUMPDEST DUP1 DUP3 GT ISZERO PUSH2 0x3FB JUMPI PUSH1 0x0 DUP2 PUSH1 0x0 SWAP1 SSTORE POP PUSH1 0x1 ADD PUSH2 0x3E3 JUMP JUMPDEST POP SWAP1 JUMP JUMPDEST SWAP1 JUMP STOP LOG1 PUSH6 0x627A7A723058 KECCAK256 BLOCKHASH 0xde 0x2d 0xe8 SWAP4 ISZERO 0x49 0x4c PUSH6 0xAA30AB20C97E DUP13 DUP14 0xd0 DUP15 MSTORE8 SWAP13 LT 0x5e PUSH3 0x7CE2AD SWAP4 0xd8 SMOD PUSH5 0xC800290000 "
				},
				"gasEstimates": {
					"creation": {
						"codeDepositCost": "214000",
						"executionCost": "infinite",
						"totalCost": "infinite"
					},
					"external": {
						"getManyInts()": "infinite",
						"getThreeInts()": "infinite",
						"increment(uint8)": "20559",
						"manyInts(uint256)": "749",
						"push(uint256)": "infinite",
						"threeInts(uint256)": "520"
					}
				},
				"methodIdentifiers": {
					"getManyInts()": "f4083094",
					"getThreeInts()": "cc1a9d01",
					"increment(uint8)": "d6b46330",
					"manyInts(uint256)": "542ee37d",
					"push(uint256)": "959ac484",
					"threeInts(uint256)": "7e82742f"
				}
			},
			"userdoc": {
				"methods": {}
			}
		}
	}
}