{
	"Solidity_Data_Types/Enums.sol": {
		"Enumerations": {
			"abi": [
				{
					"constant": false,
					"inputs": [
						{
							"name": "_color",
							"type": "uint256"
						}
					],
					"name": "choose",
					"outputs": [],
					"payable": false,
					"stateMutability": "nonpayable",
					"type": "function"
				},
				{
					"constant": true,
					"inputs": [],
					"name": "getChoice",
					"outputs": [
						{
							"name": "",
							"type": "uint8"
						}
					],
					"payable": false,
					"stateMutability": "view",
					"type": "function"
				},
				{
					"constant": true,
					"inputs": [],
					"name": "getDefaultChoice",
					"outputs": [
						{
							"name": "",
							"type": "uint256"
						}
					],
					"payable": false,
					"stateMutability": "view",
					"type": "function"
				},
				{
					"constant": false,
					"inputs": [],
					"name": "chooseRed",
					"outputs": [],
					"payable": false,
					"stateMutability": "nonpayable",
					"type": "function"
				}
			],
			"devdoc": {
				"methods": {}
			},
			"evm": {
				"assembly": "    /* \"Solidity_Data_Types/Enums.sol\":27:526  contract Enumerations {\r... */\n  mstore(0x40, 0x80)\n  callvalue\n    /* \"--CODEGEN--\":8:17   */\n  dup1\n    /* \"--CODEGEN--\":5:7   */\n  iszero\n  tag_1\n  jumpi\n    /* \"--CODEGEN--\":30:31   */\n  0x0\n    /* \"--CODEGEN--\":27:28   */\n  dup1\n    /* \"--CODEGEN--\":20:32   */\n  revert\n    /* \"--CODEGEN--\":5:7   */\ntag_1:\n    /* \"Solidity_Data_Types/Enums.sol\":27:526  contract Enumerations {\r... */\n  pop\n  dataSize(sub_0)\n  dup1\n  dataOffset(sub_0)\n  0x0\n  codecopy\n  0x0\n  return\nstop\n\nsub_0: assembly {\n        /* \"Solidity_Data_Types/Enums.sol\":27:526  contract Enumerations {\r... */\n      mstore(0x40, 0x80)\n      jumpi(tag_1, lt(calldatasize, 0x4))\n      calldataload(0x0)\n      0x100000000000000000000000000000000000000000000000000000000\n      swap1\n      div\n      0xffffffff\n      and\n      dup1\n      0xbb0b13a\n      eq\n      tag_2\n      jumpi\n      dup1\n      0x67cb61b6\n      eq\n      tag_3\n      jumpi\n      dup1\n      0x843f7258\n      eq\n      tag_4\n      jumpi\n      dup1\n      0xbd9527de\n      eq\n      tag_5\n      jumpi\n    tag_1:\n      0x0\n      dup1\n      revert\n        /* \"Solidity_Data_Types/Enums.sol\":246:325  function choose(uint _color) public {\r... */\n    tag_2:\n      callvalue\n        /* \"--CODEGEN--\":8:17   */\n      dup1\n        /* \"--CODEGEN--\":5:7   */\n      iszero\n      tag_6\n      jumpi\n        /* \"--CODEGEN--\":30:31   */\n      0x0\n        /* \"--CODEGEN--\":27:28   */\n      dup1\n        /* \"--CODEGEN--\":20:32   */\n      revert\n        /* \"--CODEGEN--\":5:7   */\n    tag_6:\n        /* \"Solidity_Data_Types/Enums.sol\":246:325  function choose(uint _color) public {\r... */\n      pop\n      tag_7\n      0x4\n      dup1\n      calldatasize\n      sub\n      dup2\n      add\n      swap1\n      dup1\n      dup1\n      calldataload\n      swap1\n      0x20\n      add\n      swap1\n      swap3\n      swap2\n      swap1\n      pop\n      pop\n      pop\n      jump(tag_8)\n    tag_7:\n      stop\n        /* \"Solidity_Data_Types/Enums.sol\":333:415  function getChoice() public view returns(Colors){\r... */\n    tag_3:\n      callvalue\n        /* \"--CODEGEN--\":8:17   */\n      dup1\n        /* \"--CODEGEN--\":5:7   */\n      iszero\n      tag_9\n      jumpi\n        /* \"--CODEGEN--\":30:31   */\n      0x0\n        /* \"--CODEGEN--\":27:28   */\n      dup1\n        /* \"--CODEGEN--\":20:32   */\n      revert\n        /* \"--CODEGEN--\":5:7   */\n    tag_9:\n        /* \"Solidity_Data_Types/Enums.sol\":333:415  function getChoice() public view returns(Colors){\r... */\n      pop\n      tag_10\n      jump(tag_11)\n    tag_10:\n      mload(0x40)\n      dup1\n      dup3\n      0x2\n      dup2\n      gt\n      iszero\n      tag_12\n      jumpi\n      invalid\n    tag_12:\n      0xff\n      and\n      dup2\n      mstore\n      0x20\n      add\n      swap2\n      pop\n      pop\n      mload(0x40)\n      dup1\n      swap2\n      sub\n      swap1\n      return\n        /* \"Solidity_Data_Types/Enums.sol\":423:523  function getDefaultChoice() public pure returns (uint){\r... */\n    tag_4:\n      callvalue\n        /* \"--CODEGEN--\":8:17   */\n      dup1\n        /* \"--CODEGEN--\":5:7   */\n      iszero\n      tag_13\n      jumpi\n        /* \"--CODEGEN--\":30:31   */\n      0x0\n        /* \"--CODEGEN--\":27:28   */\n      dup1\n        /* \"--CODEGEN--\":20:32   */\n      revert\n        /* \"--CODEGEN--\":5:7   */\n    tag_13:\n        /* \"Solidity_Data_Types/Enums.sol\":423:523  function getDefaultChoice() public pure returns (uint){\r... */\n      pop\n      tag_14\n      jump(tag_15)\n    tag_14:\n      mload(0x40)\n      dup1\n      dup3\n      dup2\n      mstore\n      0x20\n      add\n      swap2\n      pop\n      pop\n      mload(0x40)\n      dup1\n      swap2\n      sub\n      swap1\n      return\n        /* \"Solidity_Data_Types/Enums.sol\":171:238  function chooseRed() public {\r... */\n    tag_5:\n      callvalue\n        /* \"--CODEGEN--\":8:17   */\n      dup1\n        /* \"--CODEGEN--\":5:7   */\n      iszero\n      tag_16\n      jumpi\n        /* \"--CODEGEN--\":30:31   */\n      0x0\n        /* \"--CODEGEN--\":27:28   */\n      dup1\n        /* \"--CODEGEN--\":20:32   */\n      revert\n        /* \"--CODEGEN--\":5:7   */\n    tag_16:\n        /* \"Solidity_Data_Types/Enums.sol\":171:238  function chooseRed() public {\r... */\n      pop\n      tag_17\n      jump(tag_18)\n    tag_17:\n      stop\n        /* \"Solidity_Data_Types/Enums.sol\":246:325  function choose(uint _color) public {\r... */\n    tag_8:\n        /* \"Solidity_Data_Types/Enums.sol\":310:316  _color */\n      dup1\n        /* \"Solidity_Data_Types/Enums.sol\":303:317  Colors(_color) */\n      0x2\n      dup2\n      gt\n      iszero\n      tag_20\n      jumpi\n      invalid\n    tag_20:\n        /* \"Solidity_Data_Types/Enums.sol\":294:300  choice */\n      0x0\n      dup1\n        /* \"Solidity_Data_Types/Enums.sol\":294:317  choice = Colors(_color) */\n      0x100\n      exp\n      dup2\n      sload\n      dup2\n      0xff\n      mul\n      not\n      and\n      swap1\n      dup4\n      0x2\n      dup2\n      gt\n      iszero\n      tag_21\n      jumpi\n      invalid\n    tag_21:\n      mul\n      or\n      swap1\n      sstore\n      pop\n        /* \"Solidity_Data_Types/Enums.sol\":246:325  function choose(uint _color) public {\r... */\n      pop\n      jump\t// out\n        /* \"Solidity_Data_Types/Enums.sol\":333:415  function getChoice() public view returns(Colors){\r... */\n    tag_11:\n        /* \"Solidity_Data_Types/Enums.sol\":374:380  Colors */\n      0x0\n        /* \"Solidity_Data_Types/Enums.sol\":401:407  choice */\n      dup1\n      0x0\n      swap1\n      sload\n      swap1\n      0x100\n      exp\n      swap1\n      div\n      0xff\n      and\n        /* \"Solidity_Data_Types/Enums.sol\":394:407  return choice */\n      swap1\n      pop\n        /* \"Solidity_Data_Types/Enums.sol\":333:415  function getChoice() public view returns(Colors){\r... */\n      swap1\n      jump\t// out\n        /* \"Solidity_Data_Types/Enums.sol\":423:523  function getDefaultChoice() public pure returns (uint){\r... */\n    tag_15:\n        /* \"Solidity_Data_Types/Enums.sol\":472:476  uint */\n      0x0\n        /* \"Solidity_Data_Types/Enums.sol\":150:162  Colors.Green */\n      0x2\n        /* \"Solidity_Data_Types/Enums.sol\":496:515  uint(defaultChoice) */\n      dup1\n      dup2\n      gt\n      iszero\n      tag_24\n      jumpi\n      invalid\n    tag_24:\n        /* \"Solidity_Data_Types/Enums.sol\":489:515  return uint(defaultChoice) */\n      swap1\n      pop\n        /* \"Solidity_Data_Types/Enums.sol\":423:523  function getDefaultChoice() public pure returns (uint){\r... */\n      swap1\n      jump\t// out\n        /* \"Solidity_Data_Types/Enums.sol\":171:238  function chooseRed() public {\r... */\n    tag_18:\n        /* \"Solidity_Data_Types/Enums.sol\":220:230  Colors.Red */\n      0x1\n        /* \"Solidity_Data_Types/Enums.sol\":211:217  choice */\n      0x0\n      dup1\n        /* \"Solidity_Data_Types/Enums.sol\":211:230  choice = Colors.Red */\n      0x100\n      exp\n      dup2\n      sload\n      dup2\n      0xff\n      mul\n      not\n      and\n      swap1\n      dup4\n      0x2\n      dup2\n      gt\n      iszero\n      tag_26\n      jumpi\n      invalid\n    tag_26:\n      mul\n      or\n      swap1\n      sstore\n      pop\n        /* \"Solidity_Data_Types/Enums.sol\":171:238  function chooseRed() public {\r... */\n      jump\t// out\n\n    auxdata: 0xa165627a7a7230582009ada2f04945a1cb742b565ed1507e1774bfc581e1e0fae5a6fb57c5e5ab6f6c0029\n}\n",
				"bytecode": {
					"linkReferences": {},
					"object": "608060405234801561001057600080fd5b506101b9806100206000396000f300608060405260043610610062576000357c0100000000000000000000000000000000000000000000000000000000900463ffffffff1680630bb0b13a1461006757806367cb61b614610094578063843f7258146100cd578063bd9527de146100f8575b600080fd5b34801561007357600080fd5b506100926004803603810190808035906020019092919050505061010f565b005b3480156100a057600080fd5b506100a961013f565b604051808260028111156100b957fe5b60ff16815260200191505060405180910390f35b3480156100d957600080fd5b506100e2610155565b6040518082815260200191505060405180910390f35b34801561010457600080fd5b5061010d610168565b005b80600281111561011b57fe5b6000806101000a81548160ff0219169083600281111561013757fe5b021790555050565b60008060009054906101000a900460ff16905090565b600060028081111561016357fe5b905090565b60016000806101000a81548160ff0219169083600281111561018657fe5b02179055505600a165627a7a7230582009ada2f04945a1cb742b565ed1507e1774bfc581e1e0fae5a6fb57c5e5ab6f6c0029",
					"opcodes": "PUSH1 0x80 PUSH1 0x40 MSTORE CALLVALUE DUP1 ISZERO PUSH2 0x10 JUMPI PUSH1 0x0 DUP1 REVERT JUMPDEST POP PUSH2 0x1B9 DUP1 PUSH2 0x20 PUSH1 0x0 CODECOPY PUSH1 0x0 RETURN STOP PUSH1 0x80 PUSH1 0x40 MSTORE PUSH1 0x4 CALLDATASIZE LT PUSH2 0x62 JUMPI PUSH1 0x0 CALLDATALOAD PUSH29 0x100000000000000000000000000000000000000000000000000000000 SWAP1 DIV PUSH4 0xFFFFFFFF AND DUP1 PUSH4 0xBB0B13A EQ PUSH2 0x67 JUMPI DUP1 PUSH4 0x67CB61B6 EQ PUSH2 0x94 JUMPI DUP1 PUSH4 0x843F7258 EQ PUSH2 0xCD JUMPI DUP1 PUSH4 0xBD9527DE EQ PUSH2 0xF8 JUMPI JUMPDEST PUSH1 0x0 DUP1 REVERT JUMPDEST CALLVALUE DUP1 ISZERO PUSH2 0x73 JUMPI PUSH1 0x0 DUP1 REVERT JUMPDEST POP PUSH2 0x92 PUSH1 0x4 DUP1 CALLDATASIZE SUB DUP2 ADD SWAP1 DUP1 DUP1 CALLDATALOAD SWAP1 PUSH1 0x20 ADD SWAP1 SWAP3 SWAP2 SWAP1 POP POP POP PUSH2 0x10F JUMP JUMPDEST STOP JUMPDEST CALLVALUE DUP1 ISZERO PUSH2 0xA0 JUMPI PUSH1 0x0 DUP1 REVERT JUMPDEST POP PUSH2 0xA9 PUSH2 0x13F JUMP JUMPDEST PUSH1 0x40 MLOAD DUP1 DUP3 PUSH1 0x2 DUP2 GT ISZERO PUSH2 0xB9 JUMPI INVALID JUMPDEST PUSH1 0xFF AND DUP2 MSTORE PUSH1 0x20 ADD SWAP2 POP POP PUSH1 0x40 MLOAD DUP1 SWAP2 SUB SWAP1 RETURN JUMPDEST CALLVALUE DUP1 ISZERO PUSH2 0xD9 JUMPI PUSH1 0x0 DUP1 REVERT JUMPDEST POP PUSH2 0xE2 PUSH2 0x155 JUMP JUMPDEST PUSH1 0x40 MLOAD DUP1 DUP3 DUP2 MSTORE PUSH1 0x20 ADD SWAP2 POP POP PUSH1 0x40 MLOAD DUP1 SWAP2 SUB SWAP1 RETURN JUMPDEST CALLVALUE DUP1 ISZERO PUSH2 0x104 JUMPI PUSH1 0x0 DUP1 REVERT JUMPDEST POP PUSH2 0x10D PUSH2 0x168 JUMP JUMPDEST STOP JUMPDEST DUP1 PUSH1 0x2 DUP2 GT ISZERO PUSH2 0x11B JUMPI INVALID JUMPDEST PUSH1 0x0 DUP1 PUSH2 0x100 EXP DUP2 SLOAD DUP2 PUSH1 0xFF MUL NOT AND SWAP1 DUP4 PUSH1 0x2 DUP2 GT ISZERO PUSH2 0x137 JUMPI INVALID JUMPDEST MUL OR SWAP1 SSTORE POP POP JUMP JUMPDEST PUSH1 0x0 DUP1 PUSH1 0x0 SWAP1 SLOAD SWAP1 PUSH2 0x100 EXP SWAP1 DIV PUSH1 0xFF AND SWAP1 POP SWAP1 JUMP JUMPDEST PUSH1 0x0 PUSH1 0x2 DUP1 DUP2 GT ISZERO PUSH2 0x163 JUMPI INVALID JUMPDEST SWAP1 POP SWAP1 JUMP JUMPDEST PUSH1 0x1 PUSH1 0x0 DUP1 PUSH2 0x100 EXP DUP2 SLOAD DUP2 PUSH1 0xFF MUL NOT AND SWAP1 DUP4 PUSH1 0x2 DUP2 GT ISZERO PUSH2 0x186 JUMPI INVALID JUMPDEST MUL OR SWAP1 SSTORE POP JUMP STOP LOG1 PUSH6 0x627A7A723058 KECCAK256 MULMOD 0xad LOG2 CREATE 0x49 GASLIMIT LOG1 0xcb PUSH21 0x2B565ED1507E1774BFC581E1E0FAE5A6FB57C5E5AB PUSH16 0x6C002900000000000000000000000000 "
				},
				"gasEstimates": {
					"creation": {
						"codeDepositCost": "88200",
						"executionCost": "135",
						"totalCost": "88335"
					},
					"external": {
						"choose(uint256)": "20504",
						"chooseRed()": "20486",
						"getChoice()": "492",
						"getDefaultChoice()": "272"
					}
				},
				"methodIdentifiers": {
					"choose(uint256)": "0bb0b13a",
					"chooseRed()": "bd9527de",
					"getChoice()": "67cb61b6",
					"getDefaultChoice()": "843f7258"
				}
			},
			"userdoc": {
				"methods": {}
			}
		}
	}
}