{
	"Solidity_Data_Types/Structures.sol": {
		"Structures": {
			"abi": [
				{
					"constant": false,
					"inputs": [],
					"name": "bid",
					"outputs": [],
					"payable": true,
					"stateMutability": "payable",
					"type": "function"
				},
				{
					"constant": true,
					"inputs": [],
					"name": "highestBidder",
					"outputs": [
						{
							"name": "addr",
							"type": "address"
						},
						{
							"name": "amount",
							"type": "uint256"
						}
					],
					"payable": false,
					"stateMutability": "view",
					"type": "function"
				},
				{
					"inputs": [],
					"payable": false,
					"stateMutability": "nonpayable",
					"type": "constructor"
				}
			],
			"devdoc": {
				"methods": {}
			},
			"evm": {
				"assembly": "    /* \"Solidity_Data_Types/Structures.sol\":27:660  contract Structures {\r... */\n  mstore(0x40, 0x80)\n    /* \"Solidity_Data_Types/Structures.sol\":183:472  constructor() public {\r... */\n  callvalue\n    /* \"--CODEGEN--\":8:17   */\n  dup1\n    /* \"--CODEGEN--\":5:7   */\n  iszero\n  tag_1\n  jumpi\n    /* \"--CODEGEN--\":30:31   */\n  0x0\n    /* \"--CODEGEN--\":27:28   */\n  dup1\n    /* \"--CODEGEN--\":20:32   */\n  revert\n    /* \"--CODEGEN--\":5:7   */\ntag_1:\n    /* \"Solidity_Data_Types/Structures.sol\":183:472  constructor() public {\r... */\n  pop\n    /* \"Solidity_Data_Types/Structures.sol\":254:282  HighestBidder(msg.sender, 0) */\n  0x40\n  dup1\n  mload\n  swap1\n  dup2\n  add\n  0x40\n  mstore\n  dup1\n    /* \"Solidity_Data_Types/Structures.sol\":268:278  msg.sender */\n  caller\n    /* \"Solidity_Data_Types/Structures.sol\":254:282  HighestBidder(msg.sender, 0) */\n  0xffffffffffffffffffffffffffffffffffffffff\n  and\n  dup2\n  mstore\n  0x20\n  add\n    /* \"Solidity_Data_Types/Structures.sol\":280:281  0 */\n  0x0\n    /* \"Solidity_Data_Types/Structures.sol\":254:282  HighestBidder(msg.sender, 0) */\n  dup2\n  mstore\n  pop\n    /* \"Solidity_Data_Types/Structures.sol\":238:251  highestBidder */\n  0x0\n    /* \"Solidity_Data_Types/Structures.sol\":238:282  highestBidder = HighestBidder(msg.sender, 0) */\n  dup1\n  dup3\n  add\n  mload\n  dup2\n  0x0\n  add\n  exp(0x100, 0x0)\n  dup2\n  sload\n  dup2\n  0xffffffffffffffffffffffffffffffffffffffff\n  mul\n  not\n  and\n  swap1\n  dup4\n  0xffffffffffffffffffffffffffffffffffffffff\n  and\n  mul\n  or\n  swap1\n  sstore\n  pop\n  0x20\n  dup3\n  add\n  mload\n  dup2\n  0x1\n  add\n  sstore\n  swap1\n  pop\n  pop\n    /* \"Solidity_Data_Types/Structures.sol\":323:371  HighestBidder( { addr: msg.sender, amount: 0 } ) */\n  0x40\n  dup1\n  mload\n  swap1\n  dup2\n  add\n  0x40\n  mstore\n  dup1\n    /* \"Solidity_Data_Types/Structures.sol\":346:356  msg.sender */\n  caller\n    /* \"Solidity_Data_Types/Structures.sol\":323:371  HighestBidder( { addr: msg.sender, amount: 0 } ) */\n  0xffffffffffffffffffffffffffffffffffffffff\n  and\n  dup2\n  mstore\n  0x20\n  add\n    /* \"Solidity_Data_Types/Structures.sol\":366:367  0 */\n  0x0\n    /* \"Solidity_Data_Types/Structures.sol\":323:371  HighestBidder( { addr: msg.sender, amount: 0 } ) */\n  dup2\n  mstore\n  pop\n    /* \"Solidity_Data_Types/Structures.sol\":307:320  highestBidder */\n  0x0\n    /* \"Solidity_Data_Types/Structures.sol\":307:371  highestBidder = HighestBidder( { addr: msg.sender, amount: 0 } ) */\n  dup1\n  dup3\n  add\n  mload\n  dup2\n  0x0\n  add\n  exp(0x100, 0x0)\n  dup2\n  sload\n  dup2\n  0xffffffffffffffffffffffffffffffffffffffff\n  mul\n  not\n  and\n  swap1\n  dup4\n  0xffffffffffffffffffffffffffffffffffffffff\n  and\n  mul\n  or\n  swap1\n  sstore\n  pop\n  0x20\n  dup3\n  add\n  mload\n  dup2\n  0x1\n  add\n  sstore\n  swap1\n  pop\n  pop\n    /* \"Solidity_Data_Types/Structures.sol\":417:427  msg.sender */\n  caller\n    /* \"Solidity_Data_Types/Structures.sol\":396:409  highestBidder */\n  0x0\n    /* \"Solidity_Data_Types/Structures.sol\":396:414  highestBidder.addr */\n  dup1\n  add\n  0x0\n    /* \"Solidity_Data_Types/Structures.sol\":396:427  highestBidder.addr = msg.sender */\n  0x100\n  exp\n  dup2\n  sload\n  dup2\n  0xffffffffffffffffffffffffffffffffffffffff\n  mul\n  not\n  and\n  swap1\n  dup4\n  0xffffffffffffffffffffffffffffffffffffffff\n  and\n  mul\n  or\n  swap1\n  sstore\n  pop\n    /* \"Solidity_Data_Types/Structures.sol\":461:462  0 */\n  0x0\n    /* \"Solidity_Data_Types/Structures.sol\":438:451  highestBidder */\n  dup1\n    /* \"Solidity_Data_Types/Structures.sol\":438:458  highestBidder.amount */\n  0x1\n  add\n    /* \"Solidity_Data_Types/Structures.sol\":438:462  highestBidder.amount = 0 */\n  dup2\n  swap1\n  sstore\n  pop\n    /* \"Solidity_Data_Types/Structures.sol\":27:660  contract Structures {\r... */\n  dataSize(sub_0)\n  dup1\n  dataOffset(sub_0)\n  0x0\n  codecopy\n  0x0\n  return\nstop\n\nsub_0: assembly {\n        /* \"Solidity_Data_Types/Structures.sol\":27:660  contract Structures {\r... */\n      mstore(0x40, 0x80)\n      jumpi(tag_1, lt(calldatasize, 0x4))\n      calldataload(0x0)\n      0x100000000000000000000000000000000000000000000000000000000\n      swap1\n      div\n      0xffffffff\n      and\n      dup1\n      0x1998aeef\n      eq\n      tag_2\n      jumpi\n      dup1\n      0x91f90157\n      eq\n      tag_3\n      jumpi\n    tag_1:\n      0x0\n      dup1\n      revert\n        /* \"Solidity_Data_Types/Structures.sol\":480:657  function bid() public payable {\r... */\n    tag_2:\n      tag_4\n      jump(tag_5)\n    tag_4:\n      stop\n        /* \"Solidity_Data_Types/Structures.sol\":140:174  HighestBidder public highestBidder */\n    tag_3:\n      callvalue\n        /* \"--CODEGEN--\":8:17   */\n      dup1\n        /* \"--CODEGEN--\":5:7   */\n      iszero\n      tag_6\n      jumpi\n        /* \"--CODEGEN--\":30:31   */\n      0x0\n        /* \"--CODEGEN--\":27:28   */\n      dup1\n        /* \"--CODEGEN--\":20:32   */\n      revert\n        /* \"--CODEGEN--\":5:7   */\n    tag_6:\n        /* \"Solidity_Data_Types/Structures.sol\":140:174  HighestBidder public highestBidder */\n      pop\n      tag_7\n      jump(tag_8)\n    tag_7:\n      mload(0x40)\n      dup1\n      dup4\n      0xffffffffffffffffffffffffffffffffffffffff\n      and\n      0xffffffffffffffffffffffffffffffffffffffff\n      and\n      dup2\n      mstore\n      0x20\n      add\n      dup3\n      dup2\n      mstore\n      0x20\n      add\n      swap3\n      pop\n      pop\n      pop\n      mload(0x40)\n      dup1\n      swap2\n      sub\n      swap1\n      return\n        /* \"Solidity_Data_Types/Structures.sol\":480:657  function bid() public payable {\r... */\n    tag_5:\n        /* \"Solidity_Data_Types/Structures.sol\":538:551  highestBidder */\n      0x0\n        /* \"Solidity_Data_Types/Structures.sol\":538:558  highestBidder.amount */\n      0x1\n      add\n      sload\n        /* \"Solidity_Data_Types/Structures.sol\":526:535  msg.value */\n      callvalue\n        /* \"Solidity_Data_Types/Structures.sol\":526:558  msg.value > highestBidder.amount */\n      gt\n        /* \"Solidity_Data_Types/Structures.sol\":523:650  if(msg.value > highestBidder.amount){\r... */\n      iszero\n      tag_10\n      jumpi\n        /* \"Solidity_Data_Types/Structures.sol\":602:638  HighestBidder(msg.sender, msg.value) */\n      0x40\n      dup1\n      mload\n      swap1\n      dup2\n      add\n      0x40\n      mstore\n      dup1\n        /* \"Solidity_Data_Types/Structures.sol\":616:626  msg.sender */\n      caller\n        /* \"Solidity_Data_Types/Structures.sol\":602:638  HighestBidder(msg.sender, msg.value) */\n      0xffffffffffffffffffffffffffffffffffffffff\n      and\n      dup2\n      mstore\n      0x20\n      add\n        /* \"Solidity_Data_Types/Structures.sol\":628:637  msg.value */\n      callvalue\n        /* \"Solidity_Data_Types/Structures.sol\":602:638  HighestBidder(msg.sender, msg.value) */\n      dup2\n      mstore\n      pop\n        /* \"Solidity_Data_Types/Structures.sol\":586:599  highestBidder */\n      0x0\n        /* \"Solidity_Data_Types/Structures.sol\":586:638  highestBidder = HighestBidder(msg.sender, msg.value) */\n      dup1\n      dup3\n      add\n      mload\n      dup2\n      0x0\n      add\n      exp(0x100, 0x0)\n      dup2\n      sload\n      dup2\n      0xffffffffffffffffffffffffffffffffffffffff\n      mul\n      not\n      and\n      swap1\n      dup4\n      0xffffffffffffffffffffffffffffffffffffffff\n      and\n      mul\n      or\n      swap1\n      sstore\n      pop\n      0x20\n      dup3\n      add\n      mload\n      dup2\n      0x1\n      add\n      sstore\n      swap1\n      pop\n      pop\n        /* \"Solidity_Data_Types/Structures.sol\":523:650  if(msg.value > highestBidder.amount){\r... */\n    tag_10:\n        /* \"Solidity_Data_Types/Structures.sol\":480:657  function bid() public payable {\r... */\n      jump\t// out\n        /* \"Solidity_Data_Types/Structures.sol\":140:174  HighestBidder public highestBidder */\n    tag_8:\n      0x0\n      dup1\n      0x0\n      add\n      0x0\n      swap1\n      sload\n      swap1\n      0x100\n      exp\n      swap1\n      div\n      0xffffffffffffffffffffffffffffffffffffffff\n      and\n      swap1\n      dup1\n      0x1\n      add\n      sload\n      swap1\n      pop\n      dup3\n      jump\t// out\n\n    auxdata: 0xa165627a7a72305820dfe4fc00657812070c2ddd07ad7162cd9909532656b539e9543ac256a6dd6a470029\n}\n",
				"bytecode": {
					"linkReferences": {},
					"object": "608060405234801561001057600080fd5b5060408051908101604052803373ffffffffffffffffffffffffffffffffffffffff16815260200160008152506000808201518160000160006101000a81548173ffffffffffffffffffffffffffffffffffffffff021916908373ffffffffffffffffffffffffffffffffffffffff1602179055506020820151816001015590505060408051908101604052803373ffffffffffffffffffffffffffffffffffffffff16815260200160008152506000808201518160000160006101000a81548173ffffffffffffffffffffffffffffffffffffffff021916908373ffffffffffffffffffffffffffffffffffffffff16021790555060208201518160010155905050336000800160006101000a81548173ffffffffffffffffffffffffffffffffffffffff021916908373ffffffffffffffffffffffffffffffffffffffff160217905550600080600101819055506101a78061016f6000396000f30060806040526004361061004c576000357c0100000000000000000000000000000000000000000000000000000000900463ffffffff1680631998aeef1461005157806391f901571461005b575b600080fd5b6100596100b9565b005b34801561006757600080fd5b50610070610149565b604051808373ffffffffffffffffffffffffffffffffffffffff1673ffffffffffffffffffffffffffffffffffffffff1681526020018281526020019250505060405180910390f35b6000600101543411156101475760408051908101604052803373ffffffffffffffffffffffffffffffffffffffff168152602001348152506000808201518160000160006101000a81548173ffffffffffffffffffffffffffffffffffffffff021916908373ffffffffffffffffffffffffffffffffffffffff160217905550602082015181600101559050505b565b60008060000160009054906101000a900473ffffffffffffffffffffffffffffffffffffffff169080600101549050825600a165627a7a72305820dfe4fc00657812070c2ddd07ad7162cd9909532656b539e9543ac256a6dd6a470029",
					"opcodes": "PUSH1 0x80 PUSH1 0x40 MSTORE CALLVALUE DUP1 ISZERO PUSH2 0x10 JUMPI PUSH1 0x0 DUP1 REVERT JUMPDEST POP PUSH1 0x40 DUP1 MLOAD SWAP1 DUP2 ADD PUSH1 0x40 MSTORE DUP1 CALLER PUSH20 0xFFFFFFFFFFFFFFFFFFFFFFFFFFFFFFFFFFFFFFFF AND DUP2 MSTORE PUSH1 0x20 ADD PUSH1 0x0 DUP2 MSTORE POP PUSH1 0x0 DUP1 DUP3 ADD MLOAD DUP2 PUSH1 0x0 ADD PUSH1 0x0 PUSH2 0x100 EXP DUP2 SLOAD DUP2 PUSH20 0xFFFFFFFFFFFFFFFFFFFFFFFFFFFFFFFFFFFFFFFF MUL NOT AND SWAP1 DUP4 PUSH20 0xFFFFFFFFFFFFFFFFFFFFFFFFFFFFFFFFFFFFFFFF AND MUL OR SWAP1 SSTORE POP PUSH1 0x20 DUP3 ADD MLOAD DUP2 PUSH1 0x1 ADD SSTORE SWAP1 POP POP PUSH1 0x40 DUP1 MLOAD SWAP1 DUP2 ADD PUSH1 0x40 MSTORE DUP1 CALLER PUSH20 0xFFFFFFFFFFFFFFFFFFFFFFFFFFFFFFFFFFFFFFFF AND DUP2 MSTORE PUSH1 0x20 ADD PUSH1 0x0 DUP2 MSTORE POP PUSH1 0x0 DUP1 DUP3 ADD MLOAD DUP2 PUSH1 0x0 ADD PUSH1 0x0 PUSH2 0x100 EXP DUP2 SLOAD DUP2 PUSH20 0xFFFFFFFFFFFFFFFFFFFFFFFFFFFFFFFFFFFFFFFF MUL NOT AND SWAP1 DUP4 PUSH20 0xFFFFFFFFFFFFFFFFFFFFFFFFFFFFFFFFFFFFFFFF AND MUL OR SWAP1 SSTORE POP PUSH1 0x20 DUP3 ADD MLOAD DUP2 PUSH1 0x1 ADD SSTORE SWAP1 POP POP CALLER PUSH1 0x0 DUP1 ADD PUSH1 0x0 PUSH2 0x100 EXP DUP2 SLOAD DUP2 PUSH20 0xFFFFFFFFFFFFFFFFFFFFFFFFFFFFFFFFFFFFFFFF MUL NOT AND SWAP1 DUP4 PUSH20 0xFFFFFFFFFFFFFFFFFFFFFFFFFFFFFFFFFFFFFFFF AND MUL OR SWAP1 SSTORE POP PUSH1 0x0 DUP1 PUSH1 0x1 ADD DUP2 SWAP1 SSTORE POP PUSH2 0x1A7 DUP1 PUSH2 0x16F PUSH1 0x0 CODECOPY PUSH1 0x0 RETURN STOP PUSH1 0x80 PUSH1 0x40 MSTORE PUSH1 0x4 CALLDATASIZE LT PUSH2 0x4C JUMPI PUSH1 0x0 CALLDATALOAD PUSH29 0x100000000000000000000000000000000000000000000000000000000 SWAP1 DIV PUSH4 0xFFFFFFFF AND DUP1 PUSH4 0x1998AEEF EQ PUSH2 0x51 JUMPI DUP1 PUSH4 0x91F90157 EQ PUSH2 0x5B JUMPI JUMPDEST PUSH1 0x0 DUP1 REVERT JUMPDEST PUSH2 0x59 PUSH2 0xB9 JUMP JUMPDEST STOP JUMPDEST CALLVALUE DUP1 ISZERO PUSH2 0x67 JUMPI PUSH1 0x0 DUP1 REVERT JUMPDEST POP PUSH2 0x70 PUSH2 0x149 JUMP JUMPDEST PUSH1 0x40 MLOAD DUP1 DUP4 PUSH20 0xFFFFFFFFFFFFFFFFFFFFFFFFFFFFFFFFFFFFFFFF AND PUSH20 0xFFFFFFFFFFFFFFFFFFFFFFFFFFFFFFFFFFFFFFFF AND DUP2 MSTORE PUSH1 0x20 ADD DUP3 DUP2 MSTORE PUSH1 0x20 ADD SWAP3 POP POP POP PUSH1 0x40 MLOAD DUP1 SWAP2 SUB SWAP1 RETURN JUMPDEST PUSH1 0x0 PUSH1 0x1 ADD SLOAD CALLVALUE GT ISZERO PUSH2 0x147 JUMPI PUSH1 0x40 DUP1 MLOAD SWAP1 DUP2 ADD PUSH1 0x40 MSTORE DUP1 CALLER PUSH20 0xFFFFFFFFFFFFFFFFFFFFFFFFFFFFFFFFFFFFFFFF AND DUP2 MSTORE PUSH1 0x20 ADD CALLVALUE DUP2 MSTORE POP PUSH1 0x0 DUP1 DUP3 ADD MLOAD DUP2 PUSH1 0x0 ADD PUSH1 0x0 PUSH2 0x100 EXP DUP2 SLOAD DUP2 PUSH20 0xFFFFFFFFFFFFFFFFFFFFFFFFFFFFFFFFFFFFFFFF MUL NOT AND SWAP1 DUP4 PUSH20 0xFFFFFFFFFFFFFFFFFFFFFFFFFFFFFFFFFFFFFFFF AND MUL OR SWAP1 SSTORE POP PUSH1 0x20 DUP3 ADD MLOAD DUP2 PUSH1 0x1 ADD SSTORE SWAP1 POP POP JUMPDEST JUMP JUMPDEST PUSH1 0x0 DUP1 PUSH1 0x0 ADD PUSH1 0x0 SWAP1 SLOAD SWAP1 PUSH2 0x100 EXP SWAP1 DIV PUSH20 0xFFFFFFFFFFFFFFFFFFFFFFFFFFFFFFFFFFFFFFFF AND SWAP1 DUP1 PUSH1 0x1 ADD SLOAD SWAP1 POP DUP3 JUMP STOP LOG1 PUSH6 0x627A7A723058 KECCAK256 0xdf 0xe4 0xfc STOP PUSH6 0x7812070C2DDD SMOD 0xad PUSH18 0x62CD9909532656B539E9543AC256A6DD6A47 STOP 0x29 "
				},
				"gasEstimates": {
					"creation": {
						"codeDepositCost": "84600",
						"executionCost": "76169",
						"totalCost": "160769"
					},
					"external": {
						"bid()": "40719",
						"highestBidder()": "710"
					}
				},
				"methodIdentifiers": {
					"bid()": "1998aeef",
					"highestBidder()": "91f90157"
				}
			},
			"userdoc": {
				"methods": {}
			}
		}
	}
}