{
	"Basics_of_contracts/Auction.sol": {
		"Auction": {
			"abi": [
				{
					"constant": true,
					"inputs": [],
					"name": "endBlock",
					"outputs": [
						{
							"name": "",
							"type": "uint256"
						}
					],
					"payable": false,
					"stateMutability": "view",
					"type": "function"
				},
				{
					"constant": false,
					"inputs": [],
					"name": "withdraw",
					"outputs": [],
					"payable": false,
					"stateMutability": "nonpayable",
					"type": "function"
				},
				{
					"constant": true,
					"inputs": [],
					"name": "canceled",
					"outputs": [
						{
							"name": "",
							"type": "bool"
						}
					],
					"payable": false,
					"stateMutability": "view",
					"type": "function"
				},
				{
					"constant": true,
					"inputs": [],
					"name": "startBlock",
					"outputs": [
						{
							"name": "",
							"type": "uint256"
						}
					],
					"payable": false,
					"stateMutability": "view",
					"type": "function"
				},
				{
					"constant": true,
					"inputs": [],
					"name": "owner",
					"outputs": [
						{
							"name": "",
							"type": "address"
						}
					],
					"payable": false,
					"stateMutability": "view",
					"type": "function"
				},
				{
					"constant": true,
					"inputs": [],
					"name": "highestBidder",
					"outputs": [
						{
							"name": "",
							"type": "address"
						}
					],
					"payable": false,
					"stateMutability": "view",
					"type": "function"
				},
				{
					"constant": false,
					"inputs": [],
					"name": "cancelAction",
					"outputs": [],
					"payable": false,
					"stateMutability": "nonpayable",
					"type": "function"
				},
				{
					"constant": true,
					"inputs": [
						{
							"name": "",
							"type": "address"
						}
					],
					"name": "fundsByBidder",
					"outputs": [
						{
							"name": "",
							"type": "uint256"
						}
					],
					"payable": false,
					"stateMutability": "view",
					"type": "function"
				},
				{
					"constant": false,
					"inputs": [],
					"name": "placeBid",
					"outputs": [],
					"payable": true,
					"stateMutability": "payable",
					"type": "function"
				},
				{
					"inputs": [
						{
							"name": "_startBlock",
							"type": "uint256"
						},
						{
							"name": "_endBlock",
							"type": "uint256"
						}
					],
					"payable": false,
					"stateMutability": "nonpayable",
					"type": "constructor"
				},
				{
					"anonymous": false,
					"inputs": [
						{
							"indexed": false,
							"name": "bidder",
							"type": "address"
						},
						{
							"indexed": false,
							"name": "bid",
							"type": "uint256"
						},
						{
							"indexed": false,
							"name": "highestBidder",
							"type": "address"
						},
						{
							"indexed": false,
							"name": "highestBid",
							"type": "uint256"
						}
					],
					"name": "logBid",
					"type": "event"
				},
				{
					"anonymous": false,
					"inputs": [
						{
							"indexed": false,
							"name": "withdrawer",
							"type": "address"
						},
						{
							"indexed": false,
							"name": "withdrawalAccount",
							"type": "address"
						},
						{
							"indexed": false,
							"name": "amount",
							"type": "uint256"
						}
					],
					"name": "logWithdraw",
					"type": "event"
				},
				{
					"anonymous": false,
					"inputs": [],
					"name": "logCancelled",
					"type": "event"
				}
			],
			"devdoc": {
				"methods": {}
			},
			"evm": {
				"assembly": "    /* \"Basics_of_contracts/Auction.sol\":27:2925  contract Auction {\r... */\n  mstore(0x40, 0x80)\n    /* \"Basics_of_contracts/Auction.sol\":267:513  constructor(uint _startBlock, uint _endBlock) public {\r... */\n  callvalue\n    /* \"--CODEGEN--\":8:17   */\n  dup1\n    /* \"--CODEGEN--\":5:7   */\n  iszero\n  tag_1\n  jumpi\n    /* \"--CODEGEN--\":30:31   */\n  0x0\n    /* \"--CODEGEN--\":27:28   */\n  dup1\n    /* \"--CODEGEN--\":20:32   */\n  revert\n    /* \"--CODEGEN--\":5:7   */\ntag_1:\n    /* \"Basics_of_contracts/Auction.sol\":267:513  constructor(uint _startBlock, uint _endBlock) public {\r... */\n  pop\n  mload(0x40)\n  0x40\n  dup1\n  bytecodeSize\n  dup4\n  codecopy\n  dup2\n  add\n  dup1\n  0x40\n  mstore\n  dup2\n  add\n  swap1\n  dup1\n  dup1\n  mload\n  swap1\n  0x20\n  add\n  swap1\n  swap3\n  swap2\n  swap1\n  dup1\n  mload\n  swap1\n  0x20\n  add\n  swap1\n  swap3\n  swap2\n  swap1\n  pop\n  pop\n  pop\n    /* \"Basics_of_contracts/Auction.sol\":355:363  endBlock */\n  sload(0x2)\n    /* \"Basics_of_contracts/Auction.sol\":340:351  _startBlock */\n  dup3\n    /* \"Basics_of_contracts/Auction.sol\":340:363  _startBlock <= endBlock */\n  gt\n  iszero\n    /* \"Basics_of_contracts/Auction.sol\":332:364  require(_startBlock <= endBlock) */\n  iszero\n  iszero\n  tag_4\n  jumpi\n  0x0\n  dup1\n  revert\ntag_4:\n    /* \"Basics_of_contracts/Auction.sol\":396:408  block.number */\n  number\n    /* \"Basics_of_contracts/Auction.sol\":382:393  _startBlock */\n  dup3\n    /* \"Basics_of_contracts/Auction.sol\":382:408  _startBlock > block.number */\n  gt\n    /* \"Basics_of_contracts/Auction.sol\":374:409  require(_startBlock > block.number) */\n  iszero\n  iszero\n  tag_5\n  jumpi\n  0x0\n  dup1\n  revert\ntag_5:\n    /* \"Basics_of_contracts/Auction.sol\":429:439  msg.sender */\n  caller\n    /* \"Basics_of_contracts/Auction.sol\":421:426  owner */\n  0x0\n  dup1\n    /* \"Basics_of_contracts/Auction.sol\":421:439  owner = msg.sender */\n  0x100\n  exp\n  dup2\n  sload\n  dup2\n  0xffffffffffffffffffffffffffffffffffffffff\n  mul\n  not\n  and\n  swap1\n  dup4\n  0xffffffffffffffffffffffffffffffffffffffff\n  and\n  mul\n  or\n  swap1\n  sstore\n  pop\n    /* \"Basics_of_contracts/Auction.sol\":462:473  _startBlock */\n  dup2\n    /* \"Basics_of_contracts/Auction.sol\":449:459  startBlock */\n  0x1\n    /* \"Basics_of_contracts/Auction.sol\":449:473  startBlock = _startBlock */\n  dup2\n  swap1\n  sstore\n  pop\n    /* \"Basics_of_contracts/Auction.sol\":494:503  _endBlock */\n  dup1\n    /* \"Basics_of_contracts/Auction.sol\":483:491  endBlock */\n  0x2\n    /* \"Basics_of_contracts/Auction.sol\":483:503  endBlock = _endBlock */\n  dup2\n  swap1\n  sstore\n  pop\n    /* \"Basics_of_contracts/Auction.sol\":267:513  constructor(uint _startBlock, uint _endBlock) public {\r... */\n  pop\n  pop\n    /* \"Basics_of_contracts/Auction.sol\":27:2925  contract Auction {\r... */\n  dataSize(sub_0)\n  dup1\n  dataOffset(sub_0)\n  0x0\n  codecopy\n  0x0\n  return\nstop\n\nsub_0: assembly {\n        /* \"Basics_of_contracts/Auction.sol\":27:2925  contract Auction {\r... */\n      mstore(0x40, 0x80)\n      jumpi(tag_1, lt(calldatasize, 0x4))\n      calldataload(0x0)\n      0x100000000000000000000000000000000000000000000000000000000\n      swap1\n      div\n      0xffffffff\n      and\n      dup1\n      0x83c6323\n      eq\n      tag_2\n      jumpi\n      dup1\n      0x3ccfd60b\n      eq\n      tag_3\n      jumpi\n      dup1\n      0x3f9942ff\n      eq\n      tag_4\n      jumpi\n      dup1\n      0x48cd4cb1\n      eq\n      tag_5\n      jumpi\n      dup1\n      0x8da5cb5b\n      eq\n      tag_6\n      jumpi\n      dup1\n      0x91f90157\n      eq\n      tag_7\n      jumpi\n      dup1\n      0xbc5805e6\n      eq\n      tag_8\n      jumpi\n      dup1\n      0xce10cf80\n      eq\n      tag_9\n      jumpi\n      dup1\n      0xecfc7ecc\n      eq\n      tag_10\n      jumpi\n    tag_1:\n      0x0\n      dup1\n      revert\n        /* \"Basics_of_contracts/Auction.sol\":113:133  uint public endBlock */\n    tag_2:\n      callvalue\n        /* \"--CODEGEN--\":8:17   */\n      dup1\n        /* \"--CODEGEN--\":5:7   */\n      iszero\n      tag_11\n      jumpi\n        /* \"--CODEGEN--\":30:31   */\n      0x0\n        /* \"--CODEGEN--\":27:28   */\n      dup1\n        /* \"--CODEGEN--\":20:32   */\n      revert\n        /* \"--CODEGEN--\":5:7   */\n    tag_11:\n        /* \"Basics_of_contracts/Auction.sol\":113:133  uint public endBlock */\n      pop\n      tag_12\n      jump(tag_13)\n    tag_12:\n      mload(0x40)\n      dup1\n      dup3\n      dup2\n      mstore\n      0x20\n      add\n      swap2\n      pop\n      pop\n      mload(0x40)\n      dup1\n      swap2\n      sub\n      swap1\n      return\n        /* \"Basics_of_contracts/Auction.sol\":1785:2548  function withdraw() public onlyEndedOrCanceled {\r... */\n    tag_3:\n      callvalue\n        /* \"--CODEGEN--\":8:17   */\n      dup1\n        /* \"--CODEGEN--\":5:7   */\n      iszero\n      tag_14\n      jumpi\n        /* \"--CODEGEN--\":30:31   */\n      0x0\n        /* \"--CODEGEN--\":27:28   */\n      dup1\n        /* \"--CODEGEN--\":20:32   */\n      revert\n        /* \"--CODEGEN--\":5:7   */\n    tag_14:\n        /* \"Basics_of_contracts/Auction.sol\":1785:2548  function withdraw() public onlyEndedOrCanceled {\r... */\n      pop\n      tag_15\n      jump(tag_16)\n    tag_15:\n      stop\n        /* \"Basics_of_contracts/Auction.sol\":142:162  bool public canceled */\n    tag_4:\n      callvalue\n        /* \"--CODEGEN--\":8:17   */\n      dup1\n        /* \"--CODEGEN--\":5:7   */\n      iszero\n      tag_17\n      jumpi\n        /* \"--CODEGEN--\":30:31   */\n      0x0\n        /* \"--CODEGEN--\":27:28   */\n      dup1\n        /* \"--CODEGEN--\":20:32   */\n      revert\n        /* \"--CODEGEN--\":5:7   */\n    tag_17:\n        /* \"Basics_of_contracts/Auction.sol\":142:162  bool public canceled */\n      pop\n      tag_18\n      jump(tag_19)\n    tag_18:\n      mload(0x40)\n      dup1\n      dup3\n      iszero\n      iszero\n      iszero\n      iszero\n      dup2\n      mstore\n      0x20\n      add\n      swap2\n      pop\n      pop\n      mload(0x40)\n      dup1\n      swap2\n      sub\n      swap1\n      return\n        /* \"Basics_of_contracts/Auction.sol\":82:104  uint public startBlock */\n    tag_5:\n      callvalue\n        /* \"--CODEGEN--\":8:17   */\n      dup1\n        /* \"--CODEGEN--\":5:7   */\n      iszero\n      tag_20\n      jumpi\n        /* \"--CODEGEN--\":30:31   */\n      0x0\n        /* \"--CODEGEN--\":27:28   */\n      dup1\n        /* \"--CODEGEN--\":20:32   */\n      revert\n        /* \"--CODEGEN--\":5:7   */\n    tag_20:\n        /* \"Basics_of_contracts/Auction.sol\":82:104  uint public startBlock */\n      pop\n      tag_21\n      jump(tag_22)\n    tag_21:\n      mload(0x40)\n      dup1\n      dup3\n      dup2\n      mstore\n      0x20\n      add\n      swap2\n      pop\n      pop\n      mload(0x40)\n      dup1\n      swap2\n      sub\n      swap1\n      return\n        /* \"Basics_of_contracts/Auction.sol\":53:73  address public owner */\n    tag_6:\n      callvalue\n        /* \"--CODEGEN--\":8:17   */\n      dup1\n        /* \"--CODEGEN--\":5:7   */\n      iszero\n      tag_23\n      jumpi\n        /* \"--CODEGEN--\":30:31   */\n      0x0\n        /* \"--CODEGEN--\":27:28   */\n      dup1\n        /* \"--CODEGEN--\":20:32   */\n      revert\n        /* \"--CODEGEN--\":5:7   */\n    tag_23:\n        /* \"Basics_of_contracts/Auction.sol\":53:73  address public owner */\n      pop\n      tag_24\n      jump(tag_25)\n    tag_24:\n      mload(0x40)\n      dup1\n      dup3\n      0xffffffffffffffffffffffffffffffffffffffff\n      and\n      0xffffffffffffffffffffffffffffffffffffffff\n      and\n      dup2\n      mstore\n      0x20\n      add\n      swap2\n      pop\n      pop\n      mload(0x40)\n      dup1\n      swap2\n      sub\n      swap1\n      return\n        /* \"Basics_of_contracts/Auction.sol\":171:199  address public highestBidder */\n    tag_7:\n      callvalue\n        /* \"--CODEGEN--\":8:17   */\n      dup1\n        /* \"--CODEGEN--\":5:7   */\n      iszero\n      tag_26\n      jumpi\n        /* \"--CODEGEN--\":30:31   */\n      0x0\n        /* \"--CODEGEN--\":27:28   */\n      dup1\n        /* \"--CODEGEN--\":20:32   */\n      revert\n        /* \"--CODEGEN--\":5:7   */\n    tag_26:\n        /* \"Basics_of_contracts/Auction.sol\":171:199  address public highestBidder */\n      pop\n      tag_27\n      jump(tag_28)\n    tag_27:\n      mload(0x40)\n      dup1\n      dup3\n      0xffffffffffffffffffffffffffffffffffffffff\n      and\n      0xffffffffffffffffffffffffffffffffffffffff\n      and\n      dup2\n      mstore\n      0x20\n      add\n      swap2\n      pop\n      pop\n      mload(0x40)\n      dup1\n      swap2\n      sub\n      swap1\n      return\n        /* \"Basics_of_contracts/Auction.sol\":2556:2718  function cancelAction() \r... */\n    tag_8:\n      callvalue\n        /* \"--CODEGEN--\":8:17   */\n      dup1\n        /* \"--CODEGEN--\":5:7   */\n      iszero\n      tag_29\n      jumpi\n        /* \"--CODEGEN--\":30:31   */\n      0x0\n        /* \"--CODEGEN--\":27:28   */\n      dup1\n        /* \"--CODEGEN--\":20:32   */\n      revert\n        /* \"--CODEGEN--\":5:7   */\n    tag_29:\n        /* \"Basics_of_contracts/Auction.sol\":2556:2718  function cancelAction() \r... */\n      pop\n      tag_30\n      jump(tag_31)\n    tag_30:\n      stop\n        /* \"Basics_of_contracts/Auction.sol\":208:256  mapping(address => uint256) public fundsByBidder */\n    tag_9:\n      callvalue\n        /* \"--CODEGEN--\":8:17   */\n      dup1\n        /* \"--CODEGEN--\":5:7   */\n      iszero\n      tag_32\n      jumpi\n        /* \"--CODEGEN--\":30:31   */\n      0x0\n        /* \"--CODEGEN--\":27:28   */\n      dup1\n        /* \"--CODEGEN--\":20:32   */\n      revert\n        /* \"--CODEGEN--\":5:7   */\n    tag_32:\n        /* \"Basics_of_contracts/Auction.sol\":208:256  mapping(address => uint256) public fundsByBidder */\n      pop\n      tag_33\n      0x4\n      dup1\n      calldatasize\n      sub\n      dup2\n      add\n      swap1\n      dup1\n      dup1\n      calldataload\n      0xffffffffffffffffffffffffffffffffffffffff\n      and\n      swap1\n      0x20\n      add\n      swap1\n      swap3\n      swap2\n      swap1\n      pop\n      pop\n      pop\n      jump(tag_34)\n    tag_33:\n      mload(0x40)\n      dup1\n      dup3\n      dup2\n      mstore\n      0x20\n      add\n      swap2\n      pop\n      pop\n      mload(0x40)\n      dup1\n      swap2\n      sub\n      swap1\n      return\n        /* \"Basics_of_contracts/Auction.sol\":1274:1777  function placeBid() \r... */\n    tag_10:\n      tag_35\n      jump(tag_36)\n    tag_35:\n      stop\n        /* \"Basics_of_contracts/Auction.sol\":113:133  uint public endBlock */\n    tag_13:\n      sload(0x2)\n      dup2\n      jump\t// out\n        /* \"Basics_of_contracts/Auction.sol\":1785:2548  function withdraw() public onlyEndedOrCanceled {\r... */\n    tag_16:\n        /* \"Basics_of_contracts/Auction.sol\":1844:1869  address withdrawalAccount */\n      0x0\n        /* \"Basics_of_contracts/Auction.sol\":1881:1902  uint withdrawalAmount */\n      dup1\n        /* \"Basics_of_contracts/Auction.sol\":1211:1215  true */\n      0x1\n        /* \"Basics_of_contracts/Auction.sol\":1199:1215  canceled == true */\n      iszero\n      iszero\n        /* \"Basics_of_contracts/Auction.sol\":1199:1207  canceled */\n      0x3\n      0x0\n      swap1\n      sload\n      swap1\n      0x100\n      exp\n      swap1\n      div\n      0xff\n      and\n        /* \"Basics_of_contracts/Auction.sol\":1199:1215  canceled == true */\n      iszero\n      iszero\n      eq\n        /* \"Basics_of_contracts/Auction.sol\":1198:1245  (canceled == true) || (block.number > endBlock) */\n      dup1\n      tag_38\n      jumpi\n      pop\n        /* \"Basics_of_contracts/Auction.sol\":1236:1244  endBlock */\n      sload(0x2)\n        /* \"Basics_of_contracts/Auction.sol\":1221:1233  block.number */\n      number\n        /* \"Basics_of_contracts/Auction.sol\":1221:1244  block.number > endBlock */\n      gt\n        /* \"Basics_of_contracts/Auction.sol\":1198:1245  (canceled == true) || (block.number > endBlock) */\n    tag_38:\n        /* \"Basics_of_contracts/Auction.sol\":1190:1246  require((canceled == true) || (block.number > endBlock)) */\n      iszero\n      iszero\n      tag_39\n      jumpi\n      0x0\n      dup1\n      revert\n    tag_39:\n        /* \"Basics_of_contracts/Auction.sol\":1929:1933  true */\n      0x1\n        /* \"Basics_of_contracts/Auction.sol\":1917:1933  canceled == true */\n      iszero\n      iszero\n        /* \"Basics_of_contracts/Auction.sol\":1917:1925  canceled */\n      0x3\n      0x0\n      swap1\n      sload\n      swap1\n      0x100\n      exp\n      swap1\n      div\n      0xff\n      and\n        /* \"Basics_of_contracts/Auction.sol\":1917:1933  canceled == true */\n      iszero\n      iszero\n      eq\n        /* \"Basics_of_contracts/Auction.sol\":1914:2306  if(canceled == true){\r... */\n      iszero\n      tag_41\n      jumpi\n        /* \"Basics_of_contracts/Auction.sol\":1977:1990  fundsByBidder */\n      0x4\n        /* \"Basics_of_contracts/Auction.sol\":1977:2002  fundsByBidder[msg.sender] */\n      0x0\n        /* \"Basics_of_contracts/Auction.sol\":1991:2001  msg.sender */\n      caller\n        /* \"Basics_of_contracts/Auction.sol\":1977:2002  fundsByBidder[msg.sender] */\n      0xffffffffffffffffffffffffffffffffffffffff\n      and\n      0xffffffffffffffffffffffffffffffffffffffff\n      and\n      dup2\n      mstore\n      0x20\n      add\n      swap1\n      dup2\n      mstore\n      0x20\n      add\n      0x0\n      keccak256\n      sload\n        /* \"Basics_of_contracts/Auction.sol\":1958:2002  withdrawalAmount = fundsByBidder[msg.sender] */\n      swap1\n      pop\n        /* \"Basics_of_contracts/Auction.sol\":1914:2306  if(canceled == true){\r... */\n      jump(tag_42)\n    tag_41:\n        /* \"Basics_of_contracts/Auction.sol\":2063:2076  highestBidder */\n      0x3\n      0x1\n      swap1\n      sload\n      swap1\n      0x100\n      exp\n      swap1\n      div\n      0xffffffffffffffffffffffffffffffffffffffff\n      and\n        /* \"Basics_of_contracts/Auction.sol\":2049:2076  msg.sender != highestBidder */\n      0xffffffffffffffffffffffffffffffffffffffff\n      and\n        /* \"Basics_of_contracts/Auction.sol\":2049:2059  msg.sender */\n      caller\n        /* \"Basics_of_contracts/Auction.sol\":2049:2076  msg.sender != highestBidder */\n      0xffffffffffffffffffffffffffffffffffffffff\n      and\n      eq\n      iszero\n        /* \"Basics_of_contracts/Auction.sol\":2041:2077  require(msg.sender != highestBidder) */\n      iszero\n      iszero\n      tag_43\n      jumpi\n      0x0\n      dup1\n      revert\n    tag_43:\n        /* \"Basics_of_contracts/Auction.sol\":2111:2116  owner */\n      0x0\n      dup1\n      swap1\n      sload\n      swap1\n      0x100\n      exp\n      swap1\n      div\n      0xffffffffffffffffffffffffffffffffffffffff\n      and\n        /* \"Basics_of_contracts/Auction.sol\":2097:2116  msg.sender == owner */\n      0xffffffffffffffffffffffffffffffffffffffff\n      and\n        /* \"Basics_of_contracts/Auction.sol\":2097:2107  msg.sender */\n      caller\n        /* \"Basics_of_contracts/Auction.sol\":2097:2116  msg.sender == owner */\n      0xffffffffffffffffffffffffffffffffffffffff\n      and\n      eq\n        /* \"Basics_of_contracts/Auction.sol\":2094:2292  if(msg.sender == owner){\r... */\n      iszero\n      tag_44\n      jumpi\n        /* \"Basics_of_contracts/Auction.sol\":2168:2181  fundsByBidder */\n      0x4\n        /* \"Basics_of_contracts/Auction.sol\":2168:2196  fundsByBidder[highestBidder] */\n      0x0\n        /* \"Basics_of_contracts/Auction.sol\":2182:2195  highestBidder */\n      0x3\n      0x1\n      swap1\n      sload\n      swap1\n      0x100\n      exp\n      swap1\n      div\n      0xffffffffffffffffffffffffffffffffffffffff\n      and\n        /* \"Basics_of_contracts/Auction.sol\":2168:2196  fundsByBidder[highestBidder] */\n      0xffffffffffffffffffffffffffffffffffffffff\n      and\n      0xffffffffffffffffffffffffffffffffffffffff\n      and\n      dup2\n      mstore\n      0x20\n      add\n      swap1\n      dup2\n      mstore\n      0x20\n      add\n      0x0\n      keccak256\n      sload\n        /* \"Basics_of_contracts/Auction.sol\":2149:2196  withdrawalAmount = fundsByBidder[highestBidder] */\n      swap1\n      pop\n        /* \"Basics_of_contracts/Auction.sol\":2094:2292  if(msg.sender == owner){\r... */\n      jump(tag_45)\n    tag_44:\n        /* \"Basics_of_contracts/Auction.sol\":2253:2266  fundsByBidder */\n      0x4\n        /* \"Basics_of_contracts/Auction.sol\":2253:2278  fundsByBidder[msg.sender] */\n      0x0\n        /* \"Basics_of_contracts/Auction.sol\":2267:2277  msg.sender */\n      caller\n        /* \"Basics_of_contracts/Auction.sol\":2253:2278  fundsByBidder[msg.sender] */\n      0xffffffffffffffffffffffffffffffffffffffff\n      and\n      0xffffffffffffffffffffffffffffffffffffffff\n      and\n      dup2\n      mstore\n      0x20\n      add\n      swap1\n      dup2\n      mstore\n      0x20\n      add\n      0x0\n      keccak256\n      sload\n        /* \"Basics_of_contracts/Auction.sol\":2234:2278  withdrawalAmount = fundsByBidder[msg.sender] */\n      swap1\n      pop\n        /* \"Basics_of_contracts/Auction.sol\":2094:2292  if(msg.sender == owner){\r... */\n    tag_45:\n        /* \"Basics_of_contracts/Auction.sol\":1914:2306  if(canceled == true){\r... */\n    tag_42:\n        /* \"Basics_of_contracts/Auction.sol\":2345:2346  0 */\n      0x0\n        /* \"Basics_of_contracts/Auction.sol\":2326:2342  withdrawalAmount */\n      dup2\n        /* \"Basics_of_contracts/Auction.sol\":2326:2346  withdrawalAmount > 0 */\n      gt\n        /* \"Basics_of_contracts/Auction.sol\":2318:2347  require(withdrawalAmount > 0) */\n      iszero\n      iszero\n      tag_46\n      jumpi\n      0x0\n      dup1\n      revert\n    tag_46:\n        /* \"Basics_of_contracts/Auction.sol\":2396:2412  withdrawalAmount */\n      dup1\n        /* \"Basics_of_contracts/Auction.sol\":2360:2373  fundsByBidder */\n      0x4\n        /* \"Basics_of_contracts/Auction.sol\":2360:2392  fundsByBidder[withdrawalAccount] */\n      0x0\n        /* \"Basics_of_contracts/Auction.sol\":2374:2391  withdrawalAccount */\n      dup5\n        /* \"Basics_of_contracts/Auction.sol\":2360:2392  fundsByBidder[withdrawalAccount] */\n      0xffffffffffffffffffffffffffffffffffffffff\n      and\n      0xffffffffffffffffffffffffffffffffffffffff\n      and\n      dup2\n      mstore\n      0x20\n      add\n      swap1\n      dup2\n      mstore\n      0x20\n      add\n      0x0\n      keccak256\n      0x0\n        /* \"Basics_of_contracts/Auction.sol\":2360:2412  fundsByBidder[withdrawalAccount] -= withdrawalAmount */\n      dup3\n      dup3\n      sload\n      sub\n      swap3\n      pop\n      pop\n      dup2\n      swap1\n      sstore\n      pop\n        /* \"Basics_of_contracts/Auction.sol\":2425:2435  msg.sender */\n      caller\n        /* \"Basics_of_contracts/Auction.sol\":2425:2444  msg.sender.transfer */\n      0xffffffffffffffffffffffffffffffffffffffff\n      and\n        /* \"Basics_of_contracts/Auction.sol\":2425:2462  msg.sender.transfer(withdrawalAmount) */\n      0x8fc\n        /* \"Basics_of_contracts/Auction.sol\":2445:2461  withdrawalAmount */\n      dup3\n        /* \"Basics_of_contracts/Auction.sol\":2425:2462  msg.sender.transfer(withdrawalAmount) */\n      swap1\n      dup2\n      iszero\n      mul\n      swap1\n      mload(0x40)\n      0x0\n      mload(0x40)\n      dup1\n      dup4\n      sub\n      dup2\n      dup6\n      dup9\n      dup9\n      call\n      swap4\n      pop\n      pop\n      pop\n      pop\n      iszero\n        /* \"--CODEGEN--\":8:17   */\n      dup1\n        /* \"--CODEGEN--\":5:7   */\n      iszero\n      tag_47\n      jumpi\n        /* \"--CODEGEN--\":45:61   */\n      returndatasize\n        /* \"--CODEGEN--\":42:43   */\n      0x0\n        /* \"--CODEGEN--\":39:40   */\n      dup1\n        /* \"--CODEGEN--\":24:62   */\n      returndatacopy\n        /* \"--CODEGEN--\":77:93   */\n      returndatasize\n        /* \"--CODEGEN--\":74:75   */\n      0x0\n        /* \"--CODEGEN--\":67:94   */\n      revert\n        /* \"--CODEGEN--\":5:7   */\n    tag_47:\n        /* \"Basics_of_contracts/Auction.sol\":2425:2462  msg.sender.transfer(withdrawalAmount) */\n      pop\n        /* \"Basics_of_contracts/Auction.sol\":2480:2540  logWithdraw(msg.sender, withdrawalAccount, withdrawalAmount) */\n      0xff2320e53c7842b087a6418adc75cc0f0dae5e3614e0a18db2d7e7906b08ec1f\n        /* \"Basics_of_contracts/Auction.sol\":2492:2502  msg.sender */\n      caller\n        /* \"Basics_of_contracts/Auction.sol\":2504:2521  withdrawalAccount */\n      dup4\n        /* \"Basics_of_contracts/Auction.sol\":2523:2539  withdrawalAmount */\n      dup4\n        /* \"Basics_of_contracts/Auction.sol\":2480:2540  logWithdraw(msg.sender, withdrawalAccount, withdrawalAmount) */\n      mload(0x40)\n      dup1\n      dup5\n      0xffffffffffffffffffffffffffffffffffffffff\n      and\n      0xffffffffffffffffffffffffffffffffffffffff\n      and\n      dup2\n      mstore\n      0x20\n      add\n      dup4\n      0xffffffffffffffffffffffffffffffffffffffff\n      and\n      0xffffffffffffffffffffffffffffffffffffffff\n      and\n      dup2\n      mstore\n      0x20\n      add\n      dup3\n      dup2\n      mstore\n      0x20\n      add\n      swap4\n      pop\n      pop\n      pop\n      pop\n      mload(0x40)\n      dup1\n      swap2\n      sub\n      swap1\n      log1\n        /* \"Basics_of_contracts/Auction.sol\":1785:2548  function withdraw() public onlyEndedOrCanceled {\r... */\n      pop\n      pop\n      jump\t// out\n        /* \"Basics_of_contracts/Auction.sol\":142:162  bool public canceled */\n    tag_19:\n      0x3\n      0x0\n      swap1\n      sload\n      swap1\n      0x100\n      exp\n      swap1\n      div\n      0xff\n      and\n      dup2\n      jump\t// out\n        /* \"Basics_of_contracts/Auction.sol\":82:104  uint public startBlock */\n    tag_22:\n      sload(0x1)\n      dup2\n      jump\t// out\n        /* \"Basics_of_contracts/Auction.sol\":53:73  address public owner */\n    tag_25:\n      0x0\n      dup1\n      swap1\n      sload\n      swap1\n      0x100\n      exp\n      swap1\n      div\n      0xffffffffffffffffffffffffffffffffffffffff\n      and\n      dup2\n      jump\t// out\n        /* \"Basics_of_contracts/Auction.sol\":171:199  address public highestBidder */\n    tag_28:\n      0x3\n      0x1\n      swap1\n      sload\n      swap1\n      0x100\n      exp\n      swap1\n      div\n      0xffffffffffffffffffffffffffffffffffffffff\n      and\n      dup2\n      jump\t// out\n        /* \"Basics_of_contracts/Auction.sol\":2556:2718  function cancelAction() \r... */\n    tag_31:\n        /* \"Basics_of_contracts/Auction.sol\":736:741  owner */\n      0x0\n      dup1\n      swap1\n      sload\n      swap1\n      0x100\n      exp\n      swap1\n      div\n      0xffffffffffffffffffffffffffffffffffffffff\n      and\n        /* \"Basics_of_contracts/Auction.sol\":722:741  msg.sender == owner */\n      0xffffffffffffffffffffffffffffffffffffffff\n      and\n        /* \"Basics_of_contracts/Auction.sol\":722:732  msg.sender */\n      caller\n        /* \"Basics_of_contracts/Auction.sol\":722:741  msg.sender == owner */\n      0xffffffffffffffffffffffffffffffffffffffff\n      and\n      eq\n        /* \"Basics_of_contracts/Auction.sol\":714:742  require(msg.sender == owner) */\n      iszero\n      iszero\n      tag_49\n      jumpi\n      0x0\n      dup1\n      revert\n    tag_49:\n        /* \"Basics_of_contracts/Auction.sol\":1019:1027  endBlock */\n      sload(0x2)\n        /* \"Basics_of_contracts/Auction.sol\":1004:1016  block.number */\n      number\n        /* \"Basics_of_contracts/Auction.sol\":1004:1027  block.number < endBlock */\n      lt\n        /* \"Basics_of_contracts/Auction.sol\":996:1028  require(block.number < endBlock) */\n      iszero\n      iszero\n      tag_51\n      jumpi\n      0x0\n      dup1\n      revert\n    tag_51:\n        /* \"Basics_of_contracts/Auction.sol\":1114:1119  false */\n      0x0\n        /* \"Basics_of_contracts/Auction.sol\":1102:1119  canceled == false */\n      iszero\n      iszero\n        /* \"Basics_of_contracts/Auction.sol\":1102:1110  canceled */\n      0x3\n      0x0\n      swap1\n      sload\n      swap1\n      0x100\n      exp\n      swap1\n      div\n      0xff\n      and\n        /* \"Basics_of_contracts/Auction.sol\":1102:1119  canceled == false */\n      iszero\n      iszero\n      eq\n        /* \"Basics_of_contracts/Auction.sol\":1094:1120  require(canceled == false) */\n      iszero\n      iszero\n      tag_53\n      jumpi\n      0x0\n      dup1\n      revert\n    tag_53:\n        /* \"Basics_of_contracts/Auction.sol\":2676:2680  true */\n      0x1\n        /* \"Basics_of_contracts/Auction.sol\":2665:2673  canceled */\n      0x3\n      0x0\n        /* \"Basics_of_contracts/Auction.sol\":2665:2680  canceled = true */\n      0x100\n      exp\n      dup2\n      sload\n      dup2\n      0xff\n      mul\n      not\n      and\n      swap1\n      dup4\n      iszero\n      iszero\n      mul\n      or\n      swap1\n      sstore\n      pop\n        /* \"Basics_of_contracts/Auction.sol\":2696:2710  logCancelled() */\n      0x25672e2e69d402b9ce61f701f1281fa48b680ceb2a2032ad2373f4a16569820f\n      mload(0x40)\n      mload(0x40)\n      dup1\n      swap2\n      sub\n      swap1\n      log1\n        /* \"Basics_of_contracts/Auction.sol\":2556:2718  function cancelAction() \r... */\n      jump\t// out\n        /* \"Basics_of_contracts/Auction.sol\":208:256  mapping(address => uint256) public fundsByBidder */\n    tag_34:\n      mstore(0x20, 0x4)\n      dup1\n      0x0\n      mstore\n      keccak256(0x0, 0x40)\n      0x0\n      swap2\n      pop\n      swap1\n      pop\n      sload\n      dup2\n      jump\t// out\n        /* \"Basics_of_contracts/Auction.sol\":1274:1777  function placeBid() \r... */\n    tag_36:\n        /* \"Basics_of_contracts/Auction.sol\":1454:1465  uint newBid */\n      0x0\n        /* \"Basics_of_contracts/Auction.sol\":1517:1536  uint lastHighestBid */\n      dup1\n        /* \"Basics_of_contracts/Auction.sol\":921:931  startBlock */\n      sload(0x1)\n        /* \"Basics_of_contracts/Auction.sol\":906:918  block.number */\n      number\n        /* \"Basics_of_contracts/Auction.sol\":906:931  block.number > startBlock */\n      gt\n        /* \"Basics_of_contracts/Auction.sol\":898:932  require(block.number > startBlock) */\n      iszero\n      iszero\n      tag_56\n      jumpi\n      0x0\n      dup1\n      revert\n    tag_56:\n        /* \"Basics_of_contracts/Auction.sol\":1019:1027  endBlock */\n      sload(0x2)\n        /* \"Basics_of_contracts/Auction.sol\":1004:1016  block.number */\n      number\n        /* \"Basics_of_contracts/Auction.sol\":1004:1027  block.number < endBlock */\n      lt\n        /* \"Basics_of_contracts/Auction.sol\":996:1028  require(block.number < endBlock) */\n      iszero\n      iszero\n      tag_58\n      jumpi\n      0x0\n      dup1\n      revert\n    tag_58:\n        /* \"Basics_of_contracts/Auction.sol\":1114:1119  false */\n      0x0\n        /* \"Basics_of_contracts/Auction.sol\":1102:1119  canceled == false */\n      iszero\n      iszero\n        /* \"Basics_of_contracts/Auction.sol\":1102:1110  canceled */\n      0x3\n      0x0\n      swap1\n      sload\n      swap1\n      0x100\n      exp\n      swap1\n      div\n      0xff\n      and\n        /* \"Basics_of_contracts/Auction.sol\":1102:1119  canceled == false */\n      iszero\n      iszero\n      eq\n        /* \"Basics_of_contracts/Auction.sol\":1094:1120  require(canceled == false) */\n      iszero\n      iszero\n      tag_60\n      jumpi\n      0x0\n      dup1\n      revert\n    tag_60:\n        /* \"Basics_of_contracts/Auction.sol\":827:832  owner */\n      0x0\n      dup1\n      swap1\n      sload\n      swap1\n      0x100\n      exp\n      swap1\n      div\n      0xffffffffffffffffffffffffffffffffffffffff\n      and\n        /* \"Basics_of_contracts/Auction.sol\":813:832  msg.sender != owner */\n      0xffffffffffffffffffffffffffffffffffffffff\n      and\n        /* \"Basics_of_contracts/Auction.sol\":813:823  msg.sender */\n      caller\n        /* \"Basics_of_contracts/Auction.sol\":813:832  msg.sender != owner */\n      0xffffffffffffffffffffffffffffffffffffffff\n      and\n      eq\n      iszero\n        /* \"Basics_of_contracts/Auction.sol\":805:833  require(msg.sender != owner) */\n      iszero\n      iszero\n      tag_62\n      jumpi\n      0x0\n      dup1\n      revert\n    tag_62:\n        /* \"Basics_of_contracts/Auction.sol\":1440:1441  0 */\n      0x0\n        /* \"Basics_of_contracts/Auction.sol\":1428:1437  msg.value */\n      callvalue\n        /* \"Basics_of_contracts/Auction.sol\":1428:1441  msg.value > 0 */\n      gt\n        /* \"Basics_of_contracts/Auction.sol\":1420:1442  require(msg.value > 0) */\n      iszero\n      iszero\n      tag_64\n      jumpi\n      0x0\n      dup1\n      revert\n    tag_64:\n        /* \"Basics_of_contracts/Auction.sol\":1496:1505  msg.value */\n      callvalue\n        /* \"Basics_of_contracts/Auction.sol\":1468:1481  fundsByBidder */\n      0x4\n        /* \"Basics_of_contracts/Auction.sol\":1468:1493  fundsByBidder[msg.sender] */\n      0x0\n        /* \"Basics_of_contracts/Auction.sol\":1482:1492  msg.sender */\n      caller\n        /* \"Basics_of_contracts/Auction.sol\":1468:1493  fundsByBidder[msg.sender] */\n      0xffffffffffffffffffffffffffffffffffffffff\n      and\n      0xffffffffffffffffffffffffffffffffffffffff\n      and\n      dup2\n      mstore\n      0x20\n      add\n      swap1\n      dup2\n      mstore\n      0x20\n      add\n      0x0\n      keccak256\n      sload\n        /* \"Basics_of_contracts/Auction.sol\":1468:1505  fundsByBidder[msg.sender] + msg.value */\n      add\n        /* \"Basics_of_contracts/Auction.sol\":1454:1505  uint newBid = fundsByBidder[msg.sender] + msg.value */\n      swap2\n      pop\n        /* \"Basics_of_contracts/Auction.sol\":1539:1552  fundsByBidder */\n      0x4\n        /* \"Basics_of_contracts/Auction.sol\":1539:1567  fundsByBidder[highestBidder] */\n      0x0\n        /* \"Basics_of_contracts/Auction.sol\":1553:1566  highestBidder */\n      0x3\n      0x1\n      swap1\n      sload\n      swap1\n      0x100\n      exp\n      swap1\n      div\n      0xffffffffffffffffffffffffffffffffffffffff\n      and\n        /* \"Basics_of_contracts/Auction.sol\":1539:1567  fundsByBidder[highestBidder] */\n      0xffffffffffffffffffffffffffffffffffffffff\n      and\n      0xffffffffffffffffffffffffffffffffffffffff\n      and\n      dup2\n      mstore\n      0x20\n      add\n      swap1\n      dup2\n      mstore\n      0x20\n      add\n      0x0\n      keccak256\n      sload\n        /* \"Basics_of_contracts/Auction.sol\":1517:1567  uint lastHighestBid = fundsByBidder[highestBidder] */\n      swap1\n      pop\n        /* \"Basics_of_contracts/Auction.sol\":1596:1610  lastHighestBid */\n      dup1\n        /* \"Basics_of_contracts/Auction.sol\":1587:1593  newBid */\n      dup3\n        /* \"Basics_of_contracts/Auction.sol\":1587:1610  newBid > lastHighestBid */\n      gt\n        /* \"Basics_of_contracts/Auction.sol\":1579:1611  require(newBid > lastHighestBid) */\n      iszero\n      iszero\n      tag_65\n      jumpi\n      0x0\n      dup1\n      revert\n    tag_65:\n        /* \"Basics_of_contracts/Auction.sol\":1651:1657  newBid */\n      dup2\n        /* \"Basics_of_contracts/Auction.sol\":1623:1636  fundsByBidder */\n      0x4\n        /* \"Basics_of_contracts/Auction.sol\":1623:1648  fundsByBidder[msg.sender] */\n      0x0\n        /* \"Basics_of_contracts/Auction.sol\":1637:1647  msg.sender */\n      caller\n        /* \"Basics_of_contracts/Auction.sol\":1623:1648  fundsByBidder[msg.sender] */\n      0xffffffffffffffffffffffffffffffffffffffff\n      and\n      0xffffffffffffffffffffffffffffffffffffffff\n      and\n      dup2\n      mstore\n      0x20\n      add\n      swap1\n      dup2\n      mstore\n      0x20\n      add\n      0x0\n      keccak256\n        /* \"Basics_of_contracts/Auction.sol\":1623:1657  fundsByBidder[msg.sender] = newBid */\n      dup2\n      swap1\n      sstore\n      pop\n        /* \"Basics_of_contracts/Auction.sol\":1685:1695  msg.sender */\n      caller\n        /* \"Basics_of_contracts/Auction.sol\":1669:1682  highestBidder */\n      0x3\n      0x1\n        /* \"Basics_of_contracts/Auction.sol\":1669:1695  highestBidder = msg.sender */\n      0x100\n      exp\n      dup2\n      sload\n      dup2\n      0xffffffffffffffffffffffffffffffffffffffff\n      mul\n      not\n      and\n      swap1\n      dup4\n      0xffffffffffffffffffffffffffffffffffffffff\n      and\n      mul\n      or\n      swap1\n      sstore\n      pop\n        /* \"Basics_of_contracts/Auction.sol\":1712:1769  logBid(msg.sender, newBid, highestBidder, lastHighestBid) */\n      0x7e122991e341b8c021d760d0bf3e436bb3c21ee4cbb901031251e519e80beddd\n        /* \"Basics_of_contracts/Auction.sol\":1719:1729  msg.sender */\n      caller\n        /* \"Basics_of_contracts/Auction.sol\":1731:1737  newBid */\n      dup4\n        /* \"Basics_of_contracts/Auction.sol\":1739:1752  highestBidder */\n      0x3\n      0x1\n      swap1\n      sload\n      swap1\n      0x100\n      exp\n      swap1\n      div\n      0xffffffffffffffffffffffffffffffffffffffff\n      and\n        /* \"Basics_of_contracts/Auction.sol\":1754:1768  lastHighestBid */\n      dup5\n        /* \"Basics_of_contracts/Auction.sol\":1712:1769  logBid(msg.sender, newBid, highestBidder, lastHighestBid) */\n      mload(0x40)\n      dup1\n      dup6\n      0xffffffffffffffffffffffffffffffffffffffff\n      and\n      0xffffffffffffffffffffffffffffffffffffffff\n      and\n      dup2\n      mstore\n      0x20\n      add\n      dup5\n      dup2\n      mstore\n      0x20\n      add\n      dup4\n      0xffffffffffffffffffffffffffffffffffffffff\n      and\n      0xffffffffffffffffffffffffffffffffffffffff\n      and\n      dup2\n      mstore\n      0x20\n      add\n      dup3\n      dup2\n      mstore\n      0x20\n      add\n      swap5\n      pop\n      pop\n      pop\n      pop\n      pop\n      mload(0x40)\n      dup1\n      swap2\n      sub\n      swap1\n      log1\n        /* \"Basics_of_contracts/Auction.sol\":1274:1777  function placeBid() \r... */\n      pop\n      pop\n      jump\t// out\n\n    auxdata: 0xa165627a7a72305820b2ab5086a54917498cc33eacf8cbd19df239240d7e3519d7a7f5134f658ae1150029\n}\n",
				"bytecode": {
					"linkReferences": {},
					"object": "608060405234801561001057600080fd5b50604051604080610a908339810180604052810190808051906020019092919080519060200190929190505050600254821115151561004e57600080fd5b438211151561005c57600080fd5b336000806101000a81548173ffffffffffffffffffffffffffffffffffffffff021916908373ffffffffffffffffffffffffffffffffffffffff160217905550816001819055508060028190555050506109d5806100bb6000396000f300608060405260043610610099576000357c0100000000000000000000000000000000000000000000000000000000900463ffffffff168063083c63231461009e5780633ccfd60b146100c95780633f9942ff146100e057806348cd4cb11461010f5780638da5cb5b1461013a57806391f9015714610191578063bc5805e6146101e8578063ce10cf80146101ff578063ecfc7ecc14610256575b600080fd5b3480156100aa57600080fd5b506100b3610260565b6040518082815260200191505060405180910390f35b3480156100d557600080fd5b506100de610266565b005b3480156100ec57600080fd5b506100f561059f565b604051808215151515815260200191505060405180910390f35b34801561011b57600080fd5b506101246105b2565b6040518082815260200191505060405180910390f35b34801561014657600080fd5b5061014f6105b8565b604051808273ffffffffffffffffffffffffffffffffffffffff1673ffffffffffffffffffffffffffffffffffffffff16815260200191505060405180910390f35b34801561019d57600080fd5b506101a66105dd565b604051808273ffffffffffffffffffffffffffffffffffffffff1673ffffffffffffffffffffffffffffffffffffffff16815260200191505060405180910390f35b3480156101f457600080fd5b506101fd610603565b005b34801561020b57600080fd5b50610240600480360381019080803573ffffffffffffffffffffffffffffffffffffffff1690602001909291905050506106d9565b6040518082815260200191505060405180910390f35b61025e6106f1565b005b60025481565b60008060011515600360009054906101000a900460ff161515148061028c575060025443115b151561029757600080fd5b60011515600360009054906101000a900460ff16151514156102fa57600460003373ffffffffffffffffffffffffffffffffffffffff1673ffffffffffffffffffffffffffffffffffffffff168152602001908152602001600020549050610459565b600360019054906101000a900473ffffffffffffffffffffffffffffffffffffffff1673ffffffffffffffffffffffffffffffffffffffff163373ffffffffffffffffffffffffffffffffffffffff161415151561035757600080fd5b6000809054906101000a900473ffffffffffffffffffffffffffffffffffffffff1673ffffffffffffffffffffffffffffffffffffffff163373ffffffffffffffffffffffffffffffffffffffff1614156104155760046000600360019054906101000a900473ffffffffffffffffffffffffffffffffffffffff1673ffffffffffffffffffffffffffffffffffffffff1673ffffffffffffffffffffffffffffffffffffffff168152602001908152602001600020549050610458565b600460003373ffffffffffffffffffffffffffffffffffffffff1673ffffffffffffffffffffffffffffffffffffffff1681526020019081526020016000205490505b5b60008111151561046857600080fd5b80600460008473ffffffffffffffffffffffffffffffffffffffff1673ffffffffffffffffffffffffffffffffffffffff168152602001908152602001600020600082825403925050819055503373ffffffffffffffffffffffffffffffffffffffff166108fc829081150290604051600060405180830381858888f193505050501580156104fb573d6000803e3d6000fd5b507fff2320e53c7842b087a6418adc75cc0f0dae5e3614e0a18db2d7e7906b08ec1f338383604051808473ffffffffffffffffffffffffffffffffffffffff1673ffffffffffffffffffffffffffffffffffffffff1681526020018373ffffffffffffffffffffffffffffffffffffffff1673ffffffffffffffffffffffffffffffffffffffff168152602001828152602001935050505060405180910390a15050565b600360009054906101000a900460ff1681565b60015481565b6000809054906101000a900473ffffffffffffffffffffffffffffffffffffffff1681565b600360019054906101000a900473ffffffffffffffffffffffffffffffffffffffff1681565b6000809054906101000a900473ffffffffffffffffffffffffffffffffffffffff1673ffffffffffffffffffffffffffffffffffffffff163373ffffffffffffffffffffffffffffffffffffffff1614151561065e57600080fd5b6002544310151561066e57600080fd5b60001515600360009054906101000a900460ff16151514151561069057600080fd5b6001600360006101000a81548160ff0219169083151502179055507f25672e2e69d402b9ce61f701f1281fa48b680ceb2a2032ad2373f4a16569820f60405160405180910390a1565b60046020528060005260406000206000915090505481565b6000806001544311151561070457600080fd5b6002544310151561071457600080fd5b60001515600360009054906101000a900460ff16151514151561073657600080fd5b6000809054906101000a900473ffffffffffffffffffffffffffffffffffffffff1673ffffffffffffffffffffffffffffffffffffffff163373ffffffffffffffffffffffffffffffffffffffff161415151561079257600080fd5b6000341115156107a157600080fd5b34600460003373ffffffffffffffffffffffffffffffffffffffff1673ffffffffffffffffffffffffffffffffffffffff1681526020019081526020016000205401915060046000600360019054906101000a900473ffffffffffffffffffffffffffffffffffffffff1673ffffffffffffffffffffffffffffffffffffffff1673ffffffffffffffffffffffffffffffffffffffff168152602001908152602001600020549050808211151561085757600080fd5b81600460003373ffffffffffffffffffffffffffffffffffffffff1673ffffffffffffffffffffffffffffffffffffffff1681526020019081526020016000208190555033600360016101000a81548173ffffffffffffffffffffffffffffffffffffffff021916908373ffffffffffffffffffffffffffffffffffffffff1602179055507f7e122991e341b8c021d760d0bf3e436bb3c21ee4cbb901031251e519e80beddd3383600360019054906101000a900473ffffffffffffffffffffffffffffffffffffffff1684604051808573ffffffffffffffffffffffffffffffffffffffff1673ffffffffffffffffffffffffffffffffffffffff1681526020018481526020018373ffffffffffffffffffffffffffffffffffffffff1673ffffffffffffffffffffffffffffffffffffffff16815260200182815260200194505050505060405180910390a150505600a165627a7a72305820b2ab5086a54917498cc33eacf8cbd19df239240d7e3519d7a7f5134f658ae1150029",
					"opcodes": "PUSH1 0x80 PUSH1 0x40 MSTORE CALLVALUE DUP1 ISZERO PUSH2 0x10 JUMPI PUSH1 0x0 DUP1 REVERT JUMPDEST POP PUSH1 0x40 MLOAD PUSH1 0x40 DUP1 PUSH2 0xA90 DUP4 CODECOPY DUP2 ADD DUP1 PUSH1 0x40 MSTORE DUP2 ADD SWAP1 DUP1 DUP1 MLOAD SWAP1 PUSH1 0x20 ADD SWAP1 SWAP3 SWAP2 SWAP1 DUP1 MLOAD SWAP1 PUSH1 0x20 ADD SWAP1 SWAP3 SWAP2 SWAP1 POP POP POP PUSH1 0x2 SLOAD DUP3 GT ISZERO ISZERO ISZERO PUSH2 0x4E JUMPI PUSH1 0x0 DUP1 REVERT JUMPDEST NUMBER DUP3 GT ISZERO ISZERO PUSH2 0x5C JUMPI PUSH1 0x0 DUP1 REVERT JUMPDEST CALLER PUSH1 0x0 DUP1 PUSH2 0x100 EXP DUP2 SLOAD DUP2 PUSH20 0xFFFFFFFFFFFFFFFFFFFFFFFFFFFFFFFFFFFFFFFF MUL NOT AND SWAP1 DUP4 PUSH20 0xFFFFFFFFFFFFFFFFFFFFFFFFFFFFFFFFFFFFFFFF AND MUL OR SWAP1 SSTORE POP DUP2 PUSH1 0x1 DUP2 SWAP1 SSTORE POP DUP1 PUSH1 0x2 DUP2 SWAP1 SSTORE POP POP POP PUSH2 0x9D5 DUP1 PUSH2 0xBB PUSH1 0x0 CODECOPY PUSH1 0x0 RETURN STOP PUSH1 0x80 PUSH1 0x40 MSTORE PUSH1 0x4 CALLDATASIZE LT PUSH2 0x99 JUMPI PUSH1 0x0 CALLDATALOAD PUSH29 0x100000000000000000000000000000000000000000000000000000000 SWAP1 DIV PUSH4 0xFFFFFFFF AND DUP1 PUSH4 0x83C6323 EQ PUSH2 0x9E JUMPI DUP1 PUSH4 0x3CCFD60B EQ PUSH2 0xC9 JUMPI DUP1 PUSH4 0x3F9942FF EQ PUSH2 0xE0 JUMPI DUP1 PUSH4 0x48CD4CB1 EQ PUSH2 0x10F JUMPI DUP1 PUSH4 0x8DA5CB5B EQ PUSH2 0x13A JUMPI DUP1 PUSH4 0x91F90157 EQ PUSH2 0x191 JUMPI DUP1 PUSH4 0xBC5805E6 EQ PUSH2 0x1E8 JUMPI DUP1 PUSH4 0xCE10CF80 EQ PUSH2 0x1FF JUMPI DUP1 PUSH4 0xECFC7ECC EQ PUSH2 0x256 JUMPI JUMPDEST PUSH1 0x0 DUP1 REVERT JUMPDEST CALLVALUE DUP1 ISZERO PUSH2 0xAA JUMPI PUSH1 0x0 DUP1 REVERT JUMPDEST POP PUSH2 0xB3 PUSH2 0x260 JUMP JUMPDEST PUSH1 0x40 MLOAD DUP1 DUP3 DUP2 MSTORE PUSH1 0x20 ADD SWAP2 POP POP PUSH1 0x40 MLOAD DUP1 SWAP2 SUB SWAP1 RETURN JUMPDEST CALLVALUE DUP1 ISZERO PUSH2 0xD5 JUMPI PUSH1 0x0 DUP1 REVERT JUMPDEST POP PUSH2 0xDE PUSH2 0x266 JUMP JUMPDEST STOP JUMPDEST CALLVALUE DUP1 ISZERO PUSH2 0xEC JUMPI PUSH1 0x0 DUP1 REVERT JUMPDEST POP PUSH2 0xF5 PUSH2 0x59F JUMP JUMPDEST PUSH1 0x40 MLOAD DUP1 DUP3 ISZERO ISZERO ISZERO ISZERO DUP2 MSTORE PUSH1 0x20 ADD SWAP2 POP POP PUSH1 0x40 MLOAD DUP1 SWAP2 SUB SWAP1 RETURN JUMPDEST CALLVALUE DUP1 ISZERO PUSH2 0x11B JUMPI PUSH1 0x0 DUP1 REVERT JUMPDEST POP PUSH2 0x124 PUSH2 0x5B2 JUMP JUMPDEST PUSH1 0x40 MLOAD DUP1 DUP3 DUP2 MSTORE PUSH1 0x20 ADD SWAP2 POP POP PUSH1 0x40 MLOAD DUP1 SWAP2 SUB SWAP1 RETURN JUMPDEST CALLVALUE DUP1 ISZERO PUSH2 0x146 JUMPI PUSH1 0x0 DUP1 REVERT JUMPDEST POP PUSH2 0x14F PUSH2 0x5B8 JUMP JUMPDEST PUSH1 0x40 MLOAD DUP1 DUP3 PUSH20 0xFFFFFFFFFFFFFFFFFFFFFFFFFFFFFFFFFFFFFFFF AND PUSH20 0xFFFFFFFFFFFFFFFFFFFFFFFFFFFFFFFFFFFFFFFF AND DUP2 MSTORE PUSH1 0x20 ADD SWAP2 POP POP PUSH1 0x40 MLOAD DUP1 SWAP2 SUB SWAP1 RETURN JUMPDEST CALLVALUE DUP1 ISZERO PUSH2 0x19D JUMPI PUSH1 0x0 DUP1 REVERT JUMPDEST POP PUSH2 0x1A6 PUSH2 0x5DD JUMP JUMPDEST PUSH1 0x40 MLOAD DUP1 DUP3 PUSH20 0xFFFFFFFFFFFFFFFFFFFFFFFFFFFFFFFFFFFFFFFF AND PUSH20 0xFFFFFFFFFFFFFFFFFFFFFFFFFFFFFFFFFFFFFFFF AND DUP2 MSTORE PUSH1 0x20 ADD SWAP2 POP POP PUSH1 0x40 MLOAD DUP1 SWAP2 SUB SWAP1 RETURN JUMPDEST CALLVALUE DUP1 ISZERO PUSH2 0x1F4 JUMPI PUSH1 0x0 DUP1 REVERT JUMPDEST POP PUSH2 0x1FD PUSH2 0x603 JUMP JUMPDEST STOP JUMPDEST CALLVALUE DUP1 ISZERO PUSH2 0x20B JUMPI PUSH1 0x0 DUP1 REVERT JUMPDEST POP PUSH2 0x240 PUSH1 0x4 DUP1 CALLDATASIZE SUB DUP2 ADD SWAP1 DUP1 DUP1 CALLDATALOAD PUSH20 0xFFFFFFFFFFFFFFFFFFFFFFFFFFFFFFFFFFFFFFFF AND SWAP1 PUSH1 0x20 ADD SWAP1 SWAP3 SWAP2 SWAP1 POP POP POP PUSH2 0x6D9 JUMP JUMPDEST PUSH1 0x40 MLOAD DUP1 DUP3 DUP2 MSTORE PUSH1 0x20 ADD SWAP2 POP POP PUSH1 0x40 MLOAD DUP1 SWAP2 SUB SWAP1 RETURN JUMPDEST PUSH2 0x25E PUSH2 0x6F1 JUMP JUMPDEST STOP JUMPDEST PUSH1 0x2 SLOAD DUP2 JUMP JUMPDEST PUSH1 0x0 DUP1 PUSH1 0x1 ISZERO ISZERO PUSH1 0x3 PUSH1 0x0 SWAP1 SLOAD SWAP1 PUSH2 0x100 EXP SWAP1 DIV PUSH1 0xFF AND ISZERO ISZERO EQ DUP1 PUSH2 0x28C JUMPI POP PUSH1 0x2 SLOAD NUMBER GT JUMPDEST ISZERO ISZERO PUSH2 0x297 JUMPI PUSH1 0x0 DUP1 REVERT JUMPDEST PUSH1 0x1 ISZERO ISZERO PUSH1 0x3 PUSH1 0x0 SWAP1 SLOAD SWAP1 PUSH2 0x100 EXP SWAP1 DIV PUSH1 0xFF AND ISZERO ISZERO EQ ISZERO PUSH2 0x2FA JUMPI PUSH1 0x4 PUSH1 0x0 CALLER PUSH20 0xFFFFFFFFFFFFFFFFFFFFFFFFFFFFFFFFFFFFFFFF AND PUSH20 0xFFFFFFFFFFFFFFFFFFFFFFFFFFFFFFFFFFFFFFFF AND DUP2 MSTORE PUSH1 0x20 ADD SWAP1 DUP2 MSTORE PUSH1 0x20 ADD PUSH1 0x0 KECCAK256 SLOAD SWAP1 POP PUSH2 0x459 JUMP JUMPDEST PUSH1 0x3 PUSH1 0x1 SWAP1 SLOAD SWAP1 PUSH2 0x100 EXP SWAP1 DIV PUSH20 0xFFFFFFFFFFFFFFFFFFFFFFFFFFFFFFFFFFFFFFFF AND PUSH20 0xFFFFFFFFFFFFFFFFFFFFFFFFFFFFFFFFFFFFFFFF AND CALLER PUSH20 0xFFFFFFFFFFFFFFFFFFFFFFFFFFFFFFFFFFFFFFFF AND EQ ISZERO ISZERO ISZERO PUSH2 0x357 JUMPI PUSH1 0x0 DUP1 REVERT JUMPDEST PUSH1 0x0 DUP1 SWAP1 SLOAD SWAP1 PUSH2 0x100 EXP SWAP1 DIV PUSH20 0xFFFFFFFFFFFFFFFFFFFFFFFFFFFFFFFFFFFFFFFF AND PUSH20 0xFFFFFFFFFFFFFFFFFFFFFFFFFFFFFFFFFFFFFFFF AND CALLER PUSH20 0xFFFFFFFFFFFFFFFFFFFFFFFFFFFFFFFFFFFFFFFF AND EQ ISZERO PUSH2 0x415 JUMPI PUSH1 0x4 PUSH1 0x0 PUSH1 0x3 PUSH1 0x1 SWAP1 SLOAD SWAP1 PUSH2 0x100 EXP SWAP1 DIV PUSH20 0xFFFFFFFFFFFFFFFFFFFFFFFFFFFFFFFFFFFFFFFF AND PUSH20 0xFFFFFFFFFFFFFFFFFFFFFFFFFFFFFFFFFFFFFFFF AND PUSH20 0xFFFFFFFFFFFFFFFFFFFFFFFFFFFFFFFFFFFFFFFF AND DUP2 MSTORE PUSH1 0x20 ADD SWAP1 DUP2 MSTORE PUSH1 0x20 ADD PUSH1 0x0 KECCAK256 SLOAD SWAP1 POP PUSH2 0x458 JUMP JUMPDEST PUSH1 0x4 PUSH1 0x0 CALLER PUSH20 0xFFFFFFFFFFFFFFFFFFFFFFFFFFFFFFFFFFFFFFFF AND PUSH20 0xFFFFFFFFFFFFFFFFFFFFFFFFFFFFFFFFFFFFFFFF AND DUP2 MSTORE PUSH1 0x20 ADD SWAP1 DUP2 MSTORE PUSH1 0x20 ADD PUSH1 0x0 KECCAK256 SLOAD SWAP1 POP JUMPDEST JUMPDEST PUSH1 0x0 DUP2 GT ISZERO ISZERO PUSH2 0x468 JUMPI PUSH1 0x0 DUP1 REVERT JUMPDEST DUP1 PUSH1 0x4 PUSH1 0x0 DUP5 PUSH20 0xFFFFFFFFFFFFFFFFFFFFFFFFFFFFFFFFFFFFFFFF AND PUSH20 0xFFFFFFFFFFFFFFFFFFFFFFFFFFFFFFFFFFFFFFFF AND DUP2 MSTORE PUSH1 0x20 ADD SWAP1 DUP2 MSTORE PUSH1 0x20 ADD PUSH1 0x0 KECCAK256 PUSH1 0x0 DUP3 DUP3 SLOAD SUB SWAP3 POP POP DUP2 SWAP1 SSTORE POP CALLER PUSH20 0xFFFFFFFFFFFFFFFFFFFFFFFFFFFFFFFFFFFFFFFF AND PUSH2 0x8FC DUP3 SWAP1 DUP2 ISZERO MUL SWAP1 PUSH1 0x40 MLOAD PUSH1 0x0 PUSH1 0x40 MLOAD DUP1 DUP4 SUB DUP2 DUP6 DUP9 DUP9 CALL SWAP4 POP POP POP POP ISZERO DUP1 ISZERO PUSH2 0x4FB JUMPI RETURNDATASIZE PUSH1 0x0 DUP1 RETURNDATACOPY RETURNDATASIZE PUSH1 0x0 REVERT JUMPDEST POP PUSH32 0xFF2320E53C7842B087A6418ADC75CC0F0DAE5E3614E0A18DB2D7E7906B08EC1F CALLER DUP4 DUP4 PUSH1 0x40 MLOAD DUP1 DUP5 PUSH20 0xFFFFFFFFFFFFFFFFFFFFFFFFFFFFFFFFFFFFFFFF AND PUSH20 0xFFFFFFFFFFFFFFFFFFFFFFFFFFFFFFFFFFFFFFFF AND DUP2 MSTORE PUSH1 0x20 ADD DUP4 PUSH20 0xFFFFFFFFFFFFFFFFFFFFFFFFFFFFFFFFFFFFFFFF AND PUSH20 0xFFFFFFFFFFFFFFFFFFFFFFFFFFFFFFFFFFFFFFFF AND DUP2 MSTORE PUSH1 0x20 ADD DUP3 DUP2 MSTORE PUSH1 0x20 ADD SWAP4 POP POP POP POP PUSH1 0x40 MLOAD DUP1 SWAP2 SUB SWAP1 LOG1 POP POP JUMP JUMPDEST PUSH1 0x3 PUSH1 0x0 SWAP1 SLOAD SWAP1 PUSH2 0x100 EXP SWAP1 DIV PUSH1 0xFF AND DUP2 JUMP JUMPDEST PUSH1 0x1 SLOAD DUP2 JUMP JUMPDEST PUSH1 0x0 DUP1 SWAP1 SLOAD SWAP1 PUSH2 0x100 EXP SWAP1 DIV PUSH20 0xFFFFFFFFFFFFFFFFFFFFFFFFFFFFFFFFFFFFFFFF AND DUP2 JUMP JUMPDEST PUSH1 0x3 PUSH1 0x1 SWAP1 SLOAD SWAP1 PUSH2 0x100 EXP SWAP1 DIV PUSH20 0xFFFFFFFFFFFFFFFFFFFFFFFFFFFFFFFFFFFFFFFF AND DUP2 JUMP JUMPDEST PUSH1 0x0 DUP1 SWAP1 SLOAD SWAP1 PUSH2 0x100 EXP SWAP1 DIV PUSH20 0xFFFFFFFFFFFFFFFFFFFFFFFFFFFFFFFFFFFFFFFF AND PUSH20 0xFFFFFFFFFFFFFFFFFFFFFFFFFFFFFFFFFFFFFFFF AND CALLER PUSH20 0xFFFFFFFFFFFFFFFFFFFFFFFFFFFFFFFFFFFFFFFF AND EQ ISZERO ISZERO PUSH2 0x65E JUMPI PUSH1 0x0 DUP1 REVERT JUMPDEST PUSH1 0x2 SLOAD NUMBER LT ISZERO ISZERO PUSH2 0x66E JUMPI PUSH1 0x0 DUP1 REVERT JUMPDEST PUSH1 0x0 ISZERO ISZERO PUSH1 0x3 PUSH1 0x0 SWAP1 SLOAD SWAP1 PUSH2 0x100 EXP SWAP1 DIV PUSH1 0xFF AND ISZERO ISZERO EQ ISZERO ISZERO PUSH2 0x690 JUMPI PUSH1 0x0 DUP1 REVERT JUMPDEST PUSH1 0x1 PUSH1 0x3 PUSH1 0x0 PUSH2 0x100 EXP DUP2 SLOAD DUP2 PUSH1 0xFF MUL NOT AND SWAP1 DUP4 ISZERO ISZERO MUL OR SWAP1 SSTORE POP PUSH32 0x25672E2E69D402B9CE61F701F1281FA48B680CEB2A2032AD2373F4A16569820F PUSH1 0x40 MLOAD PUSH1 0x40 MLOAD DUP1 SWAP2 SUB SWAP1 LOG1 JUMP JUMPDEST PUSH1 0x4 PUSH1 0x20 MSTORE DUP1 PUSH1 0x0 MSTORE PUSH1 0x40 PUSH1 0x0 KECCAK256 PUSH1 0x0 SWAP2 POP SWAP1 POP SLOAD DUP2 JUMP JUMPDEST PUSH1 0x0 DUP1 PUSH1 0x1 SLOAD NUMBER GT ISZERO ISZERO PUSH2 0x704 JUMPI PUSH1 0x0 DUP1 REVERT JUMPDEST PUSH1 0x2 SLOAD NUMBER LT ISZERO ISZERO PUSH2 0x714 JUMPI PUSH1 0x0 DUP1 REVERT JUMPDEST PUSH1 0x0 ISZERO ISZERO PUSH1 0x3 PUSH1 0x0 SWAP1 SLOAD SWAP1 PUSH2 0x100 EXP SWAP1 DIV PUSH1 0xFF AND ISZERO ISZERO EQ ISZERO ISZERO PUSH2 0x736 JUMPI PUSH1 0x0 DUP1 REVERT JUMPDEST PUSH1 0x0 DUP1 SWAP1 SLOAD SWAP1 PUSH2 0x100 EXP SWAP1 DIV PUSH20 0xFFFFFFFFFFFFFFFFFFFFFFFFFFFFFFFFFFFFFFFF AND PUSH20 0xFFFFFFFFFFFFFFFFFFFFFFFFFFFFFFFFFFFFFFFF AND CALLER PUSH20 0xFFFFFFFFFFFFFFFFFFFFFFFFFFFFFFFFFFFFFFFF AND EQ ISZERO ISZERO ISZERO PUSH2 0x792 JUMPI PUSH1 0x0 DUP1 REVERT JUMPDEST PUSH1 0x0 CALLVALUE GT ISZERO ISZERO PUSH2 0x7A1 JUMPI PUSH1 0x0 DUP1 REVERT JUMPDEST CALLVALUE PUSH1 0x4 PUSH1 0x0 CALLER PUSH20 0xFFFFFFFFFFFFFFFFFFFFFFFFFFFFFFFFFFFFFFFF AND PUSH20 0xFFFFFFFFFFFFFFFFFFFFFFFFFFFFFFFFFFFFFFFF AND DUP2 MSTORE PUSH1 0x20 ADD SWAP1 DUP2 MSTORE PUSH1 0x20 ADD PUSH1 0x0 KECCAK256 SLOAD ADD SWAP2 POP PUSH1 0x4 PUSH1 0x0 PUSH1 0x3 PUSH1 0x1 SWAP1 SLOAD SWAP1 PUSH2 0x100 EXP SWAP1 DIV PUSH20 0xFFFFFFFFFFFFFFFFFFFFFFFFFFFFFFFFFFFFFFFF AND PUSH20 0xFFFFFFFFFFFFFFFFFFFFFFFFFFFFFFFFFFFFFFFF AND PUSH20 0xFFFFFFFFFFFFFFFFFFFFFFFFFFFFFFFFFFFFFFFF AND DUP2 MSTORE PUSH1 0x20 ADD SWAP1 DUP2 MSTORE PUSH1 0x20 ADD PUSH1 0x0 KECCAK256 SLOAD SWAP1 POP DUP1 DUP3 GT ISZERO ISZERO PUSH2 0x857 JUMPI PUSH1 0x0 DUP1 REVERT JUMPDEST DUP2 PUSH1 0x4 PUSH1 0x0 CALLER PUSH20 0xFFFFFFFFFFFFFFFFFFFFFFFFFFFFFFFFFFFFFFFF AND PUSH20 0xFFFFFFFFFFFFFFFFFFFFFFFFFFFFFFFFFFFFFFFF AND DUP2 MSTORE PUSH1 0x20 ADD SWAP1 DUP2 MSTORE PUSH1 0x20 ADD PUSH1 0x0 KECCAK256 DUP2 SWAP1 SSTORE POP CALLER PUSH1 0x3 PUSH1 0x1 PUSH2 0x100 EXP DUP2 SLOAD DUP2 PUSH20 0xFFFFFFFFFFFFFFFFFFFFFFFFFFFFFFFFFFFFFFFF MUL NOT AND SWAP1 DUP4 PUSH20 0xFFFFFFFFFFFFFFFFFFFFFFFFFFFFFFFFFFFFFFFF AND MUL OR SWAP1 SSTORE POP PUSH32 0x7E122991E341B8C021D760D0BF3E436BB3C21EE4CBB901031251E519E80BEDDD CALLER DUP4 PUSH1 0x3 PUSH1 0x1 SWAP1 SLOAD SWAP1 PUSH2 0x100 EXP SWAP1 DIV PUSH20 0xFFFFFFFFFFFFFFFFFFFFFFFFFFFFFFFFFFFFFFFF AND DUP5 PUSH1 0x40 MLOAD DUP1 DUP6 PUSH20 0xFFFFFFFFFFFFFFFFFFFFFFFFFFFFFFFFFFFFFFFF AND PUSH20 0xFFFFFFFFFFFFFFFFFFFFFFFFFFFFFFFFFFFFFFFF AND DUP2 MSTORE PUSH1 0x20 ADD DUP5 DUP2 MSTORE PUSH1 0x20 ADD DUP4 PUSH20 0xFFFFFFFFFFFFFFFFFFFFFFFFFFFFFFFFFFFFFFFF AND PUSH20 0xFFFFFFFFFFFFFFFFFFFFFFFFFFFFFFFFFFFFFFFF AND DUP2 MSTORE PUSH1 0x20 ADD DUP3 DUP2 MSTORE PUSH1 0x20 ADD SWAP5 POP POP POP POP POP PUSH1 0x40 MLOAD DUP1 SWAP2 SUB SWAP1 LOG1 POP POP JUMP STOP LOG1 PUSH6 0x627A7A723058 KECCAK256 0xb2 0xab POP DUP7 0xa5 0x49 OR 0x49 DUP13 0xc3 RETURNDATACOPY 0xac 0xf8 0xcb 0xd1 SWAP14 CALLCODE CODECOPY 0x24 0xd PUSH31 0x3519D7A7F5134F658AE1150029000000000000000000000000000000000000 "
				},
				"gasEstimates": {
					"creation": {
						"codeDepositCost": "503400",
						"executionCost": "61209",
						"totalCost": "564609"
					},
					"external": {
						"cancelAction()": "22090",
						"canceled()": "486",
						"endBlock()": "394",
						"fundsByBidder(address)": "686",
						"highestBidder()": "602",
						"owner()": "530",
						"placeBid()": "44882",
						"startBlock()": "460",
						"withdraw()": "infinite"
					}
				},
				"methodIdentifiers": {
					"cancelAction()": "bc5805e6",
					"canceled()": "3f9942ff",
					"endBlock()": "083c6323",
					"fundsByBidder(address)": "ce10cf80",
					"highestBidder()": "91f90157",
					"owner()": "8da5cb5b",
					"placeBid()": "ecfc7ecc",
					"startBlock()": "48cd4cb1",
					"withdraw()": "3ccfd60b"
				}
			},
			"userdoc": {
				"methods": {}
			}
		}
	}
}