{
	"Basics_of_contracts/Exceptions.sol": {
		"Exception": {
			"abi": [
				{
					"constant": true,
					"inputs": [
						{
							"name": "a",
							"type": "uint256"
						},
						{
							"name": "b",
							"type": "uint256"
						}
					],
					"name": "testAssert",
					"outputs": [
						{
							"name": "",
							"type": "uint256"
						}
					],
					"payable": false,
					"stateMutability": "view",
					"type": "function"
				},
				{
					"constant": true,
					"inputs": [
						{
							"name": "a",
							"type": "uint256"
						},
						{
							"name": "b",
							"type": "uint256"
						}
					],
					"name": "testRequire",
					"outputs": [
						{
							"name": "",
							"type": "uint256"
						}
					],
					"payable": false,
					"stateMutability": "view",
					"type": "function"
				}
			],
			"devdoc": {
				"methods": {}
			},
			"evm": {
				"assembly": "    /* \"Basics_of_contracts/Exceptions.sol\":27:344  contract Exception {\r... */\n  mstore(0x40, 0x80)\n  callvalue\n    /* \"--CODEGEN--\":8:17   */\n  dup1\n    /* \"--CODEGEN--\":5:7   */\n  iszero\n  tag_1\n  jumpi\n    /* \"--CODEGEN--\":30:31   */\n  0x0\n    /* \"--CODEGEN--\":27:28   */\n  dup1\n    /* \"--CODEGEN--\":20:32   */\n  revert\n    /* \"--CODEGEN--\":5:7   */\ntag_1:\n    /* \"Basics_of_contracts/Exceptions.sol\":27:344  contract Exception {\r... */\n  pop\n  dataSize(sub_0)\n  dup1\n  dataOffset(sub_0)\n  0x0\n  codecopy\n  0x0\n  return\nstop\n\nsub_0: assembly {\n        /* \"Basics_of_contracts/Exceptions.sol\":27:344  contract Exception {\r... */\n      mstore(0x40, 0x80)\n      jumpi(tag_1, lt(calldatasize, 0x4))\n      calldataload(0x0)\n      0x100000000000000000000000000000000000000000000000000000000\n      swap1\n      div\n      0xffffffff\n      and\n      dup1\n      0x420df3a3\n      eq\n      tag_2\n      jumpi\n      dup1\n      0x9e334b8f\n      eq\n      tag_3\n      jumpi\n    tag_1:\n      0x0\n      dup1\n      revert\n        /* \"Basics_of_contracts/Exceptions.sol\":217:341  function testAssert(uint a, uint b) public pure returns (uint){\r... */\n    tag_2:\n      callvalue\n        /* \"--CODEGEN--\":8:17   */\n      dup1\n        /* \"--CODEGEN--\":5:7   */\n      iszero\n      tag_4\n      jumpi\n        /* \"--CODEGEN--\":30:31   */\n      0x0\n        /* \"--CODEGEN--\":27:28   */\n      dup1\n        /* \"--CODEGEN--\":20:32   */\n      revert\n        /* \"--CODEGEN--\":5:7   */\n    tag_4:\n        /* \"Basics_of_contracts/Exceptions.sol\":217:341  function testAssert(uint a, uint b) public pure returns (uint){\r... */\n      pop\n      tag_5\n      0x4\n      dup1\n      calldatasize\n      sub\n      dup2\n      add\n      swap1\n      dup1\n      dup1\n      calldataload\n      swap1\n      0x20\n      add\n      swap1\n      swap3\n      swap2\n      swap1\n      dup1\n      calldataload\n      swap1\n      0x20\n      add\n      swap1\n      swap3\n      swap2\n      swap1\n      pop\n      pop\n      pop\n      jump(tag_6)\n    tag_5:\n      mload(0x40)\n      dup1\n      dup3\n      dup2\n      mstore\n      0x20\n      add\n      swap2\n      pop\n      pop\n      mload(0x40)\n      dup1\n      swap2\n      sub\n      swap1\n      return\n        /* \"Basics_of_contracts/Exceptions.sol\":55:209  function testRequire(uint a, uint b) public pure returns (uint){\r... */\n    tag_3:\n      callvalue\n        /* \"--CODEGEN--\":8:17   */\n      dup1\n        /* \"--CODEGEN--\":5:7   */\n      iszero\n      tag_7\n      jumpi\n        /* \"--CODEGEN--\":30:31   */\n      0x0\n        /* \"--CODEGEN--\":27:28   */\n      dup1\n        /* \"--CODEGEN--\":20:32   */\n      revert\n        /* \"--CODEGEN--\":5:7   */\n    tag_7:\n        /* \"Basics_of_contracts/Exceptions.sol\":55:209  function testRequire(uint a, uint b) public pure returns (uint){\r... */\n      pop\n      tag_8\n      0x4\n      dup1\n      calldatasize\n      sub\n      dup2\n      add\n      swap1\n      dup1\n      dup1\n      calldataload\n      swap1\n      0x20\n      add\n      swap1\n      swap3\n      swap2\n      swap1\n      dup1\n      calldataload\n      swap1\n      0x20\n      add\n      swap1\n      swap3\n      swap2\n      swap1\n      pop\n      pop\n      pop\n      jump(tag_9)\n    tag_8:\n      mload(0x40)\n      dup1\n      dup3\n      dup2\n      mstore\n      0x20\n      add\n      swap2\n      pop\n      pop\n      mload(0x40)\n      dup1\n      swap2\n      sub\n      swap1\n      return\n        /* \"Basics_of_contracts/Exceptions.sol\":217:341  function testAssert(uint a, uint b) public pure returns (uint){\r... */\n    tag_6:\n        /* \"Basics_of_contracts/Exceptions.sol\":274:278  uint */\n      0x0\n        /* \"Basics_of_contracts/Exceptions.sol\":305:306  b */\n      dup2\n        /* \"Basics_of_contracts/Exceptions.sol\":300:301  a */\n      dup4\n        /* \"Basics_of_contracts/Exceptions.sol\":300:306  a >= b */\n      lt\n      iszero\n        /* \"Basics_of_contracts/Exceptions.sol\":293:307  assert(a >= b) */\n      iszero\n      iszero\n      tag_11\n      jumpi\n      invalid\n    tag_11:\n        /* \"Basics_of_contracts/Exceptions.sol\":332:333  b */\n      dup2\n        /* \"Basics_of_contracts/Exceptions.sol\":328:329  a */\n      dup4\n        /* \"Basics_of_contracts/Exceptions.sol\":328:333  a - b */\n      sub\n        /* \"Basics_of_contracts/Exceptions.sol\":321:333  return a - b */\n      swap1\n      pop\n        /* \"Basics_of_contracts/Exceptions.sol\":217:341  function testAssert(uint a, uint b) public pure returns (uint){\r... */\n      swap3\n      swap2\n      pop\n      pop\n      jump\t// out\n        /* \"Basics_of_contracts/Exceptions.sol\":55:209  function testRequire(uint a, uint b) public pure returns (uint){\r... */\n    tag_9:\n        /* \"Basics_of_contracts/Exceptions.sol\":113:117  uint */\n      0x0\n        /* \"Basics_of_contracts/Exceptions.sol\":145:146  b */\n      dup2\n        /* \"Basics_of_contracts/Exceptions.sol\":140:141  a */\n      dup4\n        /* \"Basics_of_contracts/Exceptions.sol\":140:146  a >= b */\n      lt\n      iszero\n        /* \"Basics_of_contracts/Exceptions.sol\":132:175  require(a >= b, \"a shold be higher than b\") */\n      iszero\n      iszero\n      tag_13\n      jumpi\n      mload(0x40)\n      0x8c379a000000000000000000000000000000000000000000000000000000000\n      dup2\n      mstore\n      0x4\n      add\n      dup1\n      dup1\n      0x20\n      add\n      dup3\n      dup2\n      sub\n      dup3\n      mstore\n      0x18\n      dup2\n      mstore\n      0x20\n      add\n      dup1\n      0x612073686f6c6420626520686967686572207468616e20620000000000000000\n      dup2\n      mstore\n      pop\n      0x20\n      add\n      swap2\n      pop\n      pop\n      mload(0x40)\n      dup1\n      swap2\n      sub\n      swap1\n      revert\n    tag_13:\n        /* \"Basics_of_contracts/Exceptions.sol\":200:201  b */\n      dup2\n        /* \"Basics_of_contracts/Exceptions.sol\":196:197  a */\n      dup4\n        /* \"Basics_of_contracts/Exceptions.sol\":196:201  a - b */\n      sub\n        /* \"Basics_of_contracts/Exceptions.sol\":189:201  return a - b */\n      swap1\n      pop\n        /* \"Basics_of_contracts/Exceptions.sol\":55:209  function testRequire(uint a, uint b) public pure returns (uint){\r... */\n      swap3\n      swap2\n      pop\n      pop\n      jump\t// out\n\n    auxdata: 0xa165627a7a723058207e99608744b3e61ebabea2f952260db258b90ffec490f485af138df8f1c3d5ec0029\n}\n",
				"bytecode": {
					"linkReferences": {},
					"object": "608060405234801561001057600080fd5b506101b1806100206000396000f30060806040526004361061004c576000357c0100000000000000000000000000000000000000000000000000000000900463ffffffff168063420df3a3146100515780639e334b8f1461009c575b600080fd5b34801561005d57600080fd5b5061008660048036038101908080359060200190929190803590602001909291905050506100e7565b6040518082815260200191505060405180910390f35b3480156100a857600080fd5b506100d16004803603810190808035906020019092919080359060200190929190505050610100565b6040518082815260200191505060405180910390f35b60008183101515156100f557fe5b818303905092915050565b600081831015151561017a576040517f08c379a00000000000000000000000000000000000000000000000000000000081526004018080602001828103825260188152602001807f612073686f6c6420626520686967686572207468616e2062000000000000000081525060200191505060405180910390fd5b8183039050929150505600a165627a7a723058207e99608744b3e61ebabea2f952260db258b90ffec490f485af138df8f1c3d5ec0029",
					"opcodes": "PUSH1 0x80 PUSH1 0x40 MSTORE CALLVALUE DUP1 ISZERO PUSH2 0x10 JUMPI PUSH1 0x0 DUP1 REVERT JUMPDEST POP PUSH2 0x1B1 DUP1 PUSH2 0x20 PUSH1 0x0 CODECOPY PUSH1 0x0 RETURN STOP PUSH1 0x80 PUSH1 0x40 MSTORE PUSH1 0x4 CALLDATASIZE LT PUSH2 0x4C JUMPI PUSH1 0x0 CALLDATALOAD PUSH29 0x100000000000000000000000000000000000000000000000000000000 SWAP1 DIV PUSH4 0xFFFFFFFF AND DUP1 PUSH4 0x420DF3A3 EQ PUSH2 0x51 JUMPI DUP1 PUSH4 0x9E334B8F EQ PUSH2 0x9C JUMPI JUMPDEST PUSH1 0x0 DUP1 REVERT JUMPDEST CALLVALUE DUP1 ISZERO PUSH2 0x5D JUMPI PUSH1 0x0 DUP1 REVERT JUMPDEST POP PUSH2 0x86 PUSH1 0x4 DUP1 CALLDATASIZE SUB DUP2 ADD SWAP1 DUP1 DUP1 CALLDATALOAD SWAP1 PUSH1 0x20 ADD SWAP1 SWAP3 SWAP2 SWAP1 DUP1 CALLDATALOAD SWAP1 PUSH1 0x20 ADD SWAP1 SWAP3 SWAP2 SWAP1 POP POP POP PUSH2 0xE7 JUMP JUMPDEST PUSH1 0x40 MLOAD DUP1 DUP3 DUP2 MSTORE PUSH1 0x20 ADD SWAP2 POP POP PUSH1 0x40 MLOAD DUP1 SWAP2 SUB SWAP1 RETURN JUMPDEST CALLVALUE DUP1 ISZERO PUSH2 0xA8 JUMPI PUSH1 0x0 DUP1 REVERT JUMPDEST POP PUSH2 0xD1 PUSH1 0x4 DUP1 CALLDATASIZE SUB DUP2 ADD SWAP1 DUP1 DUP1 CALLDATALOAD SWAP1 PUSH1 0x20 ADD SWAP1 SWAP3 SWAP2 SWAP1 DUP1 CALLDATALOAD SWAP1 PUSH1 0x20 ADD SWAP1 SWAP3 SWAP2 SWAP1 POP POP POP PUSH2 0x100 JUMP JUMPDEST PUSH1 0x40 MLOAD DUP1 DUP3 DUP2 MSTORE PUSH1 0x20 ADD SWAP2 POP POP PUSH1 0x40 MLOAD DUP1 SWAP2 SUB SWAP1 RETURN JUMPDEST PUSH1 0x0 DUP2 DUP4 LT ISZERO ISZERO ISZERO PUSH2 0xF5 JUMPI INVALID JUMPDEST DUP2 DUP4 SUB SWAP1 POP SWAP3 SWAP2 POP POP JUMP JUMPDEST PUSH1 0x0 DUP2 DUP4 LT ISZERO ISZERO ISZERO PUSH2 0x17A JUMPI PUSH1 0x40 MLOAD PUSH32 0x8C379A000000000000000000000000000000000000000000000000000000000 DUP2 MSTORE PUSH1 0x4 ADD DUP1 DUP1 PUSH1 0x20 ADD DUP3 DUP2 SUB DUP3 MSTORE PUSH1 0x18 DUP2 MSTORE PUSH1 0x20 ADD DUP1 PUSH32 0x612073686F6C6420626520686967686572207468616E20620000000000000000 DUP2 MSTORE POP PUSH1 0x20 ADD SWAP2 POP POP PUSH1 0x40 MLOAD DUP1 SWAP2 SUB SWAP1 REVERT JUMPDEST DUP2 DUP4 SUB SWAP1 POP SWAP3 SWAP2 POP POP JUMP STOP LOG1 PUSH6 0x627A7A723058 KECCAK256 PUSH31 0x99608744B3E61EBABEA2F952260DB258B90FFEC490F485AF138DF8F1C3D5EC STOP 0x29 "
				},
				"gasEstimates": {
					"creation": {
						"codeDepositCost": "86600",
						"executionCost": "135",
						"totalCost": "86735"
					},
					"external": {
						"testAssert(uint256,uint256)": "330",
						"testRequire(uint256,uint256)": "386"
					}
				},
				"methodIdentifiers": {
					"testAssert(uint256,uint256)": "420df3a3",
					"testRequire(uint256,uint256)": "9e334b8f"
				}
			},
			"userdoc": {
				"methods": {}
			}
		}
	}
}