{
	"data": {
		"bytecode": {
			"linkReferences": {},
			"object": "60806040526000805534801561001457600080fd5b5060cf806100236000396000f300608060405260043610603f576000357c0100000000000000000000000000000000000000000000000000000000900463ffffffff168063b69ef8a8146075575b347f49b4c3f4344f33413322c03885f90f29e906bd8eb0cb2c3d815ee1ad2b3c989c60405160405180910390a234600081905550005b348015608057600080fd5b506087609d565b6040518082815260200191505060405180910390f35b600054815600a165627a7a72305820d1213f822813aa72c721468f7e7408134aade18aca96046e60ba28ac6c9b84c20029",
			"opcodes": "PUSH1 0x80 PUSH1 0x40 MSTORE PUSH1 0x0 DUP1 SSTORE CALLVALUE DUP1 ISZERO PUSH2 0x14 JUMPI PUSH1 0x0 DUP1 REVERT JUMPDEST POP PUSH1 0xCF DUP1 PUSH2 0x23 PUSH1 0x0 CODECOPY PUSH1 0x0 RETURN STOP PUSH1 0x80 PUSH1 0x40 MSTORE PUSH1 0x4 CALLDATASIZE LT PUSH1 0x3F JUMPI PUSH1 0x0 CALLDATALOAD PUSH29 0x100000000000000000000000000000000000000000000000000000000 SWAP1 DIV PUSH4 0xFFFFFFFF AND DUP1 PUSH4 0xB69EF8A8 EQ PUSH1 0x75 JUMPI JUMPDEST CALLVALUE PUSH32 0x49B4C3F4344F33413322C03885F90F29E906BD8EB0CB2C3D815EE1AD2B3C989C PUSH1 0x40 MLOAD PUSH1 0x40 MLOAD DUP1 SWAP2 SUB SWAP1 LOG2 CALLVALUE PUSH1 0x0 DUP2 SWAP1 SSTORE POP STOP JUMPDEST CALLVALUE DUP1 ISZERO PUSH1 0x80 JUMPI PUSH1 0x0 DUP1 REVERT JUMPDEST POP PUSH1 0x87 PUSH1 0x9D JUMP JUMPDEST PUSH1 0x40 MLOAD DUP1 DUP3 DUP2 MSTORE PUSH1 0x20 ADD SWAP2 POP POP PUSH1 0x40 MLOAD DUP1 SWAP2 SUB SWAP1 RETURN JUMPDEST PUSH1 0x0 SLOAD DUP2 JUMP STOP LOG1 PUSH6 0x627A7A723058 KECCAK256 0xd1 0x21 0x3f DUP3 0x28 SGT 0xaa PUSH19 0xC721468F7E7408134AADE18ACA96046E60BA28 0xac PUSH13 0x9B84C200290000000000000000 "
		},
		"gasEstimates": {
			"creation": {
				"codeDepositCost": "41400",
				"executionCost": "5099",
				"totalCost": "46499"
			},
			"external": {
				"": "21252",
				"balance()": "394"
			}
		},
		"methodIdentifiers": {
			"balance()": "b69ef8a8"
		}
	},
	"abi": [
		{
			"constant": true,
			"inputs": [],
			"name": "balance",
			"outputs": [
				{
					"name": "",
					"type": "uint256"
				}
			],
			"payable": false,
			"stateMutability": "view",
			"type": "function"
		},
		{
			"payable": true,
			"stateMutability": "payable",
			"type": "fallback"
		},
		{
			"anonymous": false,
			"inputs": [
				{
					"indexed": true,
					"name": "value",
					"type": "uint256"
				}
			],
			"name": "Receive",
			"type": "event"
		}
	]
}