{
	"IntroToEthereum_Lab/Counter.sol": {
		"Counter": {
			"abi": [
				{
					"constant": true,
					"inputs": [],
					"name": "counter",
					"outputs": [
						{
							"name": "",
							"type": "uint256"
						}
					],
					"payable": false,
					"stateMutability": "view",
					"type": "function"
				},
				{
					"constant": false,
					"inputs": [
						{
							"name": "value",
							"type": "uint256"
						}
					],
					"name": "incrementCounter",
					"outputs": [],
					"payable": false,
					"stateMutability": "nonpayable",
					"type": "function"
				}
			],
			"devdoc": {
				"methods": {}
			},
			"evm": {
				"assembly": "    /* \"IntroToEthereum_Lab/Counter.sol\":27:179  contract Counter {\r... */\n  mstore(0x40, 0x80)\n  callvalue\n    /* \"--CODEGEN--\":8:17   */\n  dup1\n    /* \"--CODEGEN--\":5:7   */\n  iszero\n  tag_1\n  jumpi\n    /* \"--CODEGEN--\":30:31   */\n  0x0\n    /* \"--CODEGEN--\":27:28   */\n  dup1\n    /* \"--CODEGEN--\":20:32   */\n  revert\n    /* \"--CODEGEN--\":5:7   */\ntag_1:\n    /* \"IntroToEthereum_Lab/Counter.sol\":27:179  contract Counter {\r... */\n  pop\n  dataSize(sub_0)\n  dup1\n  dataOffset(sub_0)\n  0x0\n  codecopy\n  0x0\n  return\nstop\n\nsub_0: assembly {\n        /* \"IntroToEthereum_Lab/Counter.sol\":27:179  contract Counter {\r... */\n      mstore(0x40, 0x80)\n      jumpi(tag_1, lt(calldatasize, 0x4))\n      calldataload(0x0)\n      0x100000000000000000000000000000000000000000000000000000000\n      swap1\n      div\n      0xffffffff\n      and\n      dup1\n      0x61bc221a\n      eq\n      tag_2\n      jumpi\n      dup1\n      0x6abbb3b4\n      eq\n      tag_3\n      jumpi\n    tag_1:\n      0x0\n      dup1\n      revert\n        /* \"IntroToEthereum_Lab/Counter.sol\":53:75  uint256 public counter */\n    tag_2:\n      callvalue\n        /* \"--CODEGEN--\":8:17   */\n      dup1\n        /* \"--CODEGEN--\":5:7   */\n      iszero\n      tag_4\n      jumpi\n        /* \"--CODEGEN--\":30:31   */\n      0x0\n        /* \"--CODEGEN--\":27:28   */\n      dup1\n        /* \"--CODEGEN--\":20:32   */\n      revert\n        /* \"--CODEGEN--\":5:7   */\n    tag_4:\n        /* \"IntroToEthereum_Lab/Counter.sol\":53:75  uint256 public counter */\n      pop\n      tag_5\n      jump(tag_6)\n    tag_5:\n      mload(0x40)\n      dup1\n      dup3\n      dup2\n      mstore\n      0x20\n      add\n      swap2\n      pop\n      pop\n      mload(0x40)\n      dup1\n      swap2\n      sub\n      swap1\n      return\n        /* \"IntroToEthereum_Lab/Counter.sol\":84:176  function incrementCounter(uint256 value) public {\r... */\n    tag_3:\n      callvalue\n        /* \"--CODEGEN--\":8:17   */\n      dup1\n        /* \"--CODEGEN--\":5:7   */\n      iszero\n      tag_7\n      jumpi\n        /* \"--CODEGEN--\":30:31   */\n      0x0\n        /* \"--CODEGEN--\":27:28   */\n      dup1\n        /* \"--CODEGEN--\":20:32   */\n      revert\n        /* \"--CODEGEN--\":5:7   */\n    tag_7:\n        /* \"IntroToEthereum_Lab/Counter.sol\":84:176  function incrementCounter(uint256 value) public {\r... */\n      pop\n      tag_8\n      0x4\n      dup1\n      calldatasize\n      sub\n      dup2\n      add\n      swap1\n      dup1\n      dup1\n      calldataload\n      swap1\n      0x20\n      add\n      swap1\n      swap3\n      swap2\n      swap1\n      pop\n      pop\n      pop\n      jump(tag_9)\n    tag_8:\n      stop\n        /* \"IntroToEthereum_Lab/Counter.sol\":53:75  uint256 public counter */\n    tag_6:\n      sload(0x0)\n      dup2\n      jump\t// out\n        /* \"IntroToEthereum_Lab/Counter.sol\":84:176  function incrementCounter(uint256 value) public {\r... */\n    tag_9:\n        /* \"IntroToEthereum_Lab/Counter.sol\":163:168  value */\n      dup1\n        /* \"IntroToEthereum_Lab/Counter.sol\":153:160  counter */\n      sload(0x0)\n        /* \"IntroToEthereum_Lab/Counter.sol\":153:168  counter + value */\n      add\n        /* \"IntroToEthereum_Lab/Counter.sol\":143:150  counter */\n      0x0\n        /* \"IntroToEthereum_Lab/Counter.sol\":143:168  counter = counter + value */\n      dup2\n      swap1\n      sstore\n      pop\n        /* \"IntroToEthereum_Lab/Counter.sol\":84:176  function incrementCounter(uint256 value) public {\r... */\n      pop\n      jump\t// out\n\n    auxdata: 0xa165627a7a72305820172455ad81dbf5ba1c52cf989c2d1ed130766c61fd85898a2d80c4c87006a4a10029\n}\n",
				"bytecode": {
					"linkReferences": {},
					"object": "608060405234801561001057600080fd5b5060e08061001f6000396000f3006080604052600436106049576000357c0100000000000000000000000000000000000000000000000000000000900463ffffffff16806361bc221a14604e5780636abbb3b4146076575b600080fd5b348015605957600080fd5b50606060a0565b6040518082815260200191505060405180910390f35b348015608157600080fd5b50609e6004803603810190808035906020019092919050505060a6565b005b60005481565b8060005401600081905550505600a165627a7a72305820172455ad81dbf5ba1c52cf989c2d1ed130766c61fd85898a2d80c4c87006a4a10029",
					"opcodes": "PUSH1 0x80 PUSH1 0x40 MSTORE CALLVALUE DUP1 ISZERO PUSH2 0x10 JUMPI PUSH1 0x0 DUP1 REVERT JUMPDEST POP PUSH1 0xE0 DUP1 PUSH2 0x1F PUSH1 0x0 CODECOPY PUSH1 0x0 RETURN STOP PUSH1 0x80 PUSH1 0x40 MSTORE PUSH1 0x4 CALLDATASIZE LT PUSH1 0x49 JUMPI PUSH1 0x0 CALLDATALOAD PUSH29 0x100000000000000000000000000000000000000000000000000000000 SWAP1 DIV PUSH4 0xFFFFFFFF AND DUP1 PUSH4 0x61BC221A EQ PUSH1 0x4E JUMPI DUP1 PUSH4 0x6ABBB3B4 EQ PUSH1 0x76 JUMPI JUMPDEST PUSH1 0x0 DUP1 REVERT JUMPDEST CALLVALUE DUP1 ISZERO PUSH1 0x59 JUMPI PUSH1 0x0 DUP1 REVERT JUMPDEST POP PUSH1 0x60 PUSH1 0xA0 JUMP JUMPDEST PUSH1 0x40 MLOAD DUP1 DUP3 DUP2 MSTORE PUSH1 0x20 ADD SWAP2 POP POP PUSH1 0x40 MLOAD DUP1 SWAP2 SUB SWAP1 RETURN JUMPDEST CALLVALUE DUP1 ISZERO PUSH1 0x81 JUMPI PUSH1 0x0 DUP1 REVERT JUMPDEST POP PUSH1 0x9E PUSH1 0x4 DUP1 CALLDATASIZE SUB DUP2 ADD SWAP1 DUP1 DUP1 CALLDATALOAD SWAP1 PUSH1 0x20 ADD SWAP1 SWAP3 SWAP2 SWAP1 POP POP POP PUSH1 0xA6 JUMP JUMPDEST STOP JUMPDEST PUSH1 0x0 SLOAD DUP2 JUMP JUMPDEST DUP1 PUSH1 0x0 SLOAD ADD PUSH1 0x0 DUP2 SWAP1 SSTORE POP POP JUMP STOP LOG1 PUSH6 0x627A7A723058 KECCAK256 OR 0x24 SSTORE 0xad DUP2 0xdb 0xf5 0xba SHR MSTORE 0xcf SWAP9 SWAP13 0x2d 0x1e 0xd1 ADDRESS PUSH23 0x6C61FD85898A2D80C4C87006A4A1002900000000000000 "
				},
				"gasEstimates": {
					"creation": {
						"codeDepositCost": "44800",
						"executionCost": "93",
						"totalCost": "44893"
					},
					"external": {
						"counter()": "394",
						"incrementCounter(uint256)": "20433"
					}
				},
				"methodIdentifiers": {
					"counter()": "61bc221a",
					"incrementCounter(uint256)": "6abbb3b4"
				}
			},
			"userdoc": {
				"methods": {}
			}
		}
	}
}